:020000041000EA
:1000000000B5324B212058609868022188439860DF
:10001000D860186158612E4B002199600221596106
:100020000121F02299502B49196001219960352056
:1000300000F044F80222904214D00621196600F024
:1000400034F8196E01211966002018661A6600F04E
:100050002CF8196E196E196E052000F02FF8012189
:100060000842F9D1002199601B49196000215960AB
:100070001A491B48016001219960EB211966A021F2
:10008000196600F012F800219960164914480160C1
:100090000121996001BC002800D000471248134993
:1000A000086003C880F30888084703B5996A0420EC
:1000B0000142FBD001200142F8D103BD02B5186610
:1000C0001866FFF7F2FF186E186E02BD00000240BE
:1000D000000000180000070000035F00212200005C
:1000E000F4000018222000A00001001008ED00E03C
:1000F00000000000000000000000000074B24E7A12
:1001000000200420F7010010C3010010C5010010F9
:10011000C1010010C1010010C1010010C101001097
:10012000C1010010C1010010C1010010C701001081
:10013000C1010010C1010010C9010010CB01001065
:10014000CD010010CD010010CD010010CD01001037
:10015000CD010010CD010010CD010010CD01001027
:10016000CD010010CD010010CD010010CD01001017
:10017000CD010010CD010010CD010010CD01001007
:10018000CD010010CD010010CD010010CD010010F7
:10019000CD010010CD010010CD010010CD010010E7
:1001A000CD010010CD010010CD010010CD010010D7
:1001B000CD010010CD010010CD010010CD010010C7
:1001C00000BE00BE00BE00BE00BE00BEEFF3058054
:1001D000103800BEF2EB8871188600103C860010C3
:1001E0003402001090A31AE700201F49086006C8D7
:1001F00081F3088810471D48006800282FD10DA4FE
:100200000ECC002902D000F012F8F9E71849194A7B
:10021000002000E001C19142FCD1174988471749ED
:1002200088471749884700BEFDE701C901C29A42C5
:10023000FBD370473C860010C0000020CC03002098
:1002400048890010000004200000042048890010A4
:10025000001004200010042000000000704709482E
:1002600000F072FA0047000008ED00E0000000D046
:10027000D0030020DC0C0220511D001039060010B4
:10028000451E00105756000006005250ABB3605395
:100290005085001006005250861C03026085001035
:1002A000060052505422A29D6C8500100500525049
:1002B000DE65F46848890010F8B5C046064807496D
:1002C000091A8B10C90FC91810B5491003D0044B77
:1002D000002B00D0984710BDCC030020CC03002099
:1002E00000000000054B10B5002B03D00449054861
:1002F00000E000BFFFF7E2FF10BDC04600000000B5
:10030000D807002088810010002370B582B00193C7
:1003100007F0C4FE02221D4B04241A601C4B1D4E24
:100320001A688023DB015340E022D20113401A4AAD
:100330001A4D1360FA20800007F0CAF88021134B91
:10034000134A1C60490013680B42FCD0506880B20D
:1003500003F00EFD124903F004FD124903F0E7FC1F
:10036000114903F0EAFC011C104803F0E0FC01A96C
:10037000019000230422306805F062F80023042273
:10038000286801A905F05CF8D4E7C04600E0044005
:1003900000C00440C80B002000D00440CC0B00205B
:1003A0003333533A6ABC343F2D93E13A0000D841CD
:1003B000F0B51F4B57464E464546DE469A461D4B06
:1003C000002498461C4BE0B599461C4F1C4E83B048
:1003D000534618680123042269465B4205F008F978
:1003E0003D68201CAB009B46F15803F0A0FC5B4627
:1003F000011C0098F05003F09DFC0A21041C681CAD
:1004000003F0FCF8434618683960092801DC013024
:10041000186003F0B3FC011C201C03F08EFC4B465B
:1004200001900422186801A9002305F009F8CFE71C
:10043000C80B002058070020D4070020CC0700205C
:100440005C070020F0B50024104F114D114E83B011
:10045000012304225B426946386805F0C9F8009917
:10046000201C03F067FC041C28680130286003F09E
:1004700085FC011C201C03F060FC00230190042279
:10048000306801A904F0DCFFE2E7C046CC0B002095
:1004900054070020B00B0020294BF0B557464E46BC
:1004A000DE4645469B46274BE0B59846264B274FF0
:1004B0009946274B274E9A46274C83B001230422A6
:1004C00069465B42386805F093F8012304225B42D9
:1004D00001A9306805F08CF8042380211F4A2360AD
:1004E000490013680B42FCD05568584603F07EFD66
:1004F000A8B203F03DFC1A4903F033FC194903F09C
:1005000016FC194903F019FC011C184803F00FFCF4
:1005100003F056FC02000B00404603F059FE009821
:1005200003F04EFC02000B00484603F051FE019818
:1005300003F046FC02000B00504603F049FEBDE705
:1005400088810010B0810010D4810010D4070020F1
:1005500000820010B00B002000E0044000C0044006
:100560003333533A6ABC343F2D93E13A0000D8410B
:1005700030B587B002AB80240193012307256400C6
:100580002200009320490023204806F091FD03AB90
:10059000220001931E49002300951E4806F088FDA5
:1005A00004AB220001931C49002300951B4806F070
:1005B0007FFD05AB0193052322000093184900231A
:1005C000184806F075FD012200213C2004F016FFBA
:1005D000154B0122186000213C2004F00FFF134B43
:1005E0000122186000213C2004F008FF104B01227A
:1005F000002118603C2004F001FF0E4B186006F04B
:1006000065FD07B030BDC0462C8200100903001004
:1006100044820010B1030010548200104504001001
:100620006882001099040010C80B0020CC0B002039
:10063000D4070020B00B002010B503F0D5FD04490D
:10064000044803F0C5FDFFF793FF002010BDC0462E
:100650007882001088820010024B18688007C00F53
:100660007047C04600C0064010B5024800F004F8CC
:1006700010BDC046A40A002030B5002589B0040092
:100680000922002101A8009503F0DCFB09220021CA
:1006900005A8049503F0D6FB4B236A466846137001
:1006A00004A90D2207F048FD152108222000694405
:1006B00003F0CEFB09B030BD70B5EFF3108C72B60D
:1006C0000D4D2B68002BFCD0BFF35F8F0724CB08A8
:1006D000C618C05C01230C40A3401C000440034228
:1006E00007D118433070BFF35F8F2C608CF31088F4
:1006F00070BD100001F0AAFB2C0100D00021044BBA
:10070000044ABFF35F8F02C39342FAD17047C046D9
:10071000000100D0800100D0044A1078431CDBB2F5
:10072000172B00D9102313707047C046E802002031
:1007300010B5034B01001800024AFFF7BDFF10BDC2
:1007400050070020A4820010142310B5010018885F
:1007500004331B88984710BD162310B50100188874
:1007600002331B88984710BDF8B54746CE4680B582
:100770000F1E19D0142399460433040000250126C6
:1007800098464B461888434621681B88984701C401
:10079000431E9841013540420640AF42F1D130003E
:1007A000C0BCB946B046F8BD0126F8E710B50C202C
:1007B00082B001F0C9F9FFF74FFF002810D08B4B32
:1007C0008B488B498B4A186059609860D9601861D2
:1007D00059619861D961186259625A6202B010BDBC
:1007E000854CA06701F0B8F90122844B1A60636C54
:1007F000012BFCD10322824B1A607F4A936B012BA1
:10080000FCD1013301217F4A7F480093043301F07A
:100810004BF905237D4A009301217D4801F044F9FD
:100820007C4B5A68FF2A02D8802252005A608022EC
:10083000734B6E4C12011A602169002907D0606960
:1008400002F004FF013043001B18033BFDD2E022FD
:10085000704B714819680A400260022219685140C1
:1008600001320A40042102609A681142FCD08021C2
:100870006A4A09011160802252005A60684B236164
:10088000684B5968FF2900D85A60032201215B4B4D
:100890001A60644A93681942FCD0E0231068034050
:1008A00061480360126803234A40022113405D4AF5
:1008B000036093681942FCD080215C4B09011960E8
:1008C00080215B4B4900516063615A4B5A68FF2A93
:1008D00000D859608022584B12011A60E169002942
:1008E00007D0606902F0B2FE013043001B18033BE1
:1008F000FDD2E0234F4A11680B4050490B60802124
:100900004F4B090119608021394B49005160E36167
:100910004C4B5A68FF2A00D8596080224A4B12017A
:100920001A60216A002907D0606902F08FFE013049
:1009300043001B18033BFDD2E023424A11680B40E1
:1009400042490B608021424B0901196080235B0002
:1009500053608022264BD20223623E4B596891425B
:1009600000D25A6080223C4B12011A60616A002951
:1009700007D0606902F06AFE013043001B18033B98
:10098000FDD2E023334A11680B4034490B608021CB
:10099000334B090119608023DB025360154B6362FE
:1009A000304B5A68FF2A02D8802252005A608022B7
:1009B0002D4B12011A60A169002907D0606902F06D
:1009C00045FE013043001B18033BFDD2E023254ABE
:1009D00011680B4025490B608021254B09011960E6
:1009E00080235B005360124BA361F7E6D003002025
:1009F000006CDC021BB70000008000403CB00040EF
:100A000030B00040002F685900800240008C8647BB
:100A100000C00240308000403090004030A00040D4
:100A2000001BB7003C8000403C9000403CA00040D0
:100A3000405973075480004054B000405490004027
:100A400054A000406080004060B0004060900040D2
:100A500060A000406C8000406CB000406C90004092
:100A60006CA000404880004048B0004048900040E2
:100A700048A00040014B8000C0587047D0030020C0
:100A8000094A10B594464024830063441A68C000A4
:100A90006240803414408022520113431C60034B97
:100AA0009C466044416010BD04C0014000400140CC
:100AB00001238340002904D0034A1360034A1360D2
:100AC0007047034A1360FBE780E200E000E100E0CA
:100AD00080E100E001228240034B1B6813405A1E54
:100AE0009341D8B27047C04600E100E0024B10309D
:100AF0009B688000C058704700ED00E070B50D00A5
:100B0000EFF3108672B60F4A1368002BFCD0BFF3C8
:100B10005F8F0D4B10309B6884001B590B4A93422A
:100B200003D09D4201D001F0AFF9074B9B681D51E6
:100B3000BFF35F8FBFF35F8F0022024B1A6086F313
:100B4000108870BD240100D000ED00E0CD01001040
:100B5000F0B5DE4657464E464546E0B50C0083B03C
:100B6000EFF3108872B65D4A1368002BFCD0BFF318
:100B70005F8F5B4B5B499A68030010339F00D55928
:100B80008D4239D0A5424AD0574EAA1B2F2A33D8BE
:100B900001229246824091464846544A12681040CB
:100BA00001904846524A1060BFF35F8FEFF3058211
:100BB0009346002A35D0934201D001F065F92A000E
:100BC00053469A439068844208D175E04B005B1805
:100BD0009B00F3189868A04234D01A0006215156A1
:100BE0000029F3DA844253D0019B002B26D04A46D9
:100BF000404B1A603D4B1A60394B9B68DD51BFF387
:100C00005F8FBFF35F8F0022344B1A6088F3108828
:100C100003B0F0BCBB46B246A946A046F0BD0D00ED
:100C2000EAE72A0053469A4390688442D6D10620C8
:100C300010561300002809DA0D0031E04A462C4B0B
:100C40001A60D9E706201856002822DB4200111846
:100C5000890074188A46A1689960E179D9710621E2
:100C600061569971002925DBA488F11A64052415C1
:100C700054440919E0240905490D240221439980AF
:100C800013181D4A9B001178F31899711070ABE787
:100C900013005946002914D1FF31917117499180F1
:100CA00015490A789A71164A9B1B5B415A43120DEB
:100CB0000A7099E71349E2E706201056130000284E
:100CC000C4DA114A1149D21A083A5002400D0143C0
:100CD00099800F4952080A43DA8085E7240100D041
:100CE00000ED00E0CD010010EC02002000E100E08A
:100CF00080E100E080E200E0DA0C022001BDFFFFAD
:100D0000AAAA000001BD00002603002000F0FFFF9A
:100D100000F8FFFF032310B50400074A184094466B
:100D2000C0009C43FC3383406444226881409A4362
:100D300013000B43236010BD00E400E070B5EFF337
:100D4000058101240443EFF3108C72B6214A136825
:100D5000002BFCD0BFF35F8F1F4B05001F4AED1A1D
:100D60006D416A43120D1E4D8900AE6852B276582D
:100D7000A6421CD00621595691421CD01221595628
:100D8000914222D01E215956914220D02A215956F3
:100D90000324914210D0134B19781A708171BFF35C
:100DA0005F8F00220B4B1A608CF3108870BDAB680C
:100DB0000D4C5C50EFE700246100091989005B18B5
:100DC000FF21997109499980E5E70124F4E702249C
:100DD000F2E7C046240100D0EC020020AAAA0000DD
:100DE00000ED00E0DA0C0220CD01001001BDFFFF94
:100DF000054B064A1360064A136053609360D36044
:100E000013615361936170478080808000E400E04B
:100E100004E400E0024B9C46614489000160704795
:100E20004000003410B50400FFF776FC01002000FC
:100E3000FFF7F0FF01235B426360BFF35F8F10BDDC
:100E400010B50400FFF768FC01002000FFF7E2FF87
:100E500001235B42636000232372BFF35F8F10BDE9
:100E600083680B4810B5844661446244120109014D
:100E700059189B185C684A680120944201D802D036
:100E80000020C0B210BD1A680B689A42F9D8F7E783
:100E9000FFFFFF0F074810B50268EFF3108172B62D
:100EA0001368002BFCD0BFF35F8F03F003FD00201D
:100EB000002110BDB40B0020F8B5574645464E46FC
:100EC000DE46E0B598460CAB1C780DAB1B780700EE
:100ED00091469A460568002C5AD1AC7B002C3BD039
:100EE000660029683619033E89194B78AB73002BCD
:100EF00000D1EB7300238B704B700B702B4BE218FF
:100F0000BB6812019B184A461A6042465A600A9A08
:100F10009A600B9ADA6000238B704B700B706B7BBE
:100F20009B46002B27D022006B685946A86898473B
:100F30005B465B005B442A68033B002812D058469E
:100F40009619B070D118D35C002B00D073705B463B
:100F50000C706B735C450FD0F0BCBB46B246A94623
:100F6000A046F8BDD3189C709119925D002A00D05C
:100F70005A705B460B706C734A464346387D00F0EE
:100F80003FFB051E0AD10E9B002BE5D01D70E3E749
:100F9000660029683619033E8919AFE75346002BCE
:100FA000F1D12100386800F043FDECE7FFFFFF0FAF
:100FB000F0B5DE4657464E4645460023E0B58BB0B9
:100FC0000893684B8200D45800239B46099000F098
:100FD00093FA02000B006068EFF3108A72B656466F
:100FE00001680029FCD0B246BFF35F8F21684F7BB8
:100FF0008C46002F2ED0A5685B49A94679180901B7
:10100000894449460868496805000E00AD1A9E41AA
:10101000002E5FDD02000B00099800F0F1FA0023BA
:10102000002299460023069207930023984663689E
:10103000BFF35F8F5A461A608AF310884346002B2D
:1010400012D10028C3D10BB0F0BCBB46B246A946B2
:10105000A046F0BD00230022994600230692079384
:10106000002300209846E2E7089B494618023843CF
:10107000C047626805000E00EFF3108A72B613686D
:10108000002BFCD0BFF35F8F002E41DB2B003343DE
:1010900002D02369002B56D12368D97B002905D0C3
:1010A0001A68480041185218033A57709A7B002A70
:1010B00000D19F73DF73E268013FD35D0133D355E5
:1010C0005B4623616368BFF35F8F5A461A608AF3F9
:1010D00010887CE7002E02D1002D00D09AE7002175
:1010E000604600F023FC4B461A685B680692079343
:1010F0004B469B6898464B46DB689946E368DB198C
:10110000013B1B7808931B020343236100208EE7F9
:101110002369002BC0D0069A079B8021521BB34144
:1011200009068B4202D30122104B52420021049146
:1011300001310391494601914146200002970091F7
:10114000FFF7BAFEBCE700F0D7F92A003300121807
:101150004B41802109068B42E8D30122034B5242C6
:10116000E4E7C046F0070020FFFFFF0FFFFFFF7F0F
:1011700010B5144C6368002B04D00A211248FFF705
:1011800049FE10BD2300114A1021206800F0EAFA40
:10119000032000F0A5F9032000F09AFA03200C497F
:1011A00000F0E8F9FFF7B8FA0A4B9C4603232375D1
:1011B000D0231B061B6860446375074B800060608A
:1011C000DC60DAE734030020B40B0020610E00106D
:1011D000B10F001040000034F0070020F0B5574672
:1011E0004E464546DE46E0B585B0019310AB1B7810
:1011F0000600039300239A46984600927268EFF324
:10120000108B72B61368002BFCD0BFF35F8F35686C
:10121000AC7B002C00D16EE067002B683F19033FC8
:10122000DB195A78AA73002A00D1EA73484AA11838
:10123000B2680901521800980199106051600E9926
:1012400091600F99D16042469A705A701A706B7B08
:101250009946002B00D16BE022006B684946A868D4
:1012600098474B465B004B442A68033B002856D006
:101270004846D719B870D118D35C002B00D07B70CA
:101280004B460C706B734C4553D0F3681B19013BF4
:1012900018787368BFF35F8F42461A608BF310882B
:1012A0005346002B08D10002204305B0F0BCBB46DA
:1012B000B246A946A046F0BD039B002B46D00E9B2C
:1012C00000200F99984703000B433FD004000D1EE8
:1012D0001ADA009A019B121BAB4100920193802203
:1012E0001206934204D301231A4C5B4200930194EB
:1012F000039B9A4682E77368BFF35F8F1C608BF392
:10130000108801204042D0E700F0F6F88022001952
:1013100069411206009001919142E9D3E3E7D318A5
:101320009C70D119D25D002A00D05A704B460B70C8
:101330006C73307D009A019B00F062F982460028B0
:10134000A3D02100306800F073FB9EE70020ACE7DB
:10135000FFFFFF0FFFFFFF7FF0B5EFF30583CE46E2
:10136000474680B505000C0085B0002B12D02A4AF4
:101370000020536AA34203D3926A0130AA4204D3E5
:1013800005B0C0BCB946B046F0BD1B1B5A1E934108
:10139000D8B2F5E7214E02930193214B020000934E
:1013A00030000B00FFF71AFF031EE0DD20BF71685D
:1013B000EFF3108772B60A68002AFCD0BFF35F8F84
:1013C000DAB29446FF2230681A40417B61450FD063
:1013D0000168894651008846494690444144033992
:1013E0008978002904D13269934209D1316107E03B
:1013F000F1681B0A8A18013A1278DBB29A4207D0C8
:101400007368BFF35F8F00221A6087F31088AEE71E
:10141000614600F00DFBF3E7004005403403002077
:10142000950E0010F0B5EFF30582D6464F464646BE
:101430001000C0B51038EFF3108872B6214C236845
:10144000002BFCD0BFF35F8F0123190081401E4D9C
:101450001F006963AA461D4D29601D4D2E78AC46BC
:101460003500C5402F402B4215D053465F6A194BBB
:101470008500EB589F4218D36246174B8E43EB58BA
:101480001670BFF35F8F0022226088F31088002B54
:1014900006D0984704E0BFF35F8F276088F3108879
:1014A000E0BCBA46B146A846F0BD0C4B92009C4643
:1014B000624413681360BFF35F8F0023236088F3D7
:1014C0001088EDE7280100D0004005403C70054041
:1014D000DB0C0220B80B002038060020D03F05406E
:1014E00010B5034B01001800024AFFF7E5F810BDE4
:1014F000D90C0220C4820010034B596A0A00986A72
:10150000596A8A42FAD170470040054070B504001C
:101510000D00174A536A1900966A536A8B42FAD132
:101520003000190024184D41AB4216D813D0104B8F
:101530002A005B6A9D4203D90D494B6A9342FCD352
:10154000934207D10A4A02E0516A994202D1916A54
:10155000A142F9D370BDA642E9D9054B5B6A1C00D4
:101560005A1CEFD0012201246442E5175242E3E7FE
:101570000040054070B504000D00EFF3108672B610
:101580001A4A1368002BFCD0BFF35F8F002D1BD0CD
:101590002000FFF7ABFA164981420AD02000FFF77E
:1015A000ADFA01212000FFF783FA0123A340114A7D
:1015B0001360114BA400E550BFF35F8F00220B4B6B
:1015C0001A6086F3108870BD0121A1400A4BA20069
:1015D000D5500A4B20001A788A4305491A70FFF744
:1015E000B7FA00212000FFF763FAE5E7280100D0F1
:1015F000251400103860054038060020DB0C02205E
:10160000F0B54F46D6464646C0B507002B4C616A3A
:101610000D00A66A616AA942FAD18B4208D805D0AA
:101620000120E0BCBA46B146A846F0BDB242F7D9A7
:10163000EFF3108A72B6224801680029FCD0BFF38C
:101640005F8F0125BD401F491C4C8846097889469B
:101650002943C9B28C46414660460870391D89004D
:1016600065630A511849B8004350216A0020294295
:1016700019D0616A0800A66A616A8142FAD18B4278
:1016800019D801D1B24216D8CC450BD00B4B1F2232
:101690001D625D6301233A4093400C4A1360434648
:1016A0004A461A700120BFF35F8F0022044B1A6074
:1016B0008AF31088B5E70020F5E7C04600400540F2
:1016C000280100D0DB0C0220B80B002080E200E0F3
:1016D000EFF3108C72B60A490B68002BFCD0BFF3F5
:1016E0005F8F01238340074A0748136202789A43B9
:1016F0000270BFF35F8F00230B608CF3108870477C
:10170000280100D000400540DB0C022070B5060027
:101710000D00140000291DD0002A12D073688068C3
:10172000984762006B0012195B193168033A033B5A
:10173000002808D08A189570C818CB5C002B0BD1F4
:101740000470280070BDCB189C7088188A5C002A31
:1017500005D105702000F5E753700470F1E75A7069
:101760000570F7E710B583600023CCB243730133F3
:10177000426004738373C4730068421C012C05D952
:101780000133DBB2137003329C42F9D1FF230B40CB
:101790005A00D318C01800230338437010BDC04648
:1017A00070B505000C1E07D0630001681B19033BD0
:1017B000CB185A78002A01D1200070BD5000801843
:1017C0000338091800204E7848702100587028000E
:1017D000FFF79CFF310004002800FFF7E1FF06003F
:1017E000002C20D00028E7D0320021006B68A868C8
:1017F00098477200630092191B192968033A033B4A
:10180000002808D08A189470C818CB5C002B00D030
:1018100053700670D0E7CB189E7088188A5C002A37
:1018200000D05A7004703400C6E7C046F0B5574681
:101830004546DE464E46E0B50D006F0001687F1953
:10184000033F0400C85D83B00192CA19002850D03C
:1018500043001B18033BCB185E78B446002E1AD108
:10186000019E002E42D0E67B002E04D073009B190F
:10187000CB18033B5D70A37B002B00D1A573E573F0
:1018800000282FD10023537003B0F0BCBB46B246F2
:10189000A946A046F0BD72006244033A8A18517806
:1018A000884600215170894659703200010020009D
:1018B000FFF72CFF43468246002B07D05B002168D0
:1018C0004344033BCB185A78002A16D1424651466E
:1018D0002000FFF71BFF2168019BCA19002BC2D112
:1018E0000028CFD043001B18033BCB180021997070
:1018F000C8E7019B002BB6D1C4E75000801803381D
:101900000918487883464846487058704146200078
:10191000FFF7FCFE594680462000FFF741FF414695
:1019200002002000FFF7F2FE8046CFE7F0B55746F1
:101930004546DE464E46E0B583B00191457B040046
:101940006F0000687F19033FC15DC219002952D0A2
:101950004B005B18033BC3185E78B446002E1CD1C5
:10196000019E002E44D0E67B002E04D073009B190C
:10197000C318033B5D70A37B002B00D1A573E573F7
:10198000002931D1002328005370617303B0F0BCEB
:10199000BB46B246A946A046F0BD72006244033A77
:1019A000821850788046002050708146587032006E
:1019B0002000FFF7ABFE43468246002B07D05B00BA
:1019C00021684344033BCB185A78002A17D142467A
:1019D00051462000FFF79AFE019B01002068C219C2
:1019E000002BC0D10029CDD04B005B18033BC3189E
:1019F00000209870C6E7019B002BB4D1C2E75000CD
:101A0000801803380918487883464846487058704B
:101A100041462000FFF77AFE594680462000FFF736
:101A2000BFFE414602002000FFF770FE8046CEE771
:101A300070B5050000292CD0437B8B422ED04C0082
:101A400000686418033C0419A278002A21D05300CE
:101A50009B18033BC25CC6188A4202D11BE0002AD5
:101A600008D053009B18033BC3185A788A42F6D11A
:101A700062785A70002301222800A3706370FFF778
:101A8000D5FE697B02002800FFF740FE6873012045
:101A900000E0002070BD63783370EBE7012219008D
:101AA000FFF7C4FEF2E7C046F8B5040021481D0068
:101AB00017000E0001F0CAFD0100380001F0C6FD5C
:101AC000069B29041B0319432368002B20DB1A4BB8
:101AD0001A4DE21853425A4180235B019C4612037F
:101AE000174B62441A60174B1A601700AB689F438C
:101AF000FBD1C022231D92011A4321232660A0603E
:101B000013602368002BFCDA0823E1601360F8BD42
:101B10003F2322681340B342D9D1A3681B051B0D94
:101B20008342D4D1EE22E368D20213408B42CED15D
:101B3000EDE7C046001BB7000040FDBF00C00040FD
:101B400000E0004000F000408023024A9B00034375
:101B5000D362704700800540AA23064A1B01136028
:101B60002F230549D360054B19605368002BFCDA1D
:101B70007047C0460040024000B0FA0000600240DA
:101B8000F8B50D00EFF3108772B60C4B10309B6860
:101B900084001E59B14204D0094B9E420AD200F083
:101BA00073F9064B9B681D51BFF35F8F87F3108855
:101BB0003000F8BD034B9E42F3D3F0E700ED00E0A8
:101BC000C0010010CC010010F8B5CE464746040015
:101BD00080B506200E00FEF74DFF051E51D0524B7A
:101BE0005249E21853425A418023DB039C46920536
:101BF0004F4B62441A604F4B1A6010008B68984339
:101C0000FBD1494B4C4AE31859424B4180215B00C0
:101C1000490006209952FEF72DFF3100C00001F067
:101C200015FDC30932D14022012190466162A362B1
:101C3000256BEB0736D427008026E36A00232C3778
:101C400076013E43336006202563FEF713FF4146CD
:101C5000800001F0FBFC236B05009846DB073BD4BA
:101C60006023E26A5A400E331340336043462363D5
:101C7000802310229B013B431A60304B23630323D4
:101C8000A3642800C0BCB946B046F8BD2C4A9342B4
:101C90003FD900232B492C4A6162A362256B9046F1
:101CA000EB07C8D52200C02330329B011343234ADF
:101CB00006201A60666AA36AB601F618FEF7DAFE15
:101CC000224901F0C3FCB6020100300001F0BEFC65
:101CD0000021FFF71BFCAEE72200C02330329B013E
:101CE0001343164A06201A60636AA26A9B0199464A
:101CF0009144FEF7BFFE4B4614499B02994601F002
:101D0000A5FC0100484601F0A1FC0021FFF7FEFB05
:101D1000A6E77F2299018846024001325208190045
:101D20009044130082E7C0460080FCBF00C0004022
:101D300000E0004000F00040D00B00200103000054
:101D4000FEFF0000FFFF0000C0FF3F004E0E00003E
:101D50002C4B2D4A70B51A602C4A2D4B2D491A6018
:101D600014008B689C43FBD12B4D2C4EB54208D2FE
:101D7000013E761BB60808CD984723000134B342D4
:101D8000F9D1FEF713FD264A214B1A60214A9368C8
:101D9000DB43DB01DD09002BF9D14022214B224C32
:101DA000224E9A675A671A67DA66B44208D22368E5
:101DB0002000002B20D00C34FFF742F8B442F6D3B9
:101DC0001B4C1C4EC022B168200002F041F8B460E8
:101DD000FEF794FCFFF70CF8FFF7CAF9164C174E04
:101DE000B44208D2013E361BB60808CC98472B00F7
:101DF00001359E42F9D170BD0834FFF713F8B442A3
:101E0000D5D3DDE700E00040BFCDFBFEFE7F3C0008
:101E100000F0004000C00040B0030020C0030020DC
:101E2000FFFFFF0100F00140A0030020B0030020ED
:101E30000000002000ED00E0C0030020CC030020E3
:101E400000BEFDE710B5FFF7FBFFC0460FB400B5BD
:101E5000084883B002F0CAF8049B002B07D005A9FC
:101E60001800019101F0A4FB034802F0BFF8012023
:101E7000FFF7E6FFE8820010F882001010B5014875
:101E8000FFF7E4FFFC82001010B50148FFF7DEFF0A
:101E90000C8300107047C046F8B557464546DE46ED
:101EA0004E46E0B598460A9B06009A460D9B0F00E9
:101EB000934615009B0710D10B9B0C9A93420CD2B2
:101EC00013005C460B9A9D1A5D4422004346013480
:101ED00039002020B047A542F7D10B9C6319002C94
:101EE00009D01D0053462A1B013C185D39004346AA
:101EF000B047002CF6D10D9B9B070ED55B46EC1A24
:101F00000C9BA34209D999462A0043463900202058
:101F10000134B0470135A145F6D82800F0BCBB46D6
:101F2000B246A946A046F8BDF0B54F464646D6464D
:101F3000C0B584B098460EAB1B7894469946129B68
:101F40000D9C109F119E9A0724D4002E6AD1BC428A
:101F500020D201221A409246202C00D1D2E00C9AC5
:101F6000551E302201E0202C30D001342A55A742E2
:101F7000F9D85246002A0DD0B4420BD20C9A551E05
:101F80003022202C02D126E0202C63D001342A55A7
:101F9000B442F9D1DA0634D55A0564D4002C5ED1A6
:101FA0000F9A102A00D197E0022A00D1A8E030222F
:101FB0000C9C227001244A46002A5ED15A0700D4A4
:101FC00083E02B220C9D2A5501341CE05246002A46
:101FD00002D0202E3ED92024DA0614D55A0512D478
:101FE000202F00D1A1E0202E3DD120261F22340039
:101FF0000F9D102D00D18BE0022D52D030250C9F6B
:10200000BD54202CD7D103930C9B624600930296BB
:1020100043460194FFF740FF04B0E0BCBA46B14626
:10202000A846F0BD012215001D40AA461A4229D03B
:102030004A46002A39D10C321A4236D1BC429BD2D0
:10204000202C00D08BE710221A40202EC3D8002A63
:10205000A2D1D8E72024DA06D5D55A0503D4A74261
:1020600025D0B44223D00F9A102A25D0022A14D0AA
:10207000202CC8D022000134C0E72D220C9D2A5507
:102080000134C0E7BC4200D384E7202C00D066E7CF
:1020900010221A40002AE0D1B5E7202CB3D022004C
:1020A000013462250C9FBD54E2E7013EC6E7621E83
:1020B000012C00D174E79BE79A0616D4202CA2D0FD
:1020C00078220C9D2A550134D2E71A079BD520228D
:1020D0000C9D2A55013496E79A060FD478220C9C61
:1020E000227030226270022465E7202C00D18AE73A
:1020F00058250C9A121915700134B9E75822EEE7E9
:102100006222ECE7102255461A40002D9FD1C1E70C
:10211000023C9D0604D478250C9F3D551400A9E788
:1021200058250C9F3D551400A4E71F2260E7C046C8
:1021300010B5002800D110BD01F00CFFFBE7C04630
:102140000B0010B5002802D049681B68984710BDE5
:10215000F0B557464E464546DE46E0B599B0824654
:10216000894690460893229A239B1000190001F09B
:102170001EFD002800D0CDE0229823990122D94BE2
:10218000524201F00FFD002800D0C3E022982399AD
:102190000122D54B524201F0F7FC002800D0B9E0F3
:1021A000229823990022002301F0EEFC002800D0A1
:1021B000F1E1229E239F8023269ADB001A400D9294
:1021C000269A1A4201D1062324938023269A1B01C2
:1021D0001A403B0093460996334300D0B3E0002AEF
:1021E00000D0C2E1002300240A930B9400230425AD
:1021F0000993259B0024AB4200D95C1B0223269A3D
:102200001A400C92269A134203D06B426B415B42F8
:102210001C40099B002B07D00A9A0B9B3000390009
:1022200001F059FC06000F00229823990022002398
:1022300001F0AAFC002803D0802109067B181F00AA
:10224000269AAA4B009601971340089E0493249B5C
:1022500003940293424633004946504600F0AAF9DF
:102260000400002D67D02020269A49460240130022
:102270005A4253415B42621C18400A9233002200CA
:102280004530D047099A6F1ED317D4185C40D30F3E
:102290009B46002501E0202D13D008AA94461F2359
:1022A000200063440A2101355E1901F0CFF9303175
:1022B000317020000A2101F0C9F926000400092E1E
:1022C000E9D805230693002304930A3303935B465E
:1022D000089E029310AB0A9A009349463300504679
:1022E00005970195FFF720FE0C9A0400002A22D0E2
:1022F0004246851A259AAA421DD9B046574616006D
:1023000022004346494620200135B8470134AE42F9
:10231000F6D810E0269B42460493259B494603933A
:10232000249B50460293229B239C00930194089B7C
:1023300000F040F90400200019B0F0BCBB46B246E2
:10234000A946A046F0BD6A4B78009C46400D60440B
:1023500001F040FC674A684B01F0D7FB674A684BC5
:1023600001F0B4FB674A3B031B0B1A4304000D004A
:1023700009981100644B002201F0A3FB634A644BEF
:1023800001F0C3FB02000B002000290001F09EFBBE
:1023900001F038FC099001F01DFC5E4A5E4B040020
:1023A0000D0001F0B2FB00225C4B01F08FFB01F04D
:1023B00029FC5B4A5B4B29000C90200001F0A5FB37
:1023C00004000C980D0001F005FC574A574B01F032
:1023D0009CFB02000B002000290001F072FB0400AE
:1023E0000D0002000B000A940B9501F08EFB040017
:1023F0000D000A980B9902000B0001F067FB002208
:102400000E900F914A4B2000290001F064FB00223E
:10241000484B01F05BFB02000B002000290001F09B
:102420005AFB0022444B01F051FB02000B0020003C
:10243000290001F050FB0A9A0B9B0D00802104003B
:10244000C905002001F03DFB02000B00200029001F
:1024500001F03CFB02000B000E980F9901F03BFBD2
:102460000022284B01F032FB344B0C9C9C46644408
:102470002305002201F049FB04000D0002000B00BF
:10248000300039000A940B9501F07EFB00285DD1E5
:1024900023002A00C625099963318D42AD41594672
:1024A0006D420435002900D1A3E6134363D0300008
:1024B0003900234A234B01F06DFB002807D000228E
:1024C00030003900204B01F05FFB002853D1249BE2
:1024D000002B00D18DE60D9B5A1E9341249AD31AEE
:1024E000249386E6FFFFEF7FFFFFEFFFFFF7FFFF7D
:1024F00001FCFFFFFB799F501344D33FB3C8608BAF
:10250000288AC63F0000F03F0000F83F61436F6338
:10251000A787D23F71A379094F930A400000E03F9B
:102520001655B5BBB16B0240EF39FAFE422EE63FBD
:1025300000002C400000244000001840FF03000071
:102540002D431CEBE2361A3F80842E41099B00226A
:10255000013B09932000164B290001F0BCFA0A0048
:10256000010003000A910B9294E7002300240A93D0
:102570000B9400230993249A099B9A4214DDD31AE1
:10258000013B24938023269ADB001A430023002575
:10259000269209932DE6802212069446229B1E0065
:1025A000239B63441F0006E600232493EAE7C0460A
:1025B00000002440F0B54546DE464E465746E0B59D
:1025C00095B08B46904699461E9A1F9B0A9019001B
:1025D0001000209D01F0EBFA002800D0B0E11E9819
:1025E0001F990122C74B524201F0CEFA002800D0B9
:1025F00037E11E981F990122C34B524201F0D2FAD3
:10260000002800D0A7E01E981F990022BF4B01F0C0
:10261000C9FA002800D088E01E981F990022BC4B00
:1026200001F0B2FA002800D07FE01E981F99002226
:10263000002301F0A9FA002800D0FAE000230B9350
:102640008023229C229ADB001C401A4200D102E126
:10265000092D00D87EE106A98C462C001722002304
:102660003021093C62440133D154EF1A202B00D1B0
:1026700032E1A342F7D10022A44B069207931E98A1
:102680001F9901F0BFFA050001F0A4FA02000B0047
:102690001E981F9901F015FA069A079B01F035FA6A
:1026A0000890099101F0D2FA060001F08FFA0200B9
:1026B0000B000898099901F004FA0022954B089044
:1026C000099101F06FFA002800D1D2E00136300004
:1026D00001F07CFA069A079B01F05CFA002801D011
:1026E00000260135AA46002F00D098E0280001F00E
:1026F00071FA02000B001E981F9901F0E2F9854B58
:10270000002206000F0001F03FFA0CAB9A460028A9
:1027100045D10022300039007E4B01F043FA0028F9
:102720003DD1EB073BD5013539E0229B424604936E
:10273000219B594603930A981E9B1F9C0295009368
:1027400001944B46FFF704FD15B0F0BCBB46B24602
:10275000A946A046F0BD229B5B0767D403226E4BBF
:1027600022990192039121990291009342464B468E
:1027700059460A98FFF790FBE6E706AA9446172306
:10278000280063440A2101341E1900F037FF30315C
:10279000280031700A2100F031FF051E76D0202C70
:1027A000EBD10323229A1340012B1DD1219B002B37
:1027B0001AD00B9B002B00D0BBE0229A0C331342A3
:1027C00000D0B6E0219BA34200D887E006AB9C4630
:1027D00017223023624404E02199013413558C42BE
:1027E00059D0202CF8D12024229B01940393219BC3
:1027F00002935346B9E706AA944617230A21634475
:10280000300001341D1900F021FF303129703000F3
:102810000A21013F00F01AFF092E46D90600202C9C
:10282000E9D155460CAB20249A46B8E704223B4B2D
:1028300096E71E9A1F9B0020002101F042F9012318
:102840000B938023229C229ADB001E901F911C4038
:102850001A4200D0FCE60022314B0627069207936D
:102860000DE7229B0393219B0293042301932D4B9D
:102870007BE7002208980999264B01F085F900288A
:1028800000D02FE7002E4FD101362BE70323229AE9
:102890001340012B68D0202CA6D00B9B002B1FD0FF
:1028A0002D235246135501349EE75546202CB9D0AE
:1028B00030223B19002F4BD0172006A901340918EC
:1028C0000A55202CAED09C42F6D10CAA92462E225C
:1028D00051465C1CCA5462E72024CCE6202C83D0ED
:1028E000229B5B0708D4229B1B0700D47CE7202394
:1028F00052461355013477E72B23524613550134C2
:1029000072E7C046FFFFEFFFFFFFEF7F65CDCD41D0
:1029100065CDCDC10000E03F20830010188300107A
:1029200080842E4128830010F30700D4DAE60136B4
:10293000D8E6219B013B2193A34200D946E7AAE7B1
:10294000229B0393219B029303230193084B0CE7E3
:102950002300BAE7074BEA009B185C681B682F004E
:102960000693079400248AE6219B002B93D020E74E
:1029700024830010D0840010F0B54546DE4657464B
:102980004E46E0B5A1B01D002A9B90460B93D04A5D
:10299000D04B83468A461A60002900D1A4E1002367
:1029A00028789946002800D1A6E1CB4B5E460993D2
:1029B000CA4B4C46D34647460D930AE0631C9846E3
:1029C00022003B005946B04744462878002800D1F1
:1029D000CDE001352528F1D108239A46043B9946DC
:1029E000023B9846013B00229C460C942878691CC7
:1029F0000300203BDBB2102B03D8099C9B00E3585B
:102A00009F460300303B0C9C0A92092B7FD9002380
:102A100098462A2800D1C1E000239A462E2800D1EA
:102A200090E00300683BDBB2122B1ED8AC4A9B003F
:102A3000D3589F4663460D001A43D7E743460D001F
:102A40001A43D3E74B460D001A43CFE710230D007E
:102A50001A43CBE753460D001A43C7E780235B00B8
:102A60000A9A68781A430A9201310D0067280AD839
:102A70002428A3D90300253BDBB2422B9ED80D9A14
:102A80009B00D3589F4601006939C9B20F2995D8D8
:102A900001238B409C46934B994663464A4613401C
:102AA0000C9362464B461A4200D05EE20A2900D1DE
:102AB00024E1072982D10B9B02CB9846002900D143
:102AC0009BE121200A9A0243914610AB9C461F22AB
:102AD0000F23404662440B959C46A04615000C9B74
:102AE0000A9002E0202B0CD0110064460C4020001C
:102AF0003730092C00D807380133E8540A090F2968
:102B0000F0D80C930A9B44460B9D984685E1002320
:102B100098460A9B45469C4600E00131AB005B1994
:102B20005B001D180878303D0300303B092BF4D9B9
:102B300063460A930023A8469A460D0001312E28C9
:102B400000D06EE780200A9AC00002430A92302229
:102B50005242944668780B0084446246092A00D8A1
:102B60002EE12A2800D13DE10D00013159E7DA4676
:102B7000A146B346B846C84503D801235B42434447
:102B8000994643464A4651460020D847200021B086
:102B9000F0BCBB46B246A946A046F0BD0B9B04CB99
:102BA0009046002A04DB68780B930D00013133E76F
:102BB0000A9A283802430A9242465242687890465E
:102BC0000D000B93013127E7672800D1C7E14728A3
:102BD00000D114E2452800D116E20A9A0721049296
:102BE00042460B9B0392073352468B4319000292D5
:102BF0000CC93000009201930B9122003B00594612
:102C0000FFF7A6FA0400E0E680239B0028E7687837
:102C1000682800D11BE280230A9A01311A430A92E4
:102C200023E768786C2800D109E280230A9A5B00C8
:102C30001A430A92013118E7462800D18AE10A9A1C
:102C40000721049242460B9B0392073352468B4363
:102C5000190002920CC93000009201930B912200DE
:102C60003B005946FFF7A6FC0400AEE6631C9846FD
:102C700022003B0059462520B0474446A5E60B9B61
:102C800004330C93631C99460A9B9A0700D4E7E12E
:102C90000B9B2200187859463B00B04743464444FA
:102CA000012B00D8B8E22B00B84625005F464C4601
:102CB000994622004346013439002020B047AC42F7
:102CC000F7D12C00BB464D4647460C9B0B937CE648
:102CD00079290010D007002030830010C083001035
:102CE0007483001041900000DC4B28789B46002341
:102CF0009946002800D058E600243CE70B9B02CB05
:102D000012930B789C4618005346002B00D09CE091
:102D1000002812D002235B420133994689444A4677
:102D20000B008946110001E08B4203D05A78013331
:102D3000002AF9D149465B1A0C938023DB0099469F
:102D40000A9A13400B934B461A4204D00C9B5345EE
:102D500001D953460C93022399460A9A13400A93C9
:102D60004B46134200D1B5E16346002B00D197E1F9
:102D70000B9B002B00D14CE1D1460B1B9A462B003C
:102D8000A1444D462200B9465F469B4609E04B46AA
:102D90003900541CB0475346185D002800D158E153
:102DA00022009542F3D15B46BB464F46A9461D0023
:102DB0004C460A9B002B00D072E1129B0B9304E659
:102DC00055460A9AA9004919490001330D18187887
:102DD000303D010030390929F4D9AA460A921D0074
:102DE000591C1EE60B9BA87804CB0235D143C917AA
:102DF0000A4092460B93691C13E60A9B10211A00A5
:102E00008A43100011310843814680201A00C00017
:102E100002401100034200D157E64B4608220693B8
:102E20005346059208320392002204930C9B0292AF
:102E3000019318AB2200009359463B003000FFF786
:102E400073F8434604000B93BFE5002800D174E7F4
:102E50005346013B60E7622800D1DFE1582800D1EA
:102E6000ECE10A9980230A00DB001A4010000A00F6
:102E7000194200D1BDE111239A430C920C9A802390
:102E800011009B0019408C461A4200D046E1802375
:102E900011005B00194089460B9904310A911A42CE
:102EA00000D08FE213005B0600D59EE113001B06E5
:102EB00000D426E30B9B00229B5ED9175A184A4088
:102EC00092B2D90F0B91002B00D177E2100010AA1B
:102ED000944642461F23129252466344AA461494D3
:102EE0004D460400B946B0461F00139201E0202D64
:102EF0000FD020000A2100F0A9FB01357E193031E6
:102F0000317020000A2100F0A1FB26000400092EE8
:102F1000EDD8129B46469846139B4F46A946554608
:102F20009A46149C0C9B0693434605935346049380
:102F30000A2303930B9B02934B46019318AB220089
:102F4000009359463B003000FEF7EEFF0A9B040059
:102F50000B933AE520230A9A1A430A926FE68023DC
:102F60000A9A1B011A430A9237E6782800D0AFE18B
:102F70000A9880230200DB001A4011000200184268
:102F800000D1D0E20D239A43100003330A9380232B
:102F900002009B001A409446184200D0ACE1802306
:102FA00002005B001A4091460B9A04320C921842C0
:102FB00000D04AE2430600D493E20B9B1B780893AF
:102FC000002B00D04BE110339843002900D146E19B
:102FD0000023994643460593534604930A9B069063
:102FE0000393002302934B46019318AB22000093F6
:102FF00059463B003000FEF797FF040065E680234A
:103000000A9A1B011A430A9220230A9A1A430A9227
:10301000E3E50B1B9A460C9B99462B005D469B46AD
:1030200022003B002900B04753460134185D0028B8
:10303000F6D14B460C935B46AB461D00B9E6C02368
:103040009B000A9AA8781A430A92E91C0DE5C0234E
:10305000F7E75D46BB464F46ABE6C046951E0010FF
:103060004346012B00D8D1E0631E4344B9461D00FE
:103070005F46A2468B4622004B4601343900202091
:10308000B047AC42F7D15D46BB464F46A1465446D9
:103090000B9B4A46187859463B004444B04714E617
:1030A0000C9BA146984500D887E64444E41A2B00BF
:1030B000B84625005F464C469946220043460134F7
:1030C00039002020B047AC42F7D12C00BB464D461A
:1030D000474672E60C98804500D81CE243461A1910
:1030E000131A99462B004D46B9465F469B460C91F4
:1030F00022004B46013439002020B047AC42F7D1C2
:1031000043460C9901330C930B785D469C46BB46B5
:103110004F466046002800D02AE64EE607220B9B69
:1031200007339343013294469C4462460B920CCB86
:10313000D90F0A91110019435FD0D917119110913D
:1031400051400E91119959400F910E980F99109A74
:10315000119B801A99410E900F9110AA002394465A
:1031600042469946129252461F336344B046AA46DD
:103170004E461494B9460E9C0F9D1F00139201E019
:10318000202E10D0200029000A22002300F09CFAF3
:10319000013630322B00BA550D0022000400002BFE
:1031A000EED1092AECD8129B4F46B14646469846C6
:1031B000139B0E940F9555469A46149C0C9B0693B0
:1031C00043460593534604930A2303930A9B0293B1
:1031D0004B46019318AB2200009359463B00300048
:1031E000FEF7A2FE0400FFF7F0FB0B9B1B781A0012
:1031F00067E610239A430C9240E600239946002884
:10320000DCD1002200230E920F93A6E70B9B220035
:10321000187859463B00B0474C4656E50A9880233B
:103220000200DB001A401100184200D15FE10200E9
:103230000D239A430B3B10000A93A8E60A988023BB
:103240000200DB001A4011000200184200D166E1C2
:103250000D2320209A43033310430A9397E66123FA
:10326000820600D54123DBB20A3B0B93434610A9EB
:103270001F228C46129353466244AA461494159713
:103280004C468046B14617000A9E089D139308E0FD
:103290003033DBB201343B55B5420ED3202C0CD079
:1032A00005003100280000F0D1F9CBB20929EFD98F
:1032B0000B9A94466344DBB2ECE7129B4046984677
:1032C000139B4E465546A1469A46149C159F81E68F
:1032D0006F2800D037E10A990C230A009A43802313
:1032E00010000A00DB001A4011000A9A1A4200D0AE
:1032F00021E108230A934AE60B9AFA3BFF3B073287
:103300009A4301339C46944463460B931368526876
:103310000893134312921A1E05D1002310329946C6
:103320009043002941D16122810600D54122D2B2C9
:103330000A3A0C924246002310A9139252468C4638
:10334000994614921F330A9A6344AA461594179615
:103350004C469046B946089E1F00129D16900AE002
:103360003032D2B2002301343A55AB4211D0202C76
:1033700011D006000D00424600233000290000F065
:10338000A3F9D2B2092AEBD90C9B9C466244D2B273
:10339000E8E7B045EBD9139B55469846149B4F463A
:1033A0009A46A1461698179E159C43460593534688
:1033B00004930A9B06900393002308E7002800D09B
:1033C000B0E584E50B9B1B68DA0F1100002B00D1E0
:1033D00094E0DA179818504010AA914642461F23ED
:1033E000129252464B44A046AA4614970400B14696
:1033F00065461F000B91139201E0202D0FD0200095
:103400000A2100F023F901357E1930313170200096
:103410000A2100F01BF926000400092EEDD8129BAA
:10342000444698460B9BAC461900139B55464E46A6
:103430009A46149F0C9B029106934346059353466C
:1034400004930A230393634677E50B9B1B68089359
:10345000002B03D110339843002937D16123820612
:1034600000D54123DBB20A3B0B93434610A98946A2
:103470001F22129353464A44AA46B1461494159704
:10348000644680461700089D0A9E139308E0303377
:10349000DBB201343B55B5420ED3202C0CD00500D5
:1034A0003100280000F0D2F8CBB20929EFD90B9AED
:1034B00094466344DBB2ECE7129B40469846139B6C
:1034C00055464E469A46A446159F149C434605937E
:1034D000534604930A9B069003930023029363468A
:1034E00082E5030613D50B9B1B88089368E5020051
:1034F0000C239A430A3B10000A9348E5002899D10F
:103500006AE70B9B1B68D9175A184A40D9E40B9BF2
:103510001B68089354E5030001330C93F9E520235D
:103520000A9A1A430A920C230A9A00219A430433F6
:1035300010000A932BE50A9B0C9308230A930D2392
:103540000C98984323E510230A9A9A430C92692811
:103550000AD10A9980230A00DB001A4010000A00F1
:10356000194200D18AE486E40A991C230A009A438E
:10357000802310000A00DB001A4011000A9A1A4248
:1035800002D10A230A9302E50A230A93D7E7C04629
:1035900000B585B003910121029000930348130008
:1035A0004A4202A9FFF7E8F905B000BD4121001029
:1035B00010B5094A0300146884B0002C08D0012219
:1035C00000910648524203A9A047012004B010BD53
:1035D00000F00CFD0020F9E7D00700203121001099
:1035E00001480421014B18476003002069070010BF
:1035F000014B5B681847000060030020124A936F7C
:103600009B0815D29066D166002905D0FFE7FFE739
:10361000FFE7516F106F704704B580210906C2178C
:103620005140002800D0C84304F09EFD002104BD95
:10363000F0B5146E556E576F166FFFF7E3FF146603
:10364000556657671667F0BD000000D0114A936FAA
:103650009B0813D210665166002905D0FFE7FFE7EB
:10366000FFE7516F106F704704B5002801D00020AC
:10367000C04304F079FD002104BDC046F0B5146ECE
:10368000556E576F166FFFF7E5FF1466556657675F
:103690001667F0BD000000D094464A4A926F920827
:1036A000624601D228E0C046F0B5464E346E756ED3
:1036B000776F366F00F020F89446424A14665566DC
:1036C000576716676246F0BD94463E4A926F92086D
:1036D000624601D254E0C046F0B53A4E346E756E83
:1036E000776F366F00F04CF89446364A146655668C
:1036F000576716676246F0BD002B24DB11D0002906
:103700003EDA00B5C943404200D1013100F038F83B
:10371000C943404200D10131DB43524200D1013361
:1037200000BD002AEBD1002801D1002905D00020DE
:10373000C90FC90701D1C043410800B504F00CFD11
:103740000022002300BD00B500290ADBDB43524202
:1037500000D1013300F014F8C943404200D10131D7
:1037600000BDC943404200D10131DB43524200D188
:10377000013300F005F8DB43524200D1013300BDB4
:10378000002923D1002B18D1002A0CD0BC460D4FA4
:1037900038667A6600210023FFE7FFE7FFE77A6FCC
:1037A000386F67467047002801D00748010000B510
:1037B00004F0D2FC0022002300BD02000B00002018
:1037C00000217047000000D0FFFFFFFF002B00D05A
:1037D000BFE0130C28D1002AE7D080B4114F39661E
:1037E0007A66FFE7FFE730B4040C7B6F396F1B0488
:1037F00023433B667A66FFE7FFE7FFE7C04684B2F4
:103800007B6F3D6F1B0423433B667A66FFE7FFE750
:10381000C04600232C042D0C7A6F386F00196941C3
:10382000B0BC7047000000D0F0B594460025140EDF
:1038300001D112020835140F01D112010435940F81
:1038400001D192000235D40F01D152000135D40BC1
:103850000134254F7C66254C3C660E0C93B2FFE785
:10386000FFE7FFE73C6F6643360C7703BE467343C2
:10387000DF0B5B04C01AB941130C7343DB18C91A80
:10388000CE086643360CB64493B273431F0F1B0138
:10389000C01AB941130C73431F0B1B05C01AB94161
:1038A000860D8F023E436643360C092D24DB520AF7
:1038B0007243801A7703460A6643360C16235B1B55
:1038C000DE40DF40BF1964466643821B7046043504
:1038D00006330100D940A840C01900D30131A242EB
:1038E00006D20023F0BD0000000000D0FFFFFFFF64
:1038F000121B0130F3D3F1E709277F1BFE4064461A
:10390000A2B27243801A00D20139220C7243130C06
:103910001204821A99410B007046043513370100D6
:10392000F940A840801900D30131002B02D1A242F6
:103930000AD2F0BD013000D30131121BFAD2013B93
:10394000F8D1A24200D2F0BD013000D30131121BE8
:10395000F7E7F0B51C0C00D080E00CB400251C0A81
:1039600004D11B02160E3343120208351C0B04D17E
:103970001B01160F3343120104359C0B04D19B002D
:10398000960F334392000235DC0B02D192185B4153
:1039900001351C00971864410134464F7C66464C43
:1039A0003C660E0CFFE7FFE7FFE7C0463C6F66434F
:1039B000360C7703BE4697B27743C01B00D201395D
:1039C000C01B00D201399FB27743C91BC91B170C1A
:1039D00077437E04FF0B801BB941CE086643360C4B
:1039E0000C2D33DBB644120B1F053A431B0B97B269
:1039F0007743C01B00D201399FB27743C91B170C14
:103A000077433E043F0C801BB941860D8F023E4335
:103A1000664329277F1BFE400C3D7746AF40BF1908
:103A200030BCA2B2ABB272437343801A9941220CEC
:103A30007243130C1204801A994102000B000137E3
:103A4000001BA941F9D2781E0021F0BD0C277F1B75
:103A5000FE4077467F0BAF40FF19E0E700245D1C76
:103A600007D0144F7D663966FFE7FFE7FFE7FFE702
:103A70003C6F95B29EB265436643401BB141150C45
:103A80001E0C6543664336042F0C3E432D04401B39
:103A9000B141994204D202000B0020000021F0BD88
:103AA00001D19042F7D3801A994101349942F2D35F
:103AB000F6E70000000000D0FFFFFFFF4840414054
:103AC000484018B4134B5B68019308BD18B4114B00
:103AD0001B68019308BD94460F4A926F920805D265
:103AE000624618B40B4BDB68019308BD0A4AF0B577
:103AF000146E556E576F166F6246FFF7F2FF064A57
:103B00001466556657671667F0BD18B4014B9B687D
:103B1000019308BDF8040020000000D0FFB550401C
:103B20004240504059404B40594000E0FFB5154FCE
:103B30004C00640D03D0BC4204D10C0314D8002007
:103B4000090D09055C00640D03D0BC4204D11C03BF
:103B50000AD800221B0D1B0501264B4009D44B40FF
:103B600003D58B4200D18242FFBD9942FCD19042E5
:103B7000FFBD0B43DB1803431343F5D0C94349187A
:103B8000FFBD0000FF07000000B5FFF7CFFF804139
:103B900000BDC04600B5FFF7C1FF01D9002000BD40
:103BA000012000BD00B5FFF7B9FF804100BD012035
:103BB00040054A00121804D85A00121801D80020F3
:103BC0007047012070470020704700000021002846
:103BD00005D17047C1174840401AFAD0C90713B53C
:103BE000064B1B6898470CBC441CA2401005120BE6
:103BF0000349091B09051943114310BDAC0A0020F4
:103C00001F04000010B54C00620D8023D218DB00A9
:103C1000D21A5B057E2A10DD9E3A13DACC1709030F
:103C2000490819435242D140640001341532202A18
:103C300005DAD0400843604310BD002010BD08469F
:103C4000604310BDC80FC018013810BD18B4024B36
:103C50005B6A019308BD0000F804002010B501481C
:103C6000FEF7F4F820850010132370B51D78012DA0
:103C700015D010DD1B48FCF76FFD1B4C01008022A6
:103C8000200000F0E5F8022D06D01848FCF75CFD96
:103C9000174B186070BD144C164BA364F5E7164B18
:103CA000114C23606360A360E36023616361A361DF
:103CB000E36123626362A362E36223636363A363DA
:103CC000E36323646364A364E36423656365A365BA
:103CD000E36523666366A366E36623676367A3679A
:103CE000E367D9E753440000F80400204C33000098
:103CF000AC0A0020FD3C00105D3C001007B560469A
:103D000001880A0A0230DF2AFAD1C9B2820804D334
:103D1000028840880004104300E00068014A5050C7
:103D2000039007BDF80400204840414048400E4B36
:103D30005B6818470C4B1B6818470C4A936F9B082D
:103D400002D2094BDB681847F0B5146E556E576FF9
:103D5000166FFFF7F6FF054A146655665767166734
:103D6000F0BD014B9B681847B00A0020000000D04E
:103D7000491A002808D1084670470000C10FC9073A
:103D800000D54042002817D0F44603B40B4B1B6803
:103D9000984706BC81409E384042803107D20B06CE
:103DA00007D04900490AC005104308436047013065
:103DB000F8E7490A8902F5E770470000AC0A0020DD
:103DC000014BDB6F18470000B00A002010B5014816
:103DD000FEF73CF81C830010132310B510481C7824
:103DE000FCF7BAFC0100012C0AD003DD80220D484B
:103DF00000F02EF80C48FCF7A7FC0C4B186010BD27
:103E0000084C5422200000F023F822000849803298
:103E10002368002B00D1216004349442F8D1E9E7F3
:103E200053460000B00A00204C330000AC0A0020CA
:103E3000CD3D001001480421014B184770030020BC
:103E400069070010014B1B68184700007003002031
:103E5000014B5B681847000070030020F0B5C646B0
:103E600000B5437D07000D001600002B38D0002A56
:103E70002EDD00216A1E90466A5C037D4C1C0020EA
:103E80000A2A0CD0A64216D043461B5D21000D3BEA
:103E90005A4253416A5CDBB24C1C0A2AF2D1002B15
:103EA000F0D1814217DC022110483B689847A642B6
:103EB00007D02000E8E7864203DD311A3B68281866
:103EC0009847AD19013D2B780D3B5A4253413B7544
:103ED00080BCB846F0BD091A3B6828189847E2E74D
:103EE0000368110028009847F2E7C0469C8500103F
:103EF000F0B5C6460B6806000C0000B5802B06D056
:103F00005A1C2260E418267180BCB846F0BD0F4BE5
:103F10001D68002D16D00B1D98460D4F02E02D692F
:103F2000002D0FD02B68002BF9D03B68002B01D05F
:103F3000AB42F4D1280041462268FFF78FFF2D697C
:103F4000002DEFD101220023DBE7C046C40700208B
:103F5000C8070020F0B5CE46474680B583B06B4613
:103F60000600DD1D2870FDF7C7FA00231A4A121853
:103F70004B41802109068B4202D30122174B52424A
:103F800017490800884604F0F7F8164B81461C686C
:103F9000002C14D0144F02E02469002C0FD02368A9
:103FA000002BF9D03B68002B01D0A342F4D12000B4
:103FB00001222900FFF752FF2469002CEFD14B4664
:103FC000002B05D1300003B0C0BCB946B046F0BDEF
:103FD000404604F0B9F8F5E740420F00FFFFFF7FCD
:103FE000A8030020C4070020C8070020F0B5DE4663
:103FF00057464E464546E0B585B0070004F06AF8DE
:104000000600FDF779FA00232B4A12184B41802154
:1040100009068B4202D30122284B5242284908004C
:104020008B4604F0A9F8274B01901C689A46002C97
:104030003BD0254B984602ABDD1D0A23994602E092
:104040002469002C17D02368002BF9D043461B6845
:10405000002B01D0A342F3D1200032003900FFF73A
:10406000FDFE4B462000012229002B70FFF7F6FED3
:104070002469002CE7D1019B002B18D153461C6802
:10408000002C06D06368002B0BD098472469002CC5
:10409000F8D1300005B0F0BCBB46B246A946A046F8
:1040A000F0BD2469002CEDD1F3E70028F1D058468B
:1040B00004F04AF8E2E7C04640420F00FFFFFF7FEE
:1040C000A8030020C4070020C80700200A4A13687C
:1040D000002B05D10CE01A001B691032002B07D011
:1040E0009842F8D1002902D1036913600161704739
:1040F0000029FCD01060FAE7C4070020F0B5CE46D6
:10410000474680B5A3B004000D00FDF7F5F9002384
:10411000294A12184B41802109068B4202D3012201
:10412000264B5242264F380004F026F800230600A2
:10413000019322002B00234801A9FFF729FA019BD4
:104140008046002B14D1204B1C68002C06D06368DD
:10415000002B0BD098472469002CF8D1002E25D1D4
:10416000404623B0C0BCB946B046F0BD2469ECE778
:10417000154B1D689946002D1CD0144C02E02D698A
:10418000002D0FD02B68002BF9D02368002B01D015
:10419000AB42F4D12800019A02A9FFF75FFE2D6916
:1041A000002DEFD14B4601951C68CEE7380003F097
:1041B000CBFFD5E70195D1E740420F00FFFFFF7F1E
:1041C000A8030020F13E0010C4070020C80700200B
:1041D0000FB400B583B004A901C90191FFF78EFFA8
:1041E00003B008BC04B0184710B500F0CBF80120AC
:1041F00010BDC046F0B5002915DD0E4B0D271A681D
:104200000D4B0E4CD3185D426B41451820215B00CD
:104210001E5F0478A64207D093691942FCD1013091
:104220001460A842F5D1F0BD93691942FCD1176022
:10423000F2E7C046D40B00200080FCBFD00B00206A
:10424000214B70B504000D1E1E682CDD00201021CE
:104250001E4B013C1A689369194215D101309369CC
:104260001942FCD1136823548542F4D1002E09D0A1
:10427000502338219363536B3432194080235B0100
:104280001343196028000DE0002E09D05023382177
:104290009363536B3432194080235B011A431160DE
:1042A00000280ED070BD002E0BD050223821074BB5
:1042B0001B689A635A6B34331140802252011343B6
:1042C000196003204042EDE748070020D40B00208E
:1042D000064B10B51B68002B06D00021044A12685B
:1042E0009163044A1068984710BDC04648070020F3
:1042F000D40B00204C0700201D4BF0B51A68C646B1
:1043000098461C4B0E00D31859424B411A4F143398
:104310001C00050000B53B68002807D0002B11D019
:10432000164B3D601E6080BCB846F0BD002BF7D038
:10433000906300212000FCF7BBFB20001049FCF734
:1043400007FCEDE720000E49FCF7D8FB0121200017
:10435000FCF7AEFB4346502238211B689A635A6B28
:10436000343311408022520113431960D8E7C0460C
:10437000D40B00200080FCBF480700204C07002021
:10438000D14200100C4B10B51B780C4B0C4C1B7819
:104390000C4B022100202360FCF772FB022101205C
:1043A000FCF76EFBE12120684902FDF70DFC0121BD
:1043B0000548FFF78BFE10BD3886001034860010CC
:1043C000D40B00200040034080030020F8B5DE46F7
:1043D000454657464E46E0B5040001F0EBFB524A15
:1043E0001568002D49D0514B1E6826423BD1631EF3
:1043F0000A3338D820000723083003422DD14C4B14
:1044000099461B68984683422DD34A4B9A461B68AF
:10441000544604E01A68002A04D01C0013005968AE
:104420008142F7D3AB421ED01F001A6808372260C2
:104430000A1A102A44D842464846521A02603E4898
:104440000468A24200D2026000221A603B4A0E4376
:104450005E6013680133136006E002009A431300A4
:10446000083383422AD8002703F026F83800F0BC2E
:10447000BB46B246A946A046F8BD0720304D2B00EA
:104480002900284202D0EB1D834319000020294E49
:10449000706031602B4EB44607266544B5438026D4
:1044A0001560254AEB1A1360214A68602860136082
:1044B0004B601E4B36060D601E6096E718009EE7A7
:1044C00019184A608C465246586014001268944588
:1044D000FBD86168A3468A466146D3444968DC45F7
:1044E00016D08A46E244524508D061460A6001006F
:1044F0006445A0D0624622609DE7A446AA420ED041
:104500005068126841186046416059680260EFE7E0
:104510005144601861608242EFD059688BE7614670
:104520000A605968E4E7C04610080020240C022005
:10453000540C0220940C0220640C0220700C022007
:10454000D80B0020F8FF010070B5002809D01E4AE2
:1045500008384368126804001A4202D00168002932
:1045600000D070BD93434360050001F023FB174A60
:10457000616813685B181360154B1A001B689C4236
:10458000FBD850681618B4420DD06018834210D082
:104590002360AA4200D015600E4A136801331360ED
:1045A00002F08AFFDDE70918501851608342F3D109
:1045B000150009480068834203D0586841181868FC
:1045C00069602860E5E7C046240C0220540C0220F4
:1045D000940C0220740C0220100800207047C04682
:1045E0000BA10CC9126892009B581868203080F308
:1045F0000988022080F31488BFF36F8F3FBCAE465A
:1046000008BC04BC62B61847C046C046C046C04697
:10461000000000D000080020D0231B061A6DD2072E
:1046200004D501219A6D1A6D1142FBD1D023FF22CE
:104630001B061A658022024B52051A607047C0465D
:1046400004ED00E000000000000000000000000099
:10465000EFF309811AA00CC8106880001B181868B5
:1046600020390160F0C144464D4656465F46F0C1D0
:10467000146E556E566F176F3039F0C1106808B55B
:1046800072B601F01DFB62B60CBC116808681030F0
:10469000F0C8A046A946B246BB4680F309880D2261
:1046A00012073038F0C81466556656671767F0C8A9
:1046B0001847C046C046C046C046C046C046C04671
:1046C000000000D00008002010B5EFF3108472B68F
:1046D00002F0EAF902F058FD002803D08022044BD2
:1046E00052051A6002F066FA84F3108810BDC046C5
:1046F00004ED00E010B5FDF7C1FBC04610B5802405
:10470000031F64041C60043B19600349043B1960E7
:10471000143B40381A6010BDF54600108022044B4F
:1047200052051A60BFF34F8FBFF36F8F7047C046BB
:1047300004ED00E0D0231B061B6808499B005A5873
:10474000002A08D00020585005495B58BFF35F8FFE
:10475000106083F3108862B67047C0469C0A002040
:10476000E00B0220D02300221B065A657047C0468A
:10477000002310B5084A094C052023601360FCF79C
:1047800079F9FA218900FEF761FF054B01381860BD
:104790000723236010BDC04618E000E010E000E0F1
:1047A00014E000E070B5244B1A78D0231B061B6878
:1047B0009A4232D0FF230220204A1B041168404253
:1047C0000B4313601E49FDF7DBF905201D494042EC
:1047D000FDF7D6F9D023FF221B061A651A6DD20702
:1047E00004D501219A6D1A6D1142FBD1D0252D06F9
:1047F0002C68FF210F342000FCF78CFA20001249AE
:10480000FCF77CF901212000FCF752F9FFF7E8FEE4
:10481000286801F055FAFDF731FBFFF7A9FFFF23E8
:104820000120064A1B06116840420B4313600749EA
:10483000FDF7A6F9BEE7C0469803002020ED00E092
:1048400051460010DD45001019460010C946001001
:1048500010B5EFF3108372B6FFF7A4FF10B50E206A
:10486000FBF766FF0F20FBF763FF0022034B0448B2
:104870001A7003F0E7FBFFF795FFC046980300208E
:104880005148001010B50A4B1B78FF2B0CD0EFF3EA
:104890000580002805D0D0231B061B684000C018E7
:1048A00010BD01F0B7FFFBE7D0231B061868F7E740
:1048B0009803002000B50A001B490368097883B0FB
:1048C000FF2928D019498C46022163449B10FF31EF
:1048D0009940090A40BF0368BFF35F8F002018604A
:1048E00082F31088EFF30583DBB2002B05D1104B68
:1048F000186800F04FF903B000BD0D4B019001AAFC
:10490000186800F091F9019B002BF4D08022094B2C
:1049100052051A60EFE740BF0368BFF35F8F0021C5
:10492000196082F31088E6E79803002000FFFF2F4C
:10493000500C022004ED00E0F0B51D00314B0700E3
:104940001B780E00140083B0FF2B4ED0FCF7D4FD73
:1049500022002B00121A8B4101212B48494280185A
:104960005941002921DC1CD03B68BFF35F8F002236
:104970001A6086F31088254B5A6A95420AD980221C
:10498000234B52051A60BFF34F8FBFF36F8F002088
:1049900003B0F0BD9B6A0120A342F9D29542F7D142
:1049A000EDE7FA239B009842DED3FA22002392001F
:1049B000FEF772FE031ED7D0D021090609683A68B7
:1049C000144889000A5014480E5014498C4602219C
:1049D00062449210FF319140114A090A1068009315
:1049E0000122002300F07AF8C5E70368BFF35F8F68
:1049F00000221A6081F3108820002900FCF7ACFC2B
:104A0000C6E7C0469803002018FCFFFF00400540A1
:104A100004ED00E09C0A0020E00B022000FFFF2FC5
:104A2000500C022010B500F04DF8014B186010BD7D
:104A3000500C0220F8B5DE4657464E464546E0B5D6
:104A400005000F00060001F0B5F829682C6939430C
:104A50000C362960A6422CD0002398468023DB0424
:104A60009B4680235B049A4680239B0499460FE073
:104A70006746002F0AD057463A4202D042461A43B0
:104A800090464B46194302F05BFD2968A6420ED0C2
:104A900020000F000268646813021B0A1F40BC4616
:104AA0005F463A42E4D06345E5D0A642F0D14346A2
:104AB0009943296002F000FDF0BCBB46B246A9460E
:104AC000A046F8BD10B51C20FFF780FC041E03D0E3
:104AD000002308C000F0B4F8200010BDF0B5C646B1
:104AE000060000B50D0090461F0001F063F8346821
:104AF000002F13D125420BD04346002B0BD02300AF
:104B0000AB43336002F0D8FC200080BCB846F0BD57
:104B1000069B002B21D102F0CFFCF5E72B002340B0
:104B20009D42E9D0069B002BF5D0434680215A1EBA
:104B30009341C9041B061943069A2943301D01F00D
:104B4000CFFA02F0B9FC00281CD002F021FD0400CD
:104B5000830107D52402240AD6E741464B1E99411A
:104B60000906E9E701F0A0FF3468002F0DD12C42BF
:104B700005D04346002B02D02300AB43336002F044
:104B800019F8E7E701F076FFDFE723002B409D42AD
:104B9000F5D1EEE7F8B5DE4657464E464546E0B558
:104BA00005000F00060001F005F829682C6939435B
:104BB0000C362960A6422CD0002398468023DB04C3
:104BC0009B4680235B049A4680239B0499460FE012
:104BD0006746002F0AD057463A4202D042461A434F
:104BE00090464B46194302F0ABFC2968A6420ED012
:104BF00020000F000268646813021B0A1F40BC46B5
:104C00005F463A42E4D06345E5D0A642F0D1434640
:104C10009943296002F050FC2868F0BCBB46B246BC
:104C2000A946A046F8BDC04610B5044C13000A00C2
:104C30000100200003F0A8F910BDC046354A00105D
:104C40000300083301224360C36003610023524222
:104C5000826003607047C046002303617047C0460E
:104C600043689A684B608A60516099600368086184
:104C7000013303607047C046030030B50D68083348
:104C80006A1C0DD01C005B681A68AA42FAD94B60F6
:104C9000996003688C60013361600861036030BD16
:104CA00004696368F3E7C0460369416882688A6003
:104CB00051605968814206D0002202611A68013AA7
:104CC0001A60186870475A60F6E7C046F0B5DE46CD
:104CD0004E4657464546E0B585B0060001F0E4FE75
:104CE0004523F45C64B2002C21DD213B994621333D
:104CF0009A46B14409E0AA6BEB6B03969A4245D3FE
:104D0000013CE3B264B2002B11D0B56C002DF2D19E
:104D1000736A002B0BD0484601F086FA0028EFD0CA
:104D200001F06EFD013CE3B264B2002BEDD14523EE
:104D3000FF22F25401F03EFF01F0B6FE442335009D
:104D4000F45C103564B2002C05DC13E0013CE2B2E7
:104D500064B2002A0ED03369002B0BD0280001F07A
:104D600063FA0028F2D0013C01F04AFDE2B264B2DD
:104D7000002AF0D14423FF22F25401F01BFF05B0BA
:104D8000F0BCBB46B246A946A046F0BD53462A6CCD
:104D9000EF5CAB6B7FB29846002A0FD101239C4693
:104DA0002B68E0449B46002B30D04346AB637B1C12
:104DB00016D0534601377FB2EF54A1E703A96868C4
:104DC000FFF746F841466B682A6C01319B18AA68C8
:104DD0006B60934212D32B68A9636B607B1CE8D194
:104DE0006B6A002B00D18BE72800243001F01CFAFD
:104DF000002800D184E701F003FD93E7A9637B1C41
:104E0000D7D16B6A002B00D17AE7EDE7A86801F0F3
:104E100005FE5B46AB6043460190AB637B1C0AD04A
:104E2000534601377FB2EF54019B002B00D167E757
:104E300001F0E6FC76E76B6A002BF5D02800243001
:104E400001F0F2F90028EFD06AE7C046F0B5C64697
:104E500000B5846C82B0A26BE36B002601909A428D
:104E600004D3300002B080BCB846F0BD4523226CAC
:104E7000E55CA76B6DB2002A16D0606801A9FEF749
:104E8000E7FF6368226C9B18A2686360934201D3BA
:104E90002368636000260137A7636B1C0FD045238E
:104EA00001356DB2E554DCE723689846002BF1D15B
:104EB000A06801F0B3FD43460600A360EBE7636A18
:104EC000002BCED02000243001F0AEF90028C8D04D
:104ED0000126C6E7F8B506000800704354300D00FF
:104EE0001700FFF773FA041E25D00300002D24D10C
:104EF00023602564E66301F0D7FD226CE36B216833
:104F00005343C8189B1A61600025C9184422FF2327
:104F1000A0602000E160A563A3540132A3541030C7
:104F2000FFF78EFE20002430FFF78AFE01F042FEDC
:104F30005023E754A5642000F8BD5433D8E7C04699
:104F4000F0B5C646040000B584B01F000192884643
:104F500001F0AAFDA26BE36B9A4259D30023022F02
:104F600000D17CE0019A44250026002A33D0002B92
:104F700000D170E001F01EFE00F01CFE01F094FD77
:104F8000635D5BB2013300D166554523E25C52B2EA
:104F9000013200D1E65401F00DFE01A902A801F092
:104FA000EFFA002800D076E001F07EFDA26BE36B03
:104FB0009A4217D001F0FEFD2000FFF787FE02F0B5
:104FC0007BFA01F071FDA36BE26B9A4220D8019A43
:104FD0000123002ACBD101F0EDFD002004B080BCFC
:104FE000B846F0BD01F0E6FD20000199103001F057
:104FF00007F82000FFF76AFE02F05EFA0028E0D111
:1050000001F038FD01F050FDA26BE36B9A42DED255
:10501000226CA66BA56B002A26D0002F41D14146F9
:105020006068FEF715FF6368226C01359B18A26863
:105030006360934252D2A36CA563002B22D1636AB2
:10504000002B24D02000243001F0EEF800281ED0E0
:1050500001F010FD1BE002A801F086FA8AE7226C3D
:10506000A66BA56B002A1CD1236800209846002B54
:105070003BD0A36C0135A563002B29D0022F01D1B1
:10508000002E04D12000FFF7E1FE0028E0D101F05E
:1050900091FD0120A2E72000FFF718FE02F00CFAB4
:1050A0009BE74146E068FEF7D3FE226CE36851427D
:1050B0009B1A2268E360934202D2A3685B18E36004
:1050C000A36C022F17D00135A563002BDAD1B6E708
:1050D000636A002BB6D10028BAD1D8E72368A5634C
:1050E0006360A36C002BCDD1A9E7A06801F096FC0A
:1050F0004346A360BDE7002D03D0A563002BBFD1BD
:105100009DE70122A263002BBAD198E7F8B5574674
:105110004546DE464E460400E0B590460F001D00B1
:10512000EFF3108972B601F0BFFCA26BE36B9A42F9
:1051300033D30026022D0AD001F03CFD89F31088FC
:105140003000F0BCBB46B246A946A046F8BD452398
:10515000E65CA36B226C9A46A36B76B29B46002A50
:1051600025D03900E068FEF773FE226CE3685142F7
:105170009B1A2268E360934202D2A3685B18E36043
:105180005B46022D4AD00133A363731C17D045231D
:10519000013676B2E6540126CEE74523E65CA36BE2
:1051A000226C9A46A36B76B29B46002A1CD12768D4
:1051B000002F37D05B460133A363731CE7D1A36C88
:1051C000002B21D0022D02D15346002BE3D1200029
:1051D000FFF73CFE0028DED04346002BDBD0012346
:1051E000424601261360A7E7002DBAD13900606856
:1051F000FEF72EFE6368226C9B18A26863609342E0
:10520000D8D323686360D5E7636A002BC3D020003E
:10521000243001F009F80028DED1BCE7002BB3D11F
:105220000133B1E7A06801F0F9FBA760C2E7C0460F
:10523000F0B54746CE46040080B585B08846019259
:1052400001F032FCA76B002F5FD1019B002B3BD0FC
:1052500002A801F089F9002344269946452501F06A
:10526000A9FC00F0A7FC01F01FFCA35D5BB20133B9
:1052700001D14B46A355635D5BB2013301D14B466F
:10528000635501F097FC01A902A801F079F9002803
:1052900022D101F009FCA36B002B2AD101F08AFC7A
:1052A00020000199243000F0ABFE2000FFF70EFD36
:1052B00002F002F900283DD001F0F6FBA76B002FA9
:1052C00023D1019B002BCAD101F074FC002005B052
:1052D000C0BCB946B046F0BD2000FFF7F7FC02F0B5
:1052E000EBF801F0E1FBA36B002BEDD001F062FCC9
:1052F000E2E701F05FFC2000FFF7E8FC02F0DCF8D9
:1053000001F0D2FBA76B002FDBD0226C002A08D063
:10531000E168A3688918E16099420ED24046FEF721
:1053200097FD013FA7632369002B09D101F042FCDF
:105330000120CCE701F09EFBBEE72168E160EDE7CC
:105340002000103000F070FF0028EFD001F092FB39
:10535000ECE7C046164B1A68002A15D09A68002A56
:1053600018D01A69002A17D09A69002A16D01A6A2A
:10537000002A15D09A6A002A14D01A6B002A13D07A
:105380009A6B002A12D070470022D20099509B18C5
:105390005860F8E70122F8E70222F6E70322F4E773
:1053A0000422F2E70522F0E70622EEE70732ECE7F7
:1053B000F805002070B5040016000D0001F074FB24
:1053C0004422A35C5BB2013301D10023A3544522E4
:1053D000A35C5BB2013301D10023A35401F0EAFBCB
:1053E000A36B002B03D02000FFF770FC70BD2000E2
:1053F00032002900243000F097FEF4E7F8B50300EE
:1054000005000F001600263317D82530FEF7DEFF03
:10541000041E12D024220021FEF714FD23000135C2
:105420002433A361A560002F00D10137721E5342BF
:105430005A41E76022772000F8BD0024FBE7C04610
:10544000F0B54746CE4680B589B003931600037F7A
:10545000826888460500511EDB0711D5371DB94209
:1054600012D2002303932B686968013B5B1A9C18D6
:10547000944200D31C000596002C40D1002663E026
:1054800037008E4200D90F00039B002BEBD006A8FB
:1054900000F074FF18E00021002002F0A9FA01F0EA
:1054A000B9F9686101F086FB039B0021009300229B
:1054B0000023002002F090F8002303A96B6106A8E6
:1054C00001F05EF800280ED101F0EEFA2C68AB680E
:1054D0006A681C19013CA41AA34200D8E41AA74226
:1054E000D9D801F067FB002C08D12B686968AA683D
:1054F000013B5B1A9C189442BDD3BBE705962B7FFA
:10550000DB0727D4A64253D8AF6805966C683F1BCB
:10551000B74237D8A8693A0041460019FEF798FC0F
:10552000B74238D3AA68A419944200D3A41A6C6075
:10553000002EA3D06B6829685B1A9918914200D39A
:105540001900EB688B4235D9300009B0C0BCB946B0
:10555000B046F0BDBC4200D290E76C68AF683F1B1C
:10556000B946042F37D8A8694A46001905A9FEF79D
:105570006FFC032F32D9AF680434BC4200D3E41B64
:105580006C60C3E73700A8693A0041460019FEF78E
:105590005FFCB742C6D23900F21BA8694144FEF74E
:1055A00057FCAA68A419A24200D8A41A6C60C1E7EB
:1055B0002600A9E700F0FEFA2B69002B08D0002492
:1055C0002869002300220021009402F0A1F82C6138
:1055D00001F072FFB8E704239946C4E74B46042262
:1055E00005A9A869D21A4944FEF732FCC3E7C046B0
:1055F000F0B54E4657464546DE4699460123E0B58E
:1056000087B002911600027F050013409F004B46B1
:10561000002B12D16C68AB682A681C19A41AA3422B
:1056200000D8E41ABC4215D80026300007B0F0BC00
:10563000BB46B246A946A046F0BD01F035FA6C68FB
:10564000AB682A681C19A41AA3422FD9BC4230D9CE
:1056500001F0B0FA002F43D1A6423ED8002EE3D08D
:105660002C68AA68131B9846B34200D9B046A969B2
:10567000424602980919FEF7EBFB46455BD8AB683A
:1056800034199C4200D3E41A2C6000F093FA6B6941
:10569000002B08D000246869002300220021009418
:1056A00002F036F86C6101F007FFBEE7E41ABC4275
:1056B000CED80021002002F09BF901F0ABF8286160
:1056C00001F078FA4B4600220093002100230020CD
:1056D00001F082FF00232B619CE7261EA4D0BFE7C8
:1056E0002B68A2461F00042C01D904239A462B687C
:1056F00098464246AB689B469B1A9946534500D94B
:10570000D146AB694A46190005A841440393FEF708
:105710009FFBD14517D3434653449B4508D92B6083
:10572000059B9E4202D31E00043C95E72F607BE759
:105730005A469B1AF3E743460298A9694044F21A75
:10574000FEF786FB9BE753464A4605A80399484463
:105750009A1AFEF77DFBDEE710B5FEF7DFFF034C7C
:105760002368022BFCD9FEF7D9FFF9E71C080020BB
:10577000F0B5C646304B00B5040088461E68EFF30E
:10578000108172B6D0273F063B682C4D9B00EA582B
:1057900081F310887D230021D154EFF3108272B67B
:1057A0003B689B00E85882F310880830FFF77CFACA
:1057B000631C30D03419EFF3108172B6D022120678
:1057C00013689B00EB5881F310889C60A64214D8A4
:1057D0001B4B1868EFF3108672B613689B00E958EC
:1057E00086F310880831FFF747FA164B1A68A24271
:1057F00000D91C6080BCB846F0BD134B1868EFF3AD
:10580000108472B613689B00E95884F3108808313D
:10581000FFF732FAEEE74346002BCBD0EFF31082CE
:1058200072B63B689B00E95882F31088074808313C
:10583000FFF716FADEE7C046C40C0220000800207D
:105840000C080020680C0220140800209C0C022088
:10585000D023F0B55746DE4645464E461B061B682C
:105860005A4A9B00E0B5D35883B09846584B594FDD
:105870009A46594B01929B4659E042461365D02304
:10588000534D1B061A682B78534C013BDBB22B702F
:10589000002B07D10121A35C8B43A354BFF35F8F7F
:1058A0004E4B1960D0231B061A686B78013BDBB2A4
:1058B0006B70002B08D10221A35C8B43A354BFF370
:1058C0005F8F0122464B1A60FEF734FFEFF310831F
:1058D00072B6D0231B061A68414B196800294ED0B6
:1058E000BFF35F8F012302216B70A35C0B43A354B2
:1058F000D0231B061A68394B1968002938D0BFF32A
:105900005F8F012301212B70A35C0B43A354EFF3A2
:10591000108172B6D0221206136801989B00C358FA
:1059200081F310881E654B463B60002E35D0434600
:105930009B6B02332AD143461E6D3B689946002378
:105940003B60002E99D1D02355461B061A686B7810
:105950005C46013BDBB26B70002BB5D10221A35C2E
:105960008B43A354BFF35F8F01221D4B1A60ABE73B
:10597000A15CC90721D419680029C0D1FBE7A15C4B
:1059800089071ED419680029AAD1FBE703B0F0BC2F
:10599000BB46B246A946A046F0BD2B781268013B33
:1059A000DBB22B70002BC2D10121A35C8B43A3542B
:1059B000BFF35F8F094B1960B9E72B7801332B7068
:1059C000A5E76B7801336B7092E7C04600080020B2
:1059D000DC0B0220F00B0220D80B0220380100D093
:1059E0003C0100D070B5EFF3108472B6D023334A77
:1059F0001B0619681368002B43D0314BBFF35F8F30
:105A0000012202252F4842705A5C2A435A54D0255D
:105A10002D4A2D0616682968002E3AD0BFF35F8FF5
:105A200001255A5C2A435A54284A116801311160F1
:105A3000D02109060D68002101700120595D8143C4
:105A40005955BFF35F8F204B18601368012B02D0AC
:105A500084F3108870BDEFF3108172B6D0231B065B
:105A60001A681B4B9200D35881F310881B6D002BD2
:105A7000EED1EFF30583DBB2002BE9D1FFF7E8FEAF
:105A8000E6E70F4B585C80070AD410680028B5D1B0
:105A9000FBE75E5CF60708D41568002DBED1FBE776
:105AA0000848427801324270B1E7084A007811682C
:105AB000013111600028C8D12D68BEE73C0100D03B
:105AC000D80B0220DC0B0220380100D0F00B0220A2
:105AD000000800204A425141F8B5344C036B22685B
