:020000041000EA
:1000000000B5324B212058609868022188439860DF
:10001000D860186158612E4B002199600221596106
:100020000121F02299502B49196001219960352056
:1000300000F044F80222904214D00621196600F024
:1000400034F8196E01211966002018661A6600F04E
:100050002CF8196E196E196E052000F02FF8012189
:100060000842F9D1002199601B49196000215960AB
:100070001A491B48016001219960EB211966A021F2
:10008000196600F012F800219960164914480160C1
:100090000121996001BC002800D000471248134993
:1000A000086003C880F30888084703B5996A0420EC
:1000B0000142FBD001200142F8D103BD02B5186610
:1000C0001866FFF7F2FF186E186E02BD00000240BE
:1000D000000000180000070000035F00212200005C
:1000E000F4000018222000A00001001008ED00E03C
:1000F00000000000000000000000000074B24E7A12
:1001000000200420F7010010C3010010C5010010F9
:10011000C1010010C1010010C1010010C101001097
:10012000C1010010C1010010C1010010C701001081
:10013000C1010010C1010010C9010010CB01001065
:10014000CD010010CD010010CD010010CD01001037
:10015000CD010010CD010010CD010010CD01001027
:10016000CD010010CD010010CD010010CD01001017
:10017000CD010010CD010010CD010010CD01001007
:10018000CD010010CD010010CD010010CD010010F7
:10019000CD010010CD010010CD010010CD010010E7
:1001A000CD010010CD010010CD010010CD010010D7
:1001B000CD010010CD010010CD010010CD010010C7
:1001C00000BE00BE00BE00BE00BE00BEEFF3058054
:1001D000103800BEF2EB8871583E0510803E0510C5
:1001E0003402001090A31AE700201F49086006C8D7
:1001F00081F3088810471D48006800282FD10DA4FE
:100200000ECC002902D000F012F8F9E71849194A7B
:10021000002000E001C19142FCD1174988471749ED
:1002200088471749884700BEFDE701C901C29A42C5
:10023000FBD37047803E0510C0000020480F00200F
:10024000084D05100000042000000420084D051092
:10025000001004200010042000000000704709482E
:100260000AF094FD0047000008ED00E0000000D017
:10027000680F00204CDD02201D190110B50600108A
:10028000111A01105756000006005250ABB36053CC
:10029000A83B051006005250861C0302B83B05100F
:1002A000060052505422A29DC43B05100500525036
:1002B000DE65F468084D0510F8B5C04606480749E4
:1002C000091A8B10C90FC91810B5491003D0044B77
:1002D000002B00D0984710BD480F0020480F002089
:1002E00000000000054B10B5002B03D00449054861
:1002F00000E000BFFFF7E2FF10BDC04600000000B5
:10030000F8C70020B0A20110002370B582B001939D
:1003100019F074FE02221D4B04241A601C4B1D4E62
:100320001A688023DB015340E022D20113401A4AAD
:100330001A4D1360FA20800019F01EF88021134B2B
:10034000134A1C60490013680B42FCD0506880B20D
:1003500013F00EFB124913F004FB124913F0E7FAF5
:10036000114913F0EAFA011C104813F0E0FA01A950
:10037000019000230422306817F0B8F8002304220B
:10038000286801A917F0B2F8D4E7C04600E004409D
:1003900000C00440FCDB002000D0044000DC002052
:1003A0003333533A6ABC343F2D93E13A0000D841CD
:1003B000F0B51F4B57464E464546DE469A461D4B06
:1003C000002498461C4BE0B599461C4F1C4E83B048
:1003D000534618680123042269465B4217F05EF910
:1003E0003D68201CAB009B46F15813F0A0FA5B4619
:1003F000011C0098F05013F09DFA0A21041C681C9F
:1004000012F0E2FE434618683960092801DC013029
:10041000186013F0B3FA011C201C13F08EFA4B463F
:1004200001900422186801A9002317F05FF8CFE7B4
:10043000FCDB002090180020E4C70020A02B002047
:1004400044220020F0B50024104F114D114E83B00E
:10045000012304225B426946386817F01FF90099AE
:10046000201C13F067FA041C28680130286013F080
:1004700085FA011C201C13F060FA0023019004226D
:10048000306801A917F032F8E2E7C04600DC00202E
:100490008C180020A8DB0020294BF0B557464E46AB
:1004A000DE4645469B46274BE0B59846264B274FF0
:1004B0009946274B274E9A46274C83B001230422A6
:1004C00069465B42386817F0E9F8012304225B4271
:1004D00001A9306817F0E2F8042380211F4A236045
:1004E000490013680B42FCD05568584613F07EFB58
:1004F000A8B213F03DFA1A4913F033FA194913F070
:1005000016FA194913F019FA011C184813F00FFADA
:1005100013F056FA02000B00404613F059FC009805
:1005200013F04EFA02000B00484613F051FC0198FC
:1005300013F046FA02000B00504613F049FCBDE7E9
:10054000B0A20110CCA20110F0A20110E4C700205B
:100550001CA30110A8DB002000E0044000C0044000
:100560003333533A6ABC343F2D93E13A0000D8410B
:1005700010B50CF0A7F9002817D10CF03FF90D4881
:1005800013F034FB0C490D480D4B0E4A0CF044F9A6
:10059000002806D10C4813F029FB642018F0ECFE6B
:1005A000FBE70A4813F022FBF7E7094813F01EFBAC
:1005B00010BDC04660A3011078A3011084A30110F0
:1005C00030750000040040009CA3011088A30110B6
:1005D00048A3011070B580240125072688B0640067
:1005E00003AB22000193254900230095244818F00D
:1005F00059FB04AB220001932249002300962248B4
:1006000018F050FB05AB220001932049002300960F
:100610001F4818F047FB06AB019305232200009307
:100620001C4900231C4818F03DFB07AB2200019336
:100630001A49002300951A4818F034FB01220021C2
:100640003C2016F031FF174B0122186000213C209E
:1006500016F02AFF144B0122186000213C2016F0EE
:1006600023FF124B0122002118603C2016F01CFFD2
:100670000F4B186018F072FC08B070BDA8A30110F1
:1006800009030010C0A30110B1030010D0A3011092
:1006900045040010E4A3011099040010F4A3011014
:1006A00071050010FCDB002000DC0020E4C7002006
:1006B000A8DB002010B513F097FB0449044813F0A1
:1006C00087FBFFF787FF002010BDC04604A4011080
:1006D00014A401100022024B00201A607047C0468B
:1006E000DC2B002010B500230022002116F004FBB3
:1006F00010BDC046154B10B51860154B1A78002A6E
:100700001CD101321A7000210232012016F0B0FA19
:10071000032204000021012016F0AAFA0D4B21004B
:1007200018600D4809F0D0FC01212000494216F064
:1007300073FD200016F02EFE012010BD054B002297
:1007400000211868002316F0D7FAF5E7DC2B00200B
:100750003ADD0220F4DB0020E506001010B5036846
:10076000002202491B69984710BDC046D5060010FB
:1007700070B5094C2368002B08D1084D0121286869
:10078000494216F049FD2368002BF7D02068036822
:100790005B68984770BDC046DC2B0020F4DB00206E
:1007A000034B10B5186803689B68984710BDC04696
:1007B000DC2B002083680830002B04D107E01800F0
:1007C0001B68002B03D09942F9D1002003E00023DD
:1007D000016001200B6070478368002B08D09942AC
:1007E00002D107E0994206D018001B68002BF9D10E
:1007F0000020704708300B6803600120F9E7C0460D
:1008000043680430002B04D107E018001B68002B5C
:1008100003D09942F9D1002003E0002301600120B8
:100820000B6070474368002B08D0994202D107E063
:10083000994206D018001B68002BF9D100207047A0
:1008400004300B6803600120F9E7C046F0B5574655
:10085000DE464646C0B53E4B82B05C681B680093DE
:10086000019483688246002B2CD0082353449B4676
:100870000BF0B4FB53469B6804000D00002B21D005
:1008800000225F461E0094469846B268F368200036
:100890002900801A9941002902DB14001D00BC4682
:1008A00037003668002EF0D162464346002A48D011
:1008B000116850460B6813604B68984753469B6815
:1008C000002BD5D153465C68002C29D00025564614
:1008D000237A002B31D021006368257230009847BD
:1008E0002468002CF4D1B168B246002918D0009CCD
:1008F000019D0E0003E004000D00002E0ED0330019
:1009000022009868D9682B00121A8B413668002B98
:10091000F1DCF2D1002AEED1002EF0D10094019545
:10092000009B019C5246180021001361546102B0E3
:10093000E0BCBB46B246A846F0BD2468002CC7D137
:10094000D1E7190053465C68002CBFD1CFE7C04601
:10095000E8BE0110024B18688007C00F7047C04600
:1009600000C0064010B501F08DFC09F081FC00F0DC
:1009700059FB00F063FD00F007FE05F0F5FC01F007
:1009800011FD00F085F905F071FC10BD40BA80B290
:100990007047C04600BA7047F0B5C646584D0400CF
:1009A0002B68884600B5002B03D02A7A824200D1FA
:1009B0007CE0544E2701EB68002B02D02A7DA24236
:1009C0006AD0AB69002B03D02022AA5CA24259D086
:1009D0006B6A002B03D02C22AA5CA2422CD03B19BC
:1009E0001B01F318DB7B002C35D0B27A022A68D0C9
:1009F000012C35D08D225200B25C022A00D172E067
:100A0000022C31D0404AB25C022A00D172E0032CA1
:100A10002AD1032B0DD83D4D9B00585905F09EFF60
:100A200000223F193F01F719FB7B9B005A51042319
:100A3000FB7380BCB846F0BD381900011030414648
:100A4000AA6A3018984700236B623B191B01F31800
:100A5000DB7B002CC9D18D225200B25C022A3BD034
:100A6000294AB25C022A32D0294AB25C022AD0D189
:100A7000284AB25C9A42CCD104223B191B01F318DC
:100A8000DA73D6E73819000110304146EA693018A8
:100A900098470023AB619BE73819000110304146AD
:100AA0002A69301898470023EB608AE70701381855
:100AB000144E000110306A683018984700232B60EC
:100AC00079E7F27B9A42D7D0012C93D1C8E7124A3A
:100AD000B25C9A42C8D1CFE72022FF32B25C9A4280
:100AE00000D08FE7C8E72022FF32B25C9A4200D0E4
:100AF00086E7C1E7084AB25C9A4200D087E7BBE7C5
:100B00001C230020542300202A0200000C23002074
:100B10003A0300003F0300002F020000564BF0B5DF
:100B20004546DE4657464E4698460301E0B59B468D
:100B30001D1843462D015E19F37A070089B0012B79
:100B400000D996E04D4A9B00D4580192002C00D168
:100B500085E010354544280019F01AFBA022123018
:100B600081B29200362000F031FF8146002869D022
:100B700005AC0C220021200012F064FF3089FFF741
:100B800005FF01232080A3700C22FF33210048467B
:100B9000A38001F0DDF93A4B0C269A464346013D0D
:100BA000029703936A786F1C3B0000242E2A07D11A
:100BB0005AE05A780134E4B2591C2E2A49D00B006D
:100BC000002AF6D1DA1B92B290461D002200B2181C
:100BD000524534DC22003100484601F073FA731CA0
:100BE0009BB2A41942463900484601F0EDF9A4B27F
:100BF0002B78661CB6B2002BD4D1039B00223100A7
:100C000048469846029F01F05DFA1E4B02340422CA
:100C1000049304A9A3B2484601F0D6F93B00019918
:100C20005B448C461B014344DA7ADB7B16499B000C
:100C30009200585862443523494605F01DFE484647
:100C400001F030F809B0F0BCBB46B246A946A04658
:100C5000F0BD5B1B9BB2984622000D00B7E7002158
:100C6000FFF79AFEB472EDE700233D00002298469C
:100C7000ADE7064810F0D0FE542300204C2300209E
:100C8000FEFF0000000100010C2300202CA4011035
:100C90007047C046012800D97047054B80000029E5
:100CA00002D00A68C250F7E7024A1268C250F3E75E
:100CB0004C230020C8BC0110F8B5DE4657464E460E
:100CC00045460223E0B5474E002534009B460027E9
:100CD000A37A022B39D030D8002B22D08D235B0091
:100CE0009846414B9946414B9A4609F06DFEB37ABE
:100CF00080B2022B41D04346F35C022B44D04B46DA
:100D0000F35C022B49D05346F35C022B4ED05B467A
:100D1000A37201232081E772280023736773FFF712
:100D2000FDFE01351134EDB2FF34042DD0D1F0BCFD
:100D3000BB46B246A946A046F8BD032B4FD1236857
:100D4000002B13D10023A372EBE7237B013BDBB223
:100D50002373002BE5D1637B0133DBB26373042B78
:100D60002AD023732800FFF7D9FEDAE7013B23607E
:100D7000002BD6D10023A372D3E733898342B4D0AA
:100D80004346F35C022BBAD11733FF33F35A834245
:100D9000ABD04B46F35C022BB5D18A239B00F35AB0
:100DA0008342A2D05346F35C022BB0D1CE239B00EA
:100DB000F35A8342ABD198E7E37A002B08D10C4A6F
:100DC0005268002A04D001226373E2722273C9E7D9
:100DD00000212800FFF7E0FD0023A372A1E70548EA
:100DE00010F01AFE542300202A0200003A030000EB
:100DF0004C23002060A401100123F0B51E00002543
:100E00000640184205D0002953DD057801392D022E
:100E10000130032213000340104251D1072957DD4E
:100E2000072208390F0091430A000100040008312D
:100E3000891822689A189A429B415B42D2186368CB
:100E40000834D3189342924152429B18A142F0D1E8
:100E5000F9084A1CD2008018C9001A04791A120C29
:100E60001B0C9B18012910DD02889B188A1E012A81
:100E700005DD44881B19052901DD81885B185108AF
:100E80004C1C640049000019511A012904D1027850
:100E9000FE318D431543ADB2ED182B0C2D042D0CF6
:100EA0005B19180C1B041B0CC018002E02D180B259
:100EB000F0BD0020030600041B0C000E1843F6E7EB
:100EC000012903DD038802390230A7E70023DCE7AC
:100ED0001A00C5E7F8B557464E46DE464546E0B52A
:100EE00091460A9A8A4611681B680A04120C090C7A
:100EF00052181904090C52181B0C9B181A0C1B04CD
:100F00001B0CD3181F0C1B041B0C0400FF1800281B
:100F100025D000239B46FF330126984665896068EB
:100F20002900FFF769FFC019070C0004000C3F18E7
:100F30002E4209D05B46414673403A069B463B0A27
:100F4000120C0B401A4317002468002CE6D15B46B4
:100F5000002B04D03A063F04120C3F0E17435046B4
:100F6000FFF714FD04004846FFF710FD2318DB19B6
:100F70001A0C1B041B0CD318180C1B041B0CC018D8
:100F8000C04380B2F0BCBB46B246A946A046F8BDFD
:100F900010B582B0049C0094FFF79CFF02B010BD16
:100FA00010B5FFF729FFC04380B210BDF8B5CE469B
:100FB0004746040080B500282FD000239946FF3310
:100FC000002701269846658960682900FFF714FF0D
:100FD000C019070C0004000C3F182E4209D04B46E4
:100FE000414673403A0699463B0A120C0B401A439D
:100FF00017002468002CE6D14B46002B0AD0380697
:101000003B04000C1B0E1843C04380B2C0BCB94661
:10101000B046F8BDF84380B2F8E70148F6E7C046AD
:10102000FFFF000003220E4B10B593430D4AFA2137
:101030001360002209011A710B4A5818106001222E
:1010400019600271094A0A485A500A4A136009F0A5
:101050001FF9002800D110BD074810F0DDFCC04684
:10106000D3CA0020C8CA0020CCCA0020A00FA00FFD
:10107000702C0020D02B002080A40110F8B5DE4693
:1010800057464E464546E0B500286AD0830700D053
:1010900081E00400414D083C2B68A34200D96EE07A
:1010A0003F4F0C303B68834269D33E4E300009F01D
:1010B000FFF82379002B00D16AE0FA2122882B68FF
:1010C000090165888A420BD88D4209D8E11A89B294
:1010D000884659198C46A84505D00988414502D053
:1010E000314810F099FC386899188146814202D045
:1010F00048884045F4D1002020712C488346006880
:10110000A04202D95846046020009C423AD34C4584
:101110003BD28C4212D00F79002F0FD149450DD010
:10112000814228D00A88FA21228009018A4205D00A
:10113000454699184D80658859198C4664450DD0EF
:1011400061460979002909D1844210D061460A809C
:10115000FA2109018A4201D09B185D80300009F014
:10116000C3F8F0BCBB46B246A946A046F8BD6146EE
:1011700058460160EAE75A4620001460D2E70C485E
:1011800010F04AFC0B4810F047FC0B4810F044FCF0
:101190000A4810F041FC0A4810F03EFCC8CA002082
:1011A000CCCA0020702C002004A50110D02B0020F8
:1011B000C0A4011038A5011050A50110DCA4011035
:1011C0009CA40110F0B54646D6464F46444BCC1C75
:1011D000C0B51C4006000B2C50D9FA231B019C42C1
:1011E0004FD8A1424DD83F4B1F689A46B74200D90D
:1011F0006CE03D4B1B68B34268D908235B429846BC
:10120000B04443461D88DF1BBFB2083DED1BADB2A5
:10121000A5425ED32CD0354B1800994609F048F80A
:10122000434652461B881268D018017900292AD1FA
:10123000FA2109018B424FD003889A463B000833BC
:10124000E3182B4C9BB22568D11885423CD0002076
:1012500008715046088040464F800380FA20098874
:101260000001814201D051184B80484609F03CF8FA
:101270003000E0BCBA46B146A846F0BD0C24A142FD
:10128000B1D90020F5E72100143189B28D42ECD3A9
:10129000390008316418FA21A4B209018B421BD02D
:1012A0001348111905688D4200D901600B80002098
:1012B000434608714F801C800B88FA2109018B423C
:1012C000D3D0D2185480D0E72160C0E7094810F08D
:1012D000A3FB094810F0A0FB084810F09DFBC04696
:1012E000FCFF0000C8CA0020CCCA0020702C0020DF
:1012F000D02B00206CA5011084A50110A4A501101D
:10130000F0B5DE4657464E464546E0B583B0002868
:1013100035D0424BC61C1E400B2E38D9FA231B0178
:101320009E422CD8B0422AD83D4B1800984608F06F
:10133000BFFF3C4BFA219A461B68090199463A4B7C
:10134000891B18684B461B1A9AB21B048C461B0C4F
:101350008B4211D2082149428B46C418019225794B
:10136000C25A19001300002D04D15F46791A89185A
:10137000B1420ED29445F0D8404608F0B5FF0020A7
:1013800003B0F0BCBB46B246A946A046F0BD0C2651
:10139000C8E733001433994226D3FA21019B08365B
:1013A0009B1909019BB28C468B4231D0C1180A802F
:1013B000019A0D714A800122238022710A886245B8
:1013C00001D082185380194DA14511D0404608F034
:1013D0008BFF2B68A619B3421DD320000830A40749
:1013E000CED0134810F018FB012308362371EAE72A
:1013F0002300296804E01B88C3181A79002A04D046
:101400009942F8D153461960E0E752461360DDE790
:10141000084810F001FB084810F0FEFAFCFF00003D
:10142000702C0020D02B0020C8CA0020CCCA00207D
:10143000E8A50110A4A50110B8A5011034230022CD
:10144000F0B54746CE46904699460332042494466A
:10145000124E80B5124B134FB14441463268396089
:10146000614603338B43002C0BD0158800210022EA
:1014700000E003000132196058191900A242F8DB9C
:101480003B600436B14504D032689768536854888D
:10149000E3E7C0BCB946B046F0BDC04670A6011037
:1014A0002CBF0020C4C7002010B50C2812D80C4B4C
:1014B0008000C45808F0E2FEA3681C68002C07D026
:1014C00022681A60A30707D108F0DEFE200010BDD5
:1014D00008F0DAFE0024F9E7024810F09DFAC04651
:1014E00070A601102CA6011070B50C000C280ED8A7
:1014F00000290CD0084B8000C5588B0708D108F094
:10150000BDFEAB681A6822601C6008F0BDFE70BDAD
:10151000024810F081FAC04670A6011050A60110D2
:101520000C2040427047C04670B5436816000A68F8
:1015300004000D0082B09A4201D102B070BD336048
:10154000300001A9019201F0B1FE300001A905F0BF
:1015500031FA01A9300000F075FE39232968616075
:10156000E25C343B1340052B05D0E369002BE4D04B
:1015700020009847E1E70029F7D01207F5D52000B1
:10158000211D07F059FBF0E77047C046F0B547460C
:10159000CE4680B504000F009146984683B00028DF
:1015A00000D180E00B9B002B7DD0002900D18FE083
:1015B0004B46002B00D188E04346002B00D181E050
:1015C000474B002563610022392320006560A56038
:1015D000E56025860021E2542830042212F032FA18
:1015E0000A9B404E63623C233278E5612562E254F7
:1015F0000C9B23613B68002B5BD000210020002264
:101600004B461B68984200D0A36043461B68994232
:101610003CD1002A3DD020000B9B9847002842D1A6
:10162000314B9C461F683C23E55CFF2D18D03C20C5
:10163000002F1AD0BC424FD03B00FF2207E01B68AE
:10164000002B12D09C4247D0013A002A17D0195CD7
:10165000A942F4D10135EDB2FF2D13D02554E9E7AD
:10166000E05400253C20002FE4D1FE2D32D001357E
:10167000EDB263462760200035701C6014E01B4803
:1016800010F0CAF9002300252354D3E7E360002AB1
:10169000C1D12000390001AAFFF746FF20000B9BB3
:1016A00098470028BCD0002003B0C0BCB946B04663
:1016B000F0BD3900200001AAFFF736FF0122A06823
:1016C000E1689DE70A4B98467AE7094B994673E72C
:1016D000074F6DE70025CCE7064810F09DF9C0469E
:1016E0002115001040DD0220ECC7002054A7011096
:1016F000C8BC011040A70110F0B504000D00170090
:101700001E0083B0002922D0002F23D0002E24D029
:101710002B680022002B15D03B68A1688B4200D0BB
:10172000A3603368E1688B4203D1002A04D003B080
:10173000F0BDE360002AFAD16A4629002000FFF7D5
:10174000F3FEF4E76268002A09D10122E4E7164DAE
:10175000002FDBD1144F002EDAD1134ED8E76846A4
:1017600001A90193009201F0A1FD684601A905F0CD
:1017700021F901A9684600F065FD39232A686260F5
:10178000E15C343B0B40052B07D1002A05D009074B
:1017900003D52000211D07F04FFAE369002BD4D0B8
:1017A000200098470122B7E7C8BC011070B5041E9D
:1017B00016D04368002B17D139220121A35C1942AE
:1017C00024D11D4B1A68A2422ED01C4A1368A34292
:1017D00004D126E01A68A24203D01300002BF9D1ED
:1017E00070BD22681A60FBE7051D0021280001F08A
:1017F0005DFD0021280005F0DDF80021280000F043
:1018000021FD39220121A35C1942DAD01800884356
:10181000A0541B070BD4E369002BD2D020009847BB
:10182000CFE723681360DBE700221A60CDE72000D2
:1018300006F066FEEFE7C046E8C70020ECC70020D0
:10184000014B18607047C046E8C7002070B5041E01
:1018500015D03925435DDA0711D401221343DBB2D9
:101860004355C269002A01D09047635D05221A40A2
:10187000052A04D16268002A01D01B0700D470BD7C
:101880002000211D07F0D8F9F9E7C04670B5041E05
:1018900003D03925435D5A0700D570BD0422134398
:1018A000435505F091FF0523625D1340052B05D0DC
:1018B000236A002BF1D020009847EEE76368002BE5
:1018C000F6D01207F4D52000211D07F0B5F9EFE797
:1018D00010B500280AD039220421835C194205D0B2
:1018E0008B438354036A002B00D0984710BDC04639
:1018F000021E0ED0084B1868002809D03C2102E0D7
:101900000068002804D0435C0133DBB29342F7D176
:1019100070470020FCE7C046ECC7002010B508F077
:10192000ADFC0022084B1A7008F0AEFC074B18689B
:10193000002803D107E0C068002804D0436F002BC3
:10194000F9D001F0FDFC10BD42DD0220C8DB002013
:10195000F8B505000026002826D00F270BE0012B44
:1019600024D0002B2AD12800FFF788FB0136F6B2DD
:10197000002C19D0250008F081FCAC7B002C1AD07B
:10198000013CE4B2AC7308F07FFC002C0CD12B7B43
:101990002C683B40022BE2D129000C200136FFF7D6
:1019A000A3FDF6B2002CE5D13000F8BD29000B20D4
:1019B000FFF79AFDDAE7034810F02EF8024810F01E
:1019C0002BF8C04684A701109CA701100023F0B596
:1019D0004F4699460B040B43D64646469846C123CC
:1019E000C0B582460D00170004005B009A4244D047
:1019F00009D81400433BFF3B9C43012C00D16EE00F
:101A0000444810F009F8A0239B009A42F8D1030043
:101A1000032403330335A343A5435B199BB218008A
:101A2000103080B2AB4221D385421FD8FFF768FC4B
:101A3000061E1CD04B4603605346C7184346133757
:101A40008360354BA7434760C36010E008F016FC85
:101A50000123324D2C782B70E4B208F015FC002CD9
:101A60004CD0002E02D03000FFF772FF002630006D
:101A7000E0BCBA46B146A846F0BD00239846284BC4
:101A800000269A4600230327994607E04246ED1AAE
:101A9000ADB21060002DEAD0804600240C20FFF784
:101AA00003FD0028D2D05246E31CBB43D31A1A1CB4
:101AB0009BB2AB4200D92A1C4946041993B2133495
:101AC0004281184ABC43016044600581C260002E17
:101AD000DCD1ED1AADB20600002DDDD1C7E70B2039
:101AE000FFF7E2FC061EC2D04B460360436043464C
:101AF00083604B4607734373C481B8E700210A48EB
:101B000008F0BCFA0028ACD008F0B8FB2C7008F044
:101B1000BBFBA6E7B0A701108000010042DD022058
:101B2000EC050000820001001D19001070B5041EB4
:101B300033D002898A421BD98A1A07E0C91A23893D
:101B400089B29B1823812468002C20D063898B42A2
:101B5000F4D3227B0D040D43120701D18B4208D12F
:101B60002068A560002801D0FFF7F2FE0023236063
:101B700070BD636820001B1BC91889B2FFF722FBE8
:101B8000002807D08442EBD005480FF045FF0548F8
:101B90000FF042FF04480FF03FFF04480FF03CFFF6
:101BA00018A80110E4A70110FCA70110CCA7011090
:101BB000030070B500281ED080225202914218D234
:101BC000002914D002898CB2A21892B2944210D883
:101BD000057B01207F2D0BD95D68691A1D0010352A
:101BE000A94205D3596059891A8164185C81002083
:101BF00070BD0120FCE701480FF00EFF34A8011072
:101C000010B5002815D080235B0299420FD200291D
:101C10000BD043898AB29A4209D89B1A44684381FF
:101C2000038961189B1A41600381002010BD0120C7
:101C3000FCE701480FF0F0FE34A8011010B50029B0
:101C400015DB002829D000290FD003898AB2D318C8
:101C50009BB29A421FD84468611A047B7F2C16D825
:101C600041604189038152184281002010BD002843
:101C700013D0494243898CB29C420CD81B1B42684A
:101C80004381038952181B1B42600381EDE7040066
:101C90001034A142E4D20120E8E701480FF0BCFE75
:101CA00034A8011010B5002802D0FFF751FE10BD76
:101CB00001480FF0B1FEC04634A801100300002017
:101CC000002B04D01B68013080B2002BFAD1704782
:101CD00010B5041E09D008F0D1FAA37B0133A37319
:101CE00008F0D2FAA37B002B00D010BD01480FF002
:101CF00093FEC04640A8011010B5002816D0002958
:101D000014D00268002A01D111E01A0003890C895D
:101D10001B19038113681000002BF6D11089538919
:101D2000834206D1088911601B18138110BD02007F
:101D3000F4E701480FF070FE54A8011010B50C0034
:101D400000281FD000291CD00368002B07D002896F
:101D500021895218028118001B68002BF7D10289D3
:101D60004389934211D1228904609B18038108F0B2
:101D700085FAA37B0133A37308F086FAA37B002BBB
:101D800006D010BD0029FCD0F1E703480FF044FE57
:101D900002480FF041FEC04654A8011040A80110AF
:101DA000F8B54746CE46804680B50D0091461F00E7
:101DB000002900D17EE00B89934200D27AE000280E
:101DC00000D177E04B460289FB189A4200DA71E0B5
:101DD000002644896B89E41B9B1B9C4200D91C0094
:101DE0004C4500D94C464346696858682200C019E2
:101DF000891911F02DFE4B463F1936191C1BA3B251
:101E0000994643465C89BC4257D36B89B34257D34A
:101E100003D12D680026002D2FD0BC420FD06A8937
:101E20002B899A4223D043461B89A34217D04B46A5
:101E3000002BCFD10020C0BCB946B046F8BD434608
:101E40001B689846002B25D06A892B899A420DD0B1
:101E500043465C8943461B890027A342E7D143469A
:101E60001B68002BE3D006204042E4E700272B68E4
:101E7000002BF8D143465C89D5E74B46002B19D19E
:101E8000BC42D0D143461B689846002BD2D03700C5
:101E90005C89C8E74B46002B0CD16A892B8900204E
:101EA0009A42C8D12B6806305A4253415B421840CF
:101EB0000638C0E710204042BDE703480FF0ACFDF4
:101EC00002480FF0A9FDC04684A801109CA801108B
:101ED00010B5002904D000230A89FFF761FF10BD67
:101EE00010204042FBE7C046F0B5C64605008846D4
:101EF0001700002600B5002826D0002924D0002F86
:101F000005D121E02D681B1B9BB2002D1CD06C89D4
:101F1000002B01D0A342F5D2E41A221CA4B2BC4289
:101F200000D93A1C94B2424669683F1B9019C918FF
:101F30002200A619BFB211F08BFDB6B22D68002F9A
:101F400002D00023002DE2D1300080BCB846F0BDA5
:101F5000F8B5CE46474605008846914680B500282C
:101F600024D0002922D0038993421CD316000027D5
:101F7000002A02D112E0002D1BD06C89B44200D996
:101F8000340043466868D919220011F061FD361B00
:101F90002D683F19002EEED1B9450DD10020C0BCEF
:101FA000B946B046F8BD01204042F8E71020404253
:101FB000F5E703480FF030FD02480FF02DFDC04655
:101FC000B8A80110D0A80110F0B5D6464F46464635
:101FD00005008A46C0B5002805D146E02D68DB1B08
:101FE0009BB2002D41D06F89BB42F7D22989981846
:101FF0008146814239DB9F4240D96868C018FB1A8C
:102000009A422EDD9BB21A005146984611F020FDEF
:102010004B46DF1BBBB29946002B1CD02F68002F0C
:1020200029D03B894B4520D34E46002401E0002FA8
:102030001ED07D89B54200D935004346191978680C
:102040002A00514411F004FD761B3F686419002EEC
:10205000EDD1A14515D10020E0BCBA46B146A84655
:10206000F0BD514611F0F4FCF5E701204042F3E7E2
:1020700005480FF0D1FC10204042EDE703480FF077
:10208000CBFC03480FF0C8FCB8A80110E8A8011069
:10209000D0A801100B0070B5150011891A00FFF7C8
:1020A00095FC041E06D0002329002A89FFF778FE3C
:1020B000002801D1200070BD01480FF0ADFCC046E2
:1020C00000A9011005E043898B4205D8C91A0068B0
:1020D00089B20028F7D1704743685A54FBE7C046DD
:1020E000F0B5DE46454657464E468046E0B5514F70
:1020F00083B03968786907F03BFF43465A684E4B16
:10210000557A1C689B46002C00D18EE0002843D1F4
:102110003C2300269946844604E0E3682600002B11
:1021200032D01C00237CAB42F7D1217A002906D0A3
:1021300048467B681B5C0133DBB29942EDD12368D2
:10214000002B02D079698B42E7D10121637C1942CF
:1021500003D061683B699942DFD163699A46002BDD
:10216000DBD0019221004246A069344BD0470028C1
:1021700050D143465A68019B934258D102239C4652
:10218000E3682600002BCCD1604603B0F0BCBB4610
:10219000B246A946A046F0BD0020012300269A467B
:1021A000019004E0E3682600002B31D01C00237C62
:1021B000AB42F7D1217A002908D07B689C463C23AA
:1021C0006046C35C0133DBB29942EBD12368002B3C
:1021D000E8D15146637C194203D061683B6999425A
:1021E000E0D163699946002BDCD001922100424680
:1021F000A069124BC84700280CD143465A68019B7E
:102200009A4214D102230193E3682600002BCDD11A
:102210000198BAE7002E06D0E368F3605B461B68BE
:10222000E3605B461C600120AFE70020ADE7044897
:102230000FF0F2FBB42B00208CDA0020C42B00201E
:1022400014A9011010B5002811D00268002A0ED080
:1022500000290CD00B68002B09D0094B1B68002B00
:1022600005D01C68944203D0DB68002BF9D110BD67
:102270000A681A60DB68002BF9D00268F1E7C046F3
:102280008CDA00207047C04610B5041E22D0037DB2
:10229000042B05D0072B0CD0032B01D0002007E026
:1022A000200003F089F80523002807D0431C0BD039
:1022B00010BD03F081F80028F8D109232000237510
:1022C00003F08AFB0020F3E70822638B002013430E
:1022D0006383EDE701480FF09FFBC04660A9011042
:1022E00070B50600806F002803D0FFF7DBFC0023E9
:1022F000B367746F002C18D06068256800280CD074
:10230000FFF7D0FC21000420FFF7EEF8002D0AD0E3
:102310002C00606825680028F2D121000420FFF716
:10232000E3F8002DF4D1002373670123F46E5B42C0
:102330003386002C16D06068256800280CD0FFF783
:10234000B1FC21000420FFF7CFF8002D0AD02C00AB
:10235000606825680028F2D121000420FFF7C4F846
:10236000002DF4D1346F002C16D060682568002849
:102370000CD0FFF797FC21000420FFF7B5F8002DE3
:102380000AD02C00606825680028F2D121000420C2
:10239000FFF7AAF8002DF4D100236822F366336713
:1023A000B35270BD10B508F00FFB044A8004944688
:1023B000034B800C6044188010BDC04600C0FFFF76
:1023C000F40D002010B5037D0100012B03D0022085
:1023D000FFF78AF810BD01480FF01EFB6CA9011031
:1023E000F8B5031E1BD0048DC16A466A5D8E0F4F7F
:1023F000601A80192A1CBD420CD892B2821A07D5E5
:10240000891B09D48022520291420BD200208CB247
:102410005C85F8BD3A1CF0E700240020F8E704488A
:102420000FF0FAFA03480FF0F7FAC046D016000092
:1024300080A90110A4A90110F8B500281DD0037DC2
:10244000012B34D0048D1D4A61188BB293421BD9E5
:102450001300466A458E1A4FC46A0385B218291CB8
:10246000BD420BD889B20919511A11D5A41B1BD42E
:1024700080235B029C421DD24485F8BD391C89B281
:102480000919511AF2D403E09C42E1D81A00E0E79E
:1024900043850C4B121B9A42EFD90222438B134304
:1024A000438303F099FAE8E700234385E5E706480C
:1024B0000FF0B2FA05480FF0AFFAC046A02D0000A9
:1024C000D0160000670B0000C0A90110A4A90110DC
:1024D000F0B5DE46454657464E46E0B5AF4DB04AEC
:1024E0002B6889B001332B60137807920133137086
:1024F000AC4B9B46AC4B04935B461C68002C00D154
:10250000BFE000239A46079B2F009846237D002BAF
:1025100000D12BE2012B00D12EE20A2B00D128E2C0
:102520004246A17F1278914200D134E1A277422243
:10253000A25C022B00D126E10B2A6CD8A122A25C5E
:102540009146002A00D135E1226F002A00D022E214
:10255000E26E002A00D127E2A222A25C0B2A5AD8FE
:102560004946A020914A895C225C8A4200D2C1E19E
:102570006023E15A00293ED1200003F029FD002804
:102580003FD0237D002201259146062B48D0627A58
:10259000120724D5042B00D08FE13A68236AFA2170
:1025A000D31A05939423E25804339446E65804332F
:1025B000E058490070436044069210F02DFE059BE0
:1025C000834200D975E1A325FA21635D069A5E4333
:1025D0004900B01810F020FE059B834201D84D46FB
:1025E000D5E0200003F086FC0028F8D1635D0133BC
:1025F00063554D46CBE0200002F004FE002800D1D8
:102600009FE1A0230022E254A132A35C062BB8D89C
:102610000133A354B5E7012202259146062BB6D11A
:10262000636F628B1E00D20600D52EE1627A12071C
:1026300000D435E100224D4691461E1E0AD03A686C
:10264000236AD21A4023E15E4B005B185B00934281
:1026500000D8FEE0237D032B3BD0092B6CD0002D4E
:1026600000D077E1237F627F0133DBB2E568237717
:102670009A4200D870E0A2462C00002C00D045E71A
:102680003D004B4F00243968002904D11AE00C00AA
:10269000C968002916D00B7D0A2B00D06FE12B688A
:1026A0000A6A9B1AF02BF2D93B68002C00D11CE17E
:1026B000994200D16CE1CE68E6600220FEF714FF7B
:1026C000311EE8D109B0F0BCBB46B246A946A046CF
:1026D000F0BD3B68226A9B1A282B32D99023E5581B
:1026E0002000FFF7FDFD5B4652461B68002A00D123
:1026F000F5E09C4200D145E1E368D3604B46002BF6
:1027000000D0DFE0E36826699946237D012B00D1E4
:102710003BE121000220FEF7E7FE0023049C23702A
:10272000002D07D00D2130004942A8472378002B07
:1027300000D00DE14C46A0E73B68226A9B1AF02BC3
:10274000CCD8002DCAD1237F627F0133DBB2E5688C
:1027500023779A4200D98EE70023049A23771370D7
:102760008C33E358002B0AD0210020699847049B42
:102770001B78002B00D0EBE0002800D07BE7200086
:1027800003F02AF977E7052A00D8D7E601250023C8
:102790009946636F51E7A246E4686EE7D8DB0020F4
:1027A00047DD0220C8DB002045DD022033AD0110EB
:1027B000DCDB00203022A15E7D48228E824202D8DE
:1027C000013211B221864022A25E01258A4200DD3B
:1027D000DBE6200002F000FF002800D09AE0227D16
:1027E000022A16D03C22A35E3E21625EDB109B18BB
:1027F0004222A15C6F480A1C0C2900D997E0D2B292
:10280000825C934080221202934200DB8DE04022E2
:10281000A3520023482023866033E15A255A628E52
:102820000B1CA94200D92B1C9BB250005B0885B23F
:10283000191CAB4200D2011C4A23E152023BE25276
:1028400000222233E252200003F0F0FA0125237D1A
:102850009BE670680595356800280CD0FFF722FAD2
:1028600031000420FEF740FE002D0AD02E007068D3
:1028700035680028F2D131000420FEF735FE002D26
:10288000F4D10023059D6367E4E63A68216A521A91
:10289000282A05D900218946002B00D0D2E61DE761
:1028A000002B2ED0236A3A684D46D21A002399464F
:1028B000C8E601239946636FBFE6072B00D16CE69B
:1028C0004D4664E7238B626A216D0293E38A200000
:1028D0000193231D0093230002F04CFF12E79C425A
:1028E0005FD15A46E368136008E7994256D1CE6833
:1028F0003E60E2E60132D2B222548A4200D241E680
:1029000036E64B46002B00D1ACE69023E558002379
:102910009946E5E6237D216F1A00002900D034E6B0
:10292000E16E002900D05BE72FE6234B6FE70C2216
:10293000D2B2825C934080221202934200DA66E7B0
:10294000F3E7200003F048F8002800D059E618E625
:102950003D00D1E59022A558002B00D1C3E60A2BFB
:1029600000D1C0E6012B00D0BAE6BCE613480FF058
:1029700053F813480FF050F812480FF04DF8124872
:102980000FF04AF811480FF047F811480FF044F8DB
:1029900010480FF041F810480FF03EF80F480FF0C4
:1029A0003BF80F480FF038F80E480FF035F8C046E6
:1029B000FE7F00003CAD0110FF7F0000E8A9011080
:1029C00040AA011014AA011030AB0110D8AA0110BE
:1029D0006CA9011060AB01106CAA011088AB01104A
:1029E00004AB0110A0AA011070B5041E16D06068D7
:1029F000256800280CD0FFF755F921000420FEF7C8
:102A000073FD002D0AD02C00606825680028F2D1E3
:102A100021000420FEF768FD002DF4D170BDC046F2
:102A200010B5041E08D04068002801D0FFF73AF91D
:102A300021000420FEF758FD10BDC04670B5051EEC
:102A40000DD00420FEF730FD041E06D01022290010
:102A500010F0FEFF6068FFF73BF9200070BD0148F1
:102A60000EF0DAFFB0AB011010B5002806D0037DE0
:102A7000012B03D90A2B01D0FFF732FC10BDC04651
:102A800010B50C1E47D0002848D003688B4204D1F3
:102A90002FE0DA68A24224D01300002BF9D10023E2
:102AA000E360237D002B0FD1638BDA0729D4E36E1B
:102AB000002B36D1236F002B36D1636F002B36D11C
:102AC00000232375E38210BD0A2BF0D0012BF7D031
:102AD0002000FFF705FC237D0A2BE8D0012BEFD067
:102AE000E2E7E268DA600023E360237D002BEBD1AC
:102AF000DAE7CB6803600023E360237D002BE3D19A
:102B0000D2E7022213436383200002F065FF237D96
:102B1000012BD5D0CBE707480EF07EFF06480EF01C
:102B20007BFF06480EF078FF05480EF075FF05485C
:102B30000EF072FFCCAB0110E8AB011008AC011035
:102B400020AC01103CAC0110F0B54E464546DE46C7
:102B50005746E0B505000E0087B0002876D0037D0B
:102B6000012B00D1B0E00A2B00D19BE0026D924610
:102B7000426A059290228258934602699146C28A1F
:102B80009046002B69D1002A6FD100230026984679
:102B90002C6F002C16D06068276800280CD0FFF737
:102BA00081F821000420FEF79FFC002F0AD03C0092
:102BB000606827680028F2D121000420FEF794FC09
:102BC000002FF4D1EC6E002C16D060682768002826
:102BD0000CD0FFF767F821000420FEF785FC002FDA
:102BE0000AD03C00606827680028F2D12100042048
:102BF000FEF77AFC002FF4D16C6F002C16D06068C1
:102C0000276800280CD0FFF74DF821000420FEF7BC
:102C10006BFC002F0AD03C00606827680028F2D1C6
:102C200021000420FEF760FC002FF4D1002E2CD1EF
:102C30002B7D012B45D029000220FEF755FC5B4679
:102C4000002B03D00D2148464942D84707B0F0BCBD
:102C5000BB46B246A946A046F0BD29001C48FFF776
:102C60000FFF01221B4B1A7092E71B4A1368834225
:102C700008D1C36813600023EB6086E7DA68AA42D4
:102C80001CD01300002BF9D1F5E72B8B5146029392
:102C9000434601932B1D009328002B00059A02F058
:102CA00069FDC5E729000D48FFF7EAFE2B7D012BE2
:102CB00007D029000220FEF717FCC7E7EA68DA60B0
:102CC000D9E707480EF0A8FE06480EF0A5FEC0465C
:102CD000C8DB002045DD0220CCDB0020DCDB00204F
:102CE0006CA9011054AC011010B50121FFF72CFFA5
:102CF00010BDC046F0B5C646060000B50220FEF77E
:102D0000D3FB041E2AD0A4220021200010F09AFE3A
:102D10006423624A6675E252614B4022A362FF233C
:102D2000E372F93BA352E3875E4B443223635E4B6D
:102D30001B6823625D4B1B78A3775D4BA3645D4BDF
:102D4000A35094235C4AE2505C4A0433E2500922C7
:102D50000433E250200080BCB846F0BD584B082731
:102D600098461D68002D0AD02800438BED681F424D
:102D7000F8D0BB434383FFF787FA002DF4D1514BC2
:102D80001B68002B11D00021474A10681A6A821A6A
:102D9000914201D811001C00DB68002BF6D1002CF9
:102DA00003D001212000FFF7CFFE0220FEF77CFBBD
:102DB000041EA8D143461B68002B16D03A4A0021B6
:102DC000106802E0DB68002B09D01A7D092AF9D1CE
:102DD0001A6A821A9142F5D811001C00F2E7002C01
:102DE00003D000212000FFF7AFFE0220FEF75CFBBE
:102DF000041E00D087E743461B68002B16D02A4AE2
:102E00000021106802E0DB68002B09D01A7D082A37
:102E1000F9D11A6A821A8A42F5D311001C00F2E72E
:102E2000002C03D000212000FFF78EFE0220FEF7C9
:102E30003BFB041E00D066E773B2002B2BDB002E99
:102E400022D0320043461B68013AD2B2002B1BD07D
:102E500015490F680021884607E0186A3A1A90461B
:102E60001C000A00DB68002B08D0597D8A42F4D888
:102E7000F8D1186A3D1AA845F4D8EFE7002C03D022
:102E800001212000FFF760FE0220FEF70DFB041E6B
:102E900000D038E75EE77F22D4E7C046A02D0000CF
:102EA000A02DA02DFFFF1802D8DB002047DD022057
:102EB0000100A02D5530001000DD6D00F824010048
:102EC000C8DB0020DCDB002030B5040085B0002822
:102ED00000D19FE0037D002903D0042B0DD0072BE8
:102EE0000BD0012B00D169E0022B4ED0002B3BD040
:102EF0002000FFF7C9F905B030BDA36F002B54D0F7
:102F0000638BDB0600D488E0238B626A216D029319
:102F1000E38A20000193231D0093230002F02AFC82
:102F2000237D012B04D90A2B02D02000FFF7D8F90A
:102F30003D4A1368A34214D1E368136000230122C1
:102F4000E3603A4B1A703A4B1B68A34232D0237DA0
:102F5000012B24D137480EF05FFDDA68A24250D031
:102F60001300002BF9D1E9E7E38A002B17D0324A8E
:102F70001368A34204D14AE0DA68A24244D01300A5
:102F8000002BF9D10023E36009E021002648FFF778
:102F900077FD0122254B1A70237D012BDAD0022008
:102FA0002100FEF7A1FA0020A5E7244B228D9A42CA
:102FB000A6D19DE701F0DEFF00209CE7204900201C
:102FC0000D000C354B681B68002B05D0DA6F94425E
:102FD00012D0DB68002BF9D104318D42F2D12100EF
:102FE0001848FFF74DFD237D012B19D00320210048
:102FF000FEF77AFA00207EE7D867DB68002BE5D180
:10300000EAE7E268DA6099E7E268DA60BAE7E3687B
:103010001360B7E70C480EF0FFFC0C480EF0FCFC08
:103020000B480EF0F9FCC046C8DB002045DD02204D
:10303000D0DB00206CA90110CCDB0020A02D00000B
:1030400024AD0110D4DB002088AC0110A8AC011025
:10305000C4AC0110F0B5C6460800140000B5002944
:103060004AD0002A2CD013890A7D012A47D0098D25
:10307000264A5B189BB293421ED913009046476ABA
:10308000468E234AC56A0385B844311C964200D94E
:10309000111C424689B24919511A21D5ED1B1CD485
:1030A00080235B029D422DD245852000FEF7FAFD6C
:1030B000002080BCB846F0BD9942DED81A00DDE79A
:1030C000002BF5D10B7D012B03D010224B8B13432A
:1030D0004B830121FFF7F8FEEBE700234385E4E78C
:1030E00043850C4B521B9A42DFD90222438B134378
:1030F000438302F071FCD8E710204042D9E706482C
:103100000EF08AFC05480EF087FCC046A02D00009A
:10311000D0160000670B0000C0A90110A4A901107F
:10312000F8B5041E32D00023866F777B8367843323
:10313000C558002D0CD00023320021000069A8479B
:1031400000280BD00D301ED00520A6674042F8BDE8
:103150003189FFF771F93000FEF7A4FDBF0610D5E5
:10316000238D0C4A934201D0013323858423E558F3
:10317000002D06D00023002221002069A8470D3031
:1031800001D00020E3E70D204042E0E7102040425C
:10319000DDE7C046A02D0000F0B54F464646D646B6
:1031A000C0B5204D204F2B7801332B701F4B994613
:1031B000012398464B461C68002C1BD008262B7810
:1031C000A27F9A421BD04246A377638B1A421ED13C
:1031D0001E4216D1E3689A46A36F002B07D0002346
:1031E00020003B70FFF79CFF3B78002BE2D1544658
:1031F000002CE4D1E0BCBA46B146A846F0BDE46874
:10320000F6E7B34320006383FFF73EF8E2E70222CC
:1032100013436383200002F0DFFB0322638B93439D
:103220006383D5E747DD022045DD0220C8DB0020AF
:1032300010B5FFF7B1FF054A13780133DBB2137005
:10324000DB0700D410BDFFF743F9FBE746DD0220A2
:1032500010B5002806D0054B054A1868126880187A
:10326000186010BD03480EF0D7FBC046F00D0020DB
:10327000D8DB0020E0AC011010B5002A10D00029E6
:103280000DD00A8E002A0AD0131C282A00D2282327
:10329000283B1A1C9BB2834200D9021C90B210BD7D
:1032A00001480EF0B9FBC046FCAC011070B505003A
:1032B0000E00002802D00368002B00D170BD1D4A0B
:1032C0001068002804D10CE0002C0AD020002B68E4
:1032D0000268C4689342F7D10121FFF735FC002C46
:1032E000F4D1154B1C68002C0AD022682B682000F2
:1032F000E4689A42F7D10121FFF726FC002CF4D1B3
:10330000002EDBD03368002BD8D00C4B1A68002A73
:10331000D4D02B681168994205D0D268002ACDD04C
:1033200011689942F9D133681360D268002AF0D14C
:10333000C4E7C046C8DB0020CCDB0020D4DB002083
:1033400070B5446F0600002C18D06068256800280E
:103350000CD0FEF7A7FC21000420FEF7C5F8002DD5
:103360000AD02C00606825680028F2D121000420D2
:10337000FEF7BAF8002DF4D10023736770BDC04684
:10338000F0B5DE4657464E464546E0B583B00028C8
:1033900000D1C1E0624B1D88002D30D0614B6249E5
:1033A0009C46002362461380604B00221F68604BDE
:1033B00088461C880023002F28D01600954200D88C
:1033C0009DE0531CB1B29BB28C423DD8191B013910
:1033D000C9B2795C01293DD002293FD000290CD027
:1033E0009C4200D975E01B1BDBB2FB5C012B00D8B3
:1033F0008EE09A1892B20123DFE76246138003B091
:10340000F0BCBB46B246A946A046F0BD4649019174
:1034100009688A4614218946914495426FD95146DC
:103420004E46895D531C9BB2012962D002295DD0B2
:103430000029E2D001990968CB181B7D012B67D9BF
:103440009A1892B20123B6E7414609688919097DA5
:103450000129C1D11A0001360123AFE7911C89B2BD
:103460009C4221D81B1BDBB2FB5C042B4DD14B1CB7
:103470009D424ADDD31C9BB2043292B28C422FD8BB
:10348000091BC9B2795C09029C4225D9264E3668CF
:10349000F618337D0B43591E264E89B2B14200D92E
:1034A000254B4386012386E71F4E0196019E366811
:1034B000F3181B7D042B28D14B1CAB4225DAD31CFF
:1034C0009BB2002FD8D17118097D043292B2090243
:1034D000DEE715490191ADE71B1BDBB2FB5CD9E7C9
:1034E000114E36687118097D0902CDE7911C89B229
:1034F000DCE7012293461A00D94401238DE7002B13
:1035000000D17CE763461A8079E76346198076E745
:10351000634602321A8072E708480EF07DFAC04610
:103520002EDD02202ADD0220E0DB0020E4DB00208B
:103530002CDD0220B3050000B40500004CAD0110E5
:10354000F0B5D6464F46464605000C00C0B50028EB
:103550005CD0C368587B1A7B00021043FDF716FA53
:10356000C0074FD401239A46FE339846294E32684D
:10357000E36894465A79197912020A43997928899D
:1035800009041143DA792789120660440A43811A33
:10359000C91B2DD4587B1A7B00021043FDF7F6F9A6
:1035A0005346034207D127682000FFF739FA002F5E
:1035B00017D03C00DBE7EB68587B1F7B000207431A
:1035C0000120FDF7E3F941463843EA6883B22768F2
:1035D00008401B0A107353732000FFF721FA002FD5
:1035E000E7D100242C60E0BCBA46B146A846F0BD45
:1035F000101AF7D56346D21A91B268682981FEF78E
:1036000095FAEFE72000FFF7EFF9EAE702480EF03E
:1036100003FAC046A0DA002068AD0110F0B55746A5
:10362000DE464E464546E0B583B007000C1E0192CB
:1036300046D02D4B9B46662398462C4B9A465B46BC
:10364000E1681D684A790B7912021A438B79C879AF
:103650001B04134300061843FDF79CF92389060059
:103660009946E368AD1B587B1A7B00021043FDF7B7
:103670008DF94B46ED1A03231840431E98412D1A2D
:103680002AD460682568FEF719FB4346FB5A984226
:1036900027D842461B1ABB52524623891288200063
:1036A0009B1852461380FFF7BBF94346FB5A002B89
:1036B0000ED0002D01D02C00C1E7019B002B0DD0B6
:1036C000002003B0F0BCBB46B246A946A046F0BD00
:1036D000002DF5D02C00B2E72000F2E704480EF0F0
:1036E0009BF904480EF098F96416002028DD0220AA
:1036F000B8AD011090AD0110F0B5DE4657464E460C
:103700004546E0B5017D040083B0032901D800F0EF
:10371000BBFCAA4BAA4E1B783268DB0651D4A94BDE
:103720000093009B32681B889C46002B00D195E0DB
:10373000217D636A062900D991E0991A481E00D5B7
:1037400050E165468146D01A471EEF4200D54BE155
:103750009D4D6868002801D100F0C1FC9B4B994247
:1037600001D900F0B9FC028989B28A4201D200F085
:10377000B0FC2B89521A5B1A2B81438992B2994271
:103780000AD90027BC46C91A6346028143810068F2
:1037900089B243898B42F6D3FEF732FA636AEA684C
:1037A000190A5171190233601371090E1B0E9171C0
:1037B000D371238D002B00D065E2200002F0E6F8E3
:1037C00054E06023C35A9946836D9A46436D8048FE
:1037D0009F1A0190006858D4934253D04B46D34669
:1037E000824500D16CE1676CB8463F1A61D4754DD3
:1037F0002F880095BC46002F00D1D3E0636B002BCF
:1038000097D0A26B121A8CD5724A98B212883C23B8
:10381000E15E94466346CA1092B29B1A1B1A9BB291
:1038200059180DB219B2A587002903DA6346D21AD6
:1038300083189BB23E22A15EED108A10891A4022A5
:103840005B189BB2E3875B19A35200236363009B61
:1038500032681B889C46002B00D069E7636AD11A46
:103860000BD4218D013BCB189B1A06D403B0F0BCBE
:10387000BB46B246A946A046F0BD0222638B134365
:103880006383F3E753461B1AA8D5534B1B689F7BF2
:10389000DB7B1B023B436027E3530237E55B9D4222
:1038A00000D2E353676C8346B8466265A0653F1A51
:1038B0009DD54346DB43C34200D50CE1236D1B1A63
:1038C00000D508E14A23E75A463B1900628B1140B4
:1038D0008C46134200D08DE1E58F4433A946402544
:1038E000E35A9A463C21635E6146DB104B446353C6
:1038F00043460235C31A61539BB26064BA4501D393
:1039000000F0E2FB80200001024050424241608E04
:1039100001325043021C80B2984200D91A1C130095
:1039200053449BB2534500D282E14822A352E26E37
:10393000216F2000FFF772FEE16E02002067200079
:10394000FFF76CFE276FE0667B427B415B4223867C
:1039500000232377002800D16FE164211F4A635AB6
:1039600012889B186352638B1A0500D4B6E0002FAF
:1039700000D1C1E2F9684A790B7912021A438B79B6
:10398000C8791B04134300061843FDF703F8E36CE2
:10399000C01A00D5A2E0638B114A13406383094B20
:1039A00000939DE049465B4451448B4200D108E1BD
:1039B000636B002B00D024E7636A50E73CDD0220F4
:1039C000A0DA002030DD0220A42B0020FEFF000042
:1039D00064160020D8DB0020E0DB002028DD022078
:1039E000FFF7FFFF8146D01A002800DAE4E04846DE
:1039F000218DC14200D5E0E69A4200D142E1656FD7
:103A0000002D00D17DE2E868437901791B020B4368
:103A1000817909041943C3791B060B43934200D1F2
:103A20000EE1571EBC46D11A00D5ADE2A8462D685E
:103A3000002D5CD0E868437901791B020B43817942
:103A400009041943C3791B060B43934200D1F9E0E3
:103A50004146C9688A460979894651464F4649799F
:103A600009020F435146897909040F435146C97928
:103A7000090639436746791AD8D4991A0129D5D449
:103A8000C248FEF7DBFF071E00D196E64346D86822
:103A90003168437902791B021343827912041A4375
:103AA000C3791B06134342461289D2188A1A00D5DD
:103AB000A1E24346290038001F60FFF741FD7CE684
:103AC000B34B1B689F7BDB7B1B023B43994500D2BA
:103AD000E1E64B4687E6200001F058FFAD4B00932E
:103AE000636B002B00D11CE6019A106889E69B1AD3
:103AF00000D462E6037B407B00021843FCF746FFDC
:103B0000C00700D559E6A148FEF798FF4346186064
:103B1000002800D151E6D86832684179037909025A
:103B2000194383791B040B43C179090619434346A2
:103B30001B895B18D31A00D59DE2009B1988636A24
:103B40005B1A218D5B189B1A00D436E643461B682E
:103B5000DB68587B1A7B00021043FCF717FF4346D3
:103B60001B68C00700D595E23168228D5868521A4B
:103B7000616A891889B21981FDF7D8FF43461B682D
:103B80001D89DB68587B1A7B00021043FCF7FEFEA0
:103B90000322030013405A1E9341009AEB189BB274
:103BA00013803268616A9B18228D5218934200D1AB
:103BB00003E679480DF030FF0222638B13436383E1
:103BC000FBE53021635E002B00DAF1E6804500D092
:103BD000EEE64321635CFF2B00D1DEE10133DBB273
:103BE0006354032B00D9D8E100D0E1E6200001F0B6
:103BF0008FFD75E79A43482362830022E752223300
:103C0000E2523C21635EE18FDB105B18402163527E
:103C100043460231C31A62529BB260646A21625AFF
:103C2000D3189BB29A4221D8BB4220D263527EE67F
:103C3000012248235242E25279E66833E0528CE690
:103C40000023984651482B8902899A4200D8B4E54E
:103C5000FEF7F4FE002800D1AFE54346002B00D16B
:103C600099E118602900FFF76BFCA6E54B4B6A222F
:103C7000DB1BA352638EFB189BB2BB42D8D3223A04
:103C8000A35254E6414D2B899846EB68587B1A7B2A
:103C900000021043FCF77AFE032303405A1E9341AF
:103CA000009A43449BB21380228D934200D936E19F
:103CB000616F002900D12EE1EB68587B1A7B00026E
:103CC0001043FCF763FEC0076ED4636F0121984672
:103CD000894601318A464146009B32681B8800298B
:103CE0000BD1D4E143461B6840469B46FEF798FE45
:103CF0005B46002B00D161E1D8463268009B9346B9
:103D000042461B88D2689C465179107909020143CA
:103D10009079DC4400040843D179674609060143E1
:103D2000404600894018381A00D541E1507B137B8A
:103D300000021843FCF72AFE4B460342D2D0EB6840
:103D4000587B1A7B00021043FCF720FE53460342C7
:103D5000C8D1EB6801201A7B5B7B1B0213439B4697
:103D6000FCF714FE5B46EA68034398B21373030A38
:103D700053732B899B46FCF709FE032303405A1E0D
:103D80009341009A5B441380ACE7C046A42B00200B
:103D9000E0DB002030DD022024AE0110FFFF000038
:103DA00003686367FEF73CFE606F0028F8D1326855
:103DB000009B94461B88228D9C446146616293421D
:103DC00000D983E1D21A22852000FEF709FB6B6837
:103DD0001A89002A03D0C34A136000236B60EB6882
:103DE000587B1A7B00021043FCF7D0FDC00704D5B6
:103DF0002021BD4A13780B431370656F002D72D0DC
:103E0000B84B03279946B84B98461FE0FDF774FF5F
:103E100000236B60EB68587B1A7B00021043FCF7B1
:103E2000B5FDC0070AD5434620221B7813434246FE
:103E30001370237D042B01D1033323752B682800D5
:103E40006367FEF7EDFD656F002D4CD0EA6853798E
:103E500011791B020B43917909041943D3791B068D
:103E60000B43616A8B423ED133602B89507B9A466B
:103E7000137B00021843FCF789FD3840431E98412C
:103E8000636A5344C018238D60629A462B899B460F
:103E9000EB68587B1A7B00021043FCF777FD384033
:103EA000431E98415844824500D20AE12B899A4624
:103EB000EB68587B1A7B00021043FCF767FD384023
:103EC000431E9841238D50441B1A23852000FEF782
:103ED00087FA69680B89002B9CD04B46186800282C
:103EE00094D1196094E70122638B1A420FD0934357
:103EF000022213436383B9E4002800D14CE5C16872
:103F000039E57A48FEF79AFD6067FFF756FC012213
:103F100013436383AAE431688C469C444DE7EB6805
:103F2000587B1A7B00021043FCF730FDEB681A7BCC
:103F3000C0074BD4587B00021043238D2B81FCF724
:103F400025FD2989800702D5013989B22981686850
:103F5000FDF7ECFD2B899846EB68587B1A7B000235
:103F60001043FCF713FD032303405A1E9341009AAC
:103F700043449BB21380228D3068616A181851182F
:103F8000884200D194E614E65848FEF757FD002811
:103F900001D1FFF712FC606764E64822638EA15AE4
:103FA000CB189BB2994201D901235B42A3521DE673
:103FB000CA1B28D442466267228DFEE63268009B07
:103FC000944600221B8890469C44F3E75B7B1B02CF
:103FD000134318009846FCF7D9FC3E231840FCF721
:103FE000D5FC4246424B13400343EA6898B2137330
:103FF000030A5373A1E7C91A434689B25868198165
:10400000FDF794FD55E55B46C91AEB682981587B9D
:104010001A7B00021043FCF7B9FC800702D52B89FC
:10402000013B2B8129896868FDF780FD2B89994622
:10403000EB68587B1A7B00021043FCF7A7FC0323B4
:1040400003405A1E9341009A4B449BB21380424650
:10405000D0684179027909021143827912040A4336
:10406000C1790906114332688C469A188A42A1D058
:1040700020480DF0D1FC4346511A89B25868198185
:10408000FDF754FD326858E51B480DF0C5FC944619
:104090009C448FE7DB685D7B1A7B2D02154328006B
:1040A000FCF774FC3E231840FCF770FC4346104AB2
:1040B0001B6815402843D96882B2120A08734A73F4
:1040C00052E50E480DF0A8FC5746A7E50C480DF048
:1040D000A3FC0C480DF0A0FC0B480DF09DFC0B4818
:1040E0000DF09AFC94DA002043DD0220A42B00207E
:1040F000FFC0FFFF5CAE0110D8AD0110B8AE0110DB
:1041000098AE011014AE011004AE0110F4AD011010
:10411000F0B5DE4657464E464546E0B5040091B040
:10412000002801D100F0F6FD7A22954D954FAB5A4B
:104130000133AB5243683B604389132B11D8822271
:10414000AB5A0133AB527E22AB5A0133AB52200043
:10415000FDF7A8FD11B0F0BCBB46B246A946A0468B
:10416000F0BD894E3168706905F002FF002816D154
:10417000F02273691340E02B11D031003300143169
:1041800022892000009110330621FCF701FF8046B0
:10419000002809D08022AB5A0133AB52D3E78822E2
:1041A000AB5A0133AB52CEE73B68587B1A7B000217
:1041B0001043FCF7EBFB010B8900C9B21329BED9F0
:1041C00023898B42BBD30B004046704A143B9BB201
:1041D000138091466E4A1060924662898A4200D3EB
:1041E00004E32368002B01D100F055FE14212000C8
:1041F000FDF706FD6389200098464246654B41461F
:104200001A804B461B8899469B1A9BB29B46FDF72A
:10421000F7FC206843895B4500D290E7524643682B
:1042200059461360FDF7ECFC4A46238943449B1A28
:1042300062899BB22381002A01D000F032FE2268FD
:1042400012899A4201D000F029FE3B689846424606
:1042500050781B7800021843FCF798FB434618700F
:10426000000A58703B6898464246D0789B78000216
:104270001843FCF78BFB43469870000AD8703B68E4
:104280009846424652791B7912021A4343469B795B
:104290001B0413434246D07900061843FCF77AFB0F
:1042A000434642461871030A5371030C9371030E7F
:1042B000D371394B099318603B6898464246527A4D
:1042C0001B7A12021A4343469B7A1B04134342464D
:1042D000D07A00061843FCF75DFB4346424618724D
:1042E000030A5372030C9372030ED3722B4B089381
:1042F00018603B6898464246D07B9B7B000218437F
:10430000FCF744FB43469873000AD8733B68587B1C
:104310001A7B00021043FCF739FBC3B205933F231D
:104320001F4A034007930A92137023899B46800714
:1043300000D161E21B4A01339BB20D930C921380B2
:104340009B4500D9FBE6184B19680B933B68002985
:1043500000D133E17268002091463269A04692464E
:1043600072694C4606923C2294465A46A9460E92E1
:1043700055460A00B246BB4606000F911CE0C046F7
:10438000E02B0020E0DB0020B42B00202EDD0220FB
:10439000E4DB00202CDD0220A0DA002064160020DF
:1043A0003CDD022030DD0220C8DB0020D168160091
:1043B000002900D1FEE00A00117D002901D100F0A2
:1043C0009FFC0A2901D100F098FC012901D100F0DD
:1043D00091FC107A002805D06146615C0131C9B2B8
:1043E0008842E3D159781F78108B090239438842FB
:1043F000DCD1D9789F78D08A090239438842D5D157
:104400005168A942D2D1116806988142CED1444662
:1044100090460E9A5F4693464246D2684D460F99A3
:10442000424501D100F0F8FC002E01D100F088FCDB
:10443000F26042464046D1600B9A1060414501D17E
:1044400000F041FD00225946934EF360934B3260D9
:104450001A609A46924B31811A709946914B74605A
:104460009B461A80059B1B0703D50122637B1343E0
:10447000637343469B6F002B11D04046FEF750FEFE
:104480000D3000D13CE243469B6F002B04D00C9BC7
:104490001B88002B00D033E20A9B1B78079343460E
:1044A000814C079A2360110004231940134200D164
:1044B000DBE143461B7D022B00D181E34246099993
:1044C000526A09688A4200D125E24B46881A1B7855
:1044D00000280ADB4046008D521AD04205D44246DD
:1044E000518B02220A4341464A8308221340002B83
:1044F00000D01FE25B461A88002A0BD08023414679
:10450000CB58002B03D0086998470D3046D00023C4
:104510005A4613804B4610211B78194200D0C3E342
:1045200053461A68002A20D043469B6F002B01D0C7
:1045300000F07CFC4346588B03000B40084201D03E
:1045400000F00CFC842140464558002D01D100F0BC
:1045500027FC41460069A84703000D331ED0002800
:1045600003D0534642461B6893674B461A78202374
:104570001A4208D04246926F002A01D100F0F6FBA1
:10458000517B0B435373002323604B461A7810234F
:104590001A4200D0C1E3404601F01EFA00255346FE
:1045A000706825601D60002800D1D3E5FDF77AFB17
:1045B0007560CFE544464D465F4656463B4A106817
:1045C000002851D0726829009446326965469146A8
:1045D000A2463C22B8468C4602E0C068002840D083
:1045E000017D0A2900D0A8E3047A002C04D0A95C3C
:1045F0000131C9B28C42F0D159781C78078B09027D
:1046000021438F42E9D1D9789C7809022143C48A99
:104610008C42E2D141684945DFD101688B4671691E
:104620008B45DAD1059AA0465446530700D58EE54E
:10463000930700D48AE3099B1A68436AD51A05D404
:10464000058D9B1AEB4201D400F02EFC0D9B002B34
:1046500000D17CE50223428B1343438301F0BCF974
:1046600075E5544665464746114A11680792002988
:1046700000D1CBE07268A8469446726906919346D1
:10468000002291463C3292464D460A00B9465F46AA
:10469000B3466646A44613E0A42B002094DA00201B
:1046A00043DD022028DD0220D0DB0020DCDB0020FF
:1046B000D4DB0020D1681500002900D1A2E00A0057
:1046C000107A002805D05146715C0131C9B2884288
:1046D000F0D1D9789C78D08A090221438842E9D167
:1046E0001168B94201D00029E4D14F46A946454698
:1046F00090464A4664460699B4465E46002A00D172
:10470000AEE042464846D268C2604246D160079950
:104710000A6005994A0700D519E5CA0600D5D5E013
:104720000B009B0700D412E54346587DFEF7E2FAE2
:104730008146002800D1C6E233697269436043466E
:104740000260DB8A099DC3823B681A785B781B0292
:1047500013430383032303752B6801334362C3624E
:10476000FEF776FD4B464A46986518655864D8654D
:104770002B684946013B536543461B6913614B4611
:104780004246DA670C23527A13404A465372434634
:104790001B7A13720B9A13681160CB6001F028FD2D
:1047A0000122DA4B48461A70FEF7EAFD3B689A7B15
:1047B000DB7B1B0213431A0413434A46151D136681
:1047C0002800568E05F092F82A0001003000FEF70E
:1047D00053FD4B4612215886484600F079FE0028CA
:1047E00000D081E2484601F0F7F8B0E4C84A200062
:1047F0001380FDF705FA28E55A46C64B0D920C9337
:104800001A80A0E5644645464F465E46587B1A7BB3
:1048100000021043FCF7BAF8400700D597E488225D
:10482000AB5A09990133AB520A3AAB5A3868013393
:10483000AB520C9A09681288057852184178B64B29
:10484000090229430291C17885780902294301911F
:10485000B249009108997068096800F0FFFF76E49A
:104860008E216A5A01326A5253E7150043462800E6
:104870005A8B022318402B426DD04046007D0238EF
:10488000012800D90CE21023100018401A4200D071
:1048900039E24246A24B1B681362A223D052404623
:1048A000FEF76EFD43461B7D9A1E012A09D8032B95
:1048B0007BD14346099A5B6A1268013B934200D15F
:1048C0000CE34B4608221B78134010E60D995878EC
:1048D00088461E78099A08990002304312680968D0
:1048E0000290D8789E788C4D000230430190281FAA
:1048F00000902B006046424400F0B0FFFFF727FC19
:1049000043465B8D002B00D169E17E22AB5A854C7A
:104910000133AB5242E6002B00D19DE24B46082208
:104920001B7813434A461370434601225B8B934323
:104930004246538390234246D358002B03D00E2186
:104940001069494298470B984146FEF799F840464E
:10495000FDF738FD22E6102319001140134200D064
:1049600036E142466E4B40461B681362A223D15289
:10497000FEF706FD43461B7D092BA2D86A4A9B0021
:10498000D3589F464046FEF7B7FE4B461B789A0623
:1049900000D4AAE54246518B02220A4341464A838B
:1049A00007220A7501321340A1E51223079A13402A
:1049B000122B00D117E1079BDB0600D481E70C9A8C
:1049C00009993D6809681288287852186978524B0D
:1049D000090201430291E978A87809020143019193
:1049E0004E49404600910899096800F0C3FE4223F1
:1049F0004246D35C052B00D963E70023404613866B
:104A000001F026FA4B4608221B7813406FE540461A
:104A1000FEF772FE10220A9B1B78134200D150E76A
:104A200041464B46086D08991B780968884200D0BA
:104A30005BE54146C96E002900D056E549461A4358
:104A40000A7052E54046FEF757FE4B461B789A0621
:104A500000D44AE543465A8B02231343424640465C
:104A60005383FEF701F80B9B41461B68434505D174
:104A700077E2DA688A4200D162E21300002BF8D1B3
:104A8000884660E24046FEF737FE4B461B789A06A2
:104A900000D48CE14246518B02220A430A990978DC
:104AA000C90606D54146086D08990968884200D1B3
:104AB00096E141464A8308220A75134017E54046AD
:104AC000FEF71AFE0A9B1B78DB0600D4F9E6434684
:104AD0001A6D089B1B689A4200D0F2E64346DB6ED3
:104AE000002B00D0EDE64046FDF7BEFF0B9B414694
:104AF0001B68434505D134E2DA688A4200D11FE2DF
:104B00001300002BF8D188461DE2C04645DD022087
:104B10002CDD022030DD0220C82B0020C42B002019
:104B2000D8DB0020D0DB0020BCB00110079BDB06E7
:104B300000D4C6E6089B196843465B6CDB43CB4256
:104B400000D58CE143461B6D5B1A00D587E1042339
:104B500042461375D36F002B00D102E19B69002BF5
:104B600000D1B8E14146002208699847002800D0EA
:104B7000ACE14046FEF7C0FD5B461B88002B02D02F
:104B80005A46013B138043465B8ED9485A001100B8
:104B90009B00824200D201008B4200D355E19BB2C0
:104BA000482241468B524B461B789A0600D49CE41F
:104BB0000222498B0A4341464A8307220A7594E43C
:104BC00043461A6D089B1B689A4200D1A6E678E618
:104BD00042469233D0524046FEF7D2FBCAE64046E8
:104BE00000F0D4FE91E6089B1A6843465B6C0133E3
:104BF000934200D0DFE64046099A436412683B685E
:104C0000511C4162C162997BDB7B013A1B020B4361
:104C100019040B4303660423051D0375478E426583
:104C2000280004F063FE2A0001003800FEF724FB90
:104C30004346420058868300AD481100824200D2AC
:104C400001008B4200D3EAE09BB2482241468B52DE
:104C50001E328B5A002B00D1F1E0086F013B8B52C2
:104C6000002800D1E5E003680B67FDF7D9FE434655
:104C70001B6F002B00D1CCE00023422241468B5415
:104C8000424613868823D358002B06D04146002283
:104C9000086998470D3000D180E443465A8B0223BF
:104CA0001343424653830CE643465B8B0B4200D0D2
:104CB00049E690234246D358002B00D143E61069C1
:104CC0001F3998473FE68422AB5A0133AB52434623
:104CD0009B69002B01D1FFF73AFA40460021853A43
:104CE00000699847FFF733FA00214846FDF72CFF8B
:104CF000FFF72DFA7F480CF08FFE7F480CF08CFEFA
:104D00007E480CF089FEA22342464046D152FEF76F
:104D100037FBC7E57A480CF07FFE4246528B1A42B9
:104D200000D010E642468033D358002B00D10AE66B
:104D30000F2110694942984705E672480CF06CFE55
:104D40008E216A5A01326A52FFF77CFB059BDB0712
:104D500000D47BE46C4B1B68036277E41000FCF723
:104D6000A1FF4046FDF7C0FFFFF718FC4346674A26
:104D70001B8D934202D04246013313858423424661
:104D8000D558002D01D1FFF7FEFB002341461A0044
:104D90000869A8470D3001D0FFF7F5FBFFF7FEFBD0
:104DA0002B0041462800FEF755F9FFF7D5FB0A9A7C
:104DB0001278D20601D4FFF798FB4246116D089A8B
:104DC0001268914201D0FFF790FB4246D26E002A52
:104DD00001D0FFF78AFB414606320A75FFF785FBD3
:104DE0004146C96E002900D063E6434640465A83D7
:104DF000FDF73AFE0B9B41461B68434505D1B0E0E9
:104E0000DA688A4200D19BE01300002BF8D1884673
:104E100099E001235B4233E73D480CF0FDFD344946
:104E20000B008A4200D810E793B20EE739480CF025
:104E3000F3FDC86E002805D00368CB6615E7364839
:104E40000CF0EAFD35480CF0E7FD29490B008A42D9
:104E500000D8A5E693B2A3E631480CF0DDFD0C9A2C
:104E6000099D38682D6812880778521945782D4BAE
:104E70002D023D4302958578C078000228430190B9
:104E800029480090404600F075FC4B4608221B78EC
:104E90001340FFF72CFB25480CF0BEFD24480CF016
:104EA000BBFD24480CF0B8FD41460D9D0191AC4678
:104EB0001D490297009108991A4B0968624400F055
:104EC00059FCFFF744F91C480CF0A6FD0D3001D148
:104ED000FFF764FB45E719480CF09EFD404600F0E3
:104EE000C9FB4B4608221B781340FFF700FBC04666
:104EF0001C11000084AF011058AF011030AF011039
:104F0000DCAE011004B00110D8DB0020A02D0000A1
:104F1000ACAF0110A0B0011054B001106CB0011082
:104F200034B00110C82B0020C42B0020F4AE0110B7
:104F300010AF011004AF0110D8AF011080B0011004
:104F40008846CA68DA600122084B41461A70424618
:104F50000A231375064B1A681960CA6001F048F9F4
:104F6000AFE443460B9ADB681360ECE745DD0220B3
:104F7000DCDB00201021024A13780B4313707047CA
:104F800043DD0220F0B54F464646D646C0B59946A9
:104F900008AB80460E0092461F7800285FD000299B
:104FA0005AD00425BB0004201D40FCF77DFA041EE6
:104FB0004DD000238772036046603389AB4251D3E2
:104FC0005B1B038114213000FCF7F2FD061E34D177
:104FD0006368AD025F684346E760D88AFBF7D6FC9A
:104FE00043463870000A7870188BE768FBF7CEFCF0
:104FF000B870000AF8704846E768FBF7CBFC030E70
:10500000FB71E368020A9846A023DB0138717A71CC
:10501000020CE818534603431800BA71FBF7B6FCBC
:1050200043461873000A5873E3689E74DE742000C8
:10503000E0BCBA46B146A846F0BD8C210B4B20001F
:105040005A5A002401325A52FDF7EAFCEFE73000C9
:10505000FCF728FE0024EAE705480CF0DDFC0548D3
:105060000CF0DAFC04480CF0D7FCC046E02B002022
:1050700004B10110E4B0011028B10110F0B54746A9
:10508000CE4680B505000C0090461E0085B0002974
:105090004DD0002838D0007A00282BD1180004F019
:1050A00025FC071E2AD063682289994606214346BB
:1050B00020000096FBF76CFF4B461874000A5874EA
:1050C000EB7AAD7A78211B48425A013242520622CD
:1050D00000950192414632002000029704F0C4FD81
:1050E00005002000FCF7DEFD280005B0C0BCB94675
:1050F000B046F0BDFCF7FCFB071ED4D10425200010
:10510000FCF7D0FD6D42EFE7180004F0EFFB071E3F
:10511000F4D0656843462289062120000096FBF7FB
:1051200037FF2874000A6874FF230025CAE7024885
:105130000CF072FCE02B002054B10110F8B54E4683
:105140004546DE465746E0B50500160000284DD01E
:10515000A022436A14319846C38A89B29A46038BC7
:1051600092009946438D22209B46FCF72FFC071E98
:1051700035D04389132B3CD944685046FBF706FCD5
:105180002070000A60704846FBF700FC330AA070EC
:105190002671000A6371330C360EE070A37140462D
:1051A000E671FBF7F7FB030A20726372030C000E33
:1051B000A372E0721048FBF7E9FB2073000A6073EA
:1051C0005846FBF7E3FB0023A073000A23746374C3
:1051D000A374E374E0736A8D6B6A9B18EB6238000A
:1051E000F0BCBB46B246A946A046F8BD03480CF049
:1051F00013FC03480CF010FC1050000080B10110AB
:10520000A8B10110F0B54E46DE4657464546E0B51A
:105210000C00060083B0002800D1BFE0C56E002D51
:1052200000D1AFE0002900D1B5E02B899A468B422E
:1052300000D88EE0438E8B4200D2B2E00422AB7ADB
:1052400036209B469B001A4053465F1ABFB2D119C5
:105250009146A02289B29200FCF7B8FB8046002854
:1052600000D192E068682A8903899B1A42465168F6
:10527000E3183A009BB24944FCF736FEB84200D02E
:1052800078E0EB68587B1A7B00021043FBF77EFB4B
:1052900008230700C2B21F40184262D137331340BF
:1052A00099460122012349460B4202D0994389467F
:1052B0001700E9684A790B7912021A438B79C87989
:1052C0001B04134300061843FBF764FB5A462318DC
:1052D000009241463A003000FFF754FE071E54D0BA
:1052E0006868FCF7EBFC662398464246F35A1B1AA3
:1052F000B35253466868E41A0189A4B2611889B2AE
:10530000FCF714FC2B894846E418EB682C811C7BC5
:105310005B7B1B021C43FBF739FB2043E96882B22D
:10532000120A08734A736868FCF7C8FC4346F35ACC
:10533000C0184346F0527868FCF7C0FC4346F35A65
:10534000C0184346F0522B683B602F603B68002B2F
:105350000DD0002003B0F0BCBB46B246A946A04623
:10536000F0BD372313409946092208279AE768229F
:10537000B352EEE784210C4B40465A5A01325A523E
:10538000FCF790FC01204042E4E78421064B5A5A86
:1053900001325A52F6E705480CF03EFB04480CF087
:1053A0003BFB04480CF038FBE02B0020FCB1011063
:1053B000D8B1011020B2011070B5040082B00028ED
:1053C00000D171E0C36E002B0CD01D001B68002BB8
:1053D000FBD1EB68587B1A7B00021043FBF7D6FA2F
:1053E000400740D0A022002136209200FCF7EEFAC0
:1053F000011E4BD00022E36D200000920132FFF726
:10540000C1FD002842D0C3689B0750D10389002BFF
:1054100050D1E36E002B24D01A001B68002BFBD167
:10542000106068230022E2522022E36D40680133BD
:10543000E365638B13436383FCF740FC6623E25A06
:10544000801880B2E052002802D1002002B070BD66
:10545000236F002BF9D1E36E002BF6D117480CF027
:10546000DBFAE066DDE7EB68587B1E7B0002064353
:105470000120FBF78BFA3043EA6883B21B0A1073F2
:1054800053732022638B13436383DEE78022638B95
:1054900084211343638384230120094A4042D35A61
:1054A00001339BB25352D1E706480CF0B5FA0648D7
:1054B0000CF0B2FA05480CF0AFFAC04690B20110F9
:1054C000E02B002030B201104CB2011064B2011088
:1054D000F0B5C646032700B504000D0082B00F42A8
:1054E00065D0002860D0A0228B07DB0F9E00310022
:1054F000362092009846FCF769FA011E40D0438995
:10550000B34257D34246E36D200000922A00FFF7D2
:1055100039FD002834D0C3683B4242D10389002BB7
:105520003CD1E36E002B29D01A001B68002BFBD165
:10553000106068230022E252E36D0133E365ED075A
:1055400003D52022638B134363834068FCF7B6FBCB
:105550006623E25A801880B2E052002804D100206D
:1055600002B080BCB846F0BD236F0020002BF7D1FD
:10557000E36E002BF4D111480CF04EFAE066D8E748
:105580008022638B842113436383842301200C4A8C
:105590004042D35A01339BB25352E1E709480CF021
:1055A0003BFA09480CF038FA08480CF035FA08487C
:1055B0000CF032FA07480CF02FFAC04690B20110F6
:1055C000E02B002064B201104CB2011010B30110A6
:1055D000B8B2011030B30110F0B5C646050000B5F1
:1055E000002841D0026F002A39D014006368266871
:1055F0009B7B002E07D0012B31D1340063682668D5
:105600009B7B002EF7D1012B29D1EB6EE168236043
:105610008023EA666A8B1B0113432E676B834A79EA
:105620000B7912021A438B79C8791B0413430006C5
:105630001843FBF7AFF9238907009846E36847440E
:10564000587B1A7B00021043FBF7A0F903230340A9
:105650005A1E9341DB190020EB646E6301E00620C3
:10566000404280BCB846F0BD01480CF0D5F9C046B8
:105670006CB30110F8B5071E45D0066F002E3CD064
:1056800073689B7B012B38D1050033686C35036749
:10569000C36E002B04D121E02D682B68002B1DD098
:1056A000D9684A790B7912021A438B79C8791B049D
:1056B000134300061843FBF76DF9F16804004A79BB
:1056C0000B7912021A438B79C8791B041343000625
:1056D0001843FBF75FF9241ADED42B6833602E6081
:1056E0003368002B0CD04222BB5CFF2B01D001336E
:1056F000BB54002300207B6301E006204042F8BD3C
:105700006822BB52EFE701480CF086F990B3011014
:1057100070B5041E28D0036F002B02D0438B5B07AB
:1057200000D570BDFFF7A6FF0028FAD160234821FD
:10573000E25A605A131C824200D9031C4A209BB2D1
:105740005D105B082352628E51008D4201D28BB2F4
:10575000235252189B184822A3520422638B1343EE
:10576000638300232386DCE701480CF055F9C0462B
:10577000A8B30110F0B55746DE464E464546E0B5A3
:1057800083B01F000CAB904604CB01901B8808002F
:105790009B460EAB1B8891469A46002F4BD0002AA1
:1057A0004CD0FBF7F7F8A02205001421222092002C
:1057B000FCF70CF9061E37D04389132B41D94468F6
:1057C0005846FBF7E3F82070000A60705046FBF77C
:1057D000DDF82B0AA0702571000A63712B0C2D0EC9
:1057E000E070A3714046E571FBF7D4F8030A20721C
:1057F0006372030C000EA372E0721348FBF7C6F845
:105800002073000A60731148FBF7C0F80023A073EF
:10581000000AE07323746374A374E3743A004B4684
:1058200031000198FFF72AFC03B0F0BCBB46B2463A
:10583000A946A046F0BD06480CF0EEF805480CF06D
:10584000EBF805480CF0E8F8145000002DA000001B
:10585000C8B30110E4B30110A8B10110F0B5574668
:105860004E46DE464546E0B587B01F0010AB0592B8
:1058700004CB06001B880800994612AB1B88924691
:105880009B46002E65D0002F00D16CE0002A67D027
:10589000FBF780F8A0228046142122209200FCF71A
:1058A00095F8051E55D04389132B5FD944684846A7
:1058B000FBF76CF800232070000A60705846994688
:1058C000FBF764F8434623711B0A637143461B0CC4
:1058D000A3714346A0701B0E000AE070E3710598A7
:1058E000FBF758F8030A20726372030C000EA372D0
:1058F000E0722048FBF74AF82073000A60731E48E4
:10590000FBF744F84B4623746374A374E374534663
:10591000A073000AE0732A896C68062100932800AE
:105920003B00FBF735FB78212074144B000A6074B0
:105930005A5A280001325A52062301934B465246C6
:10594000009339000296FF3304F08EF92800FCF72B
:10595000A9F907B0F0BCBB46B246A946A046F0BDC7
:1059600007480CF059F807480CF056F806480CF0B8
:1059700053F8C046145000002DA00000E02B00207A
:10598000E4B30110C8B30110A8B1011010B5041E92
:105990001DD0006DFAF7FEFF002102002000FFF786
:1059A000CDFB011E0DD02200231D2000FFF766FB5A
:1059B0000322638B002802D19343638310BD1343FA
:1059C000FBE703220220638B40421343F5E70148C3
:1059D0000CF022F800B40110F0B5DE4657464E46F2
:1059E0004546E0B5040089B0002800D113E2037DEC
:1059F000012B00D10CE2D04B1B6883423ED04823E0
:105A0000C56EC65A1833C75A002D30D0031D007A10
:105A10009846002800D0DFE1180003F067FF8146B8
:105A20004B46002B00D1EAE12368002B02D14B4604
:105A30005B682360331CBE4200D93B1CE9689FB2FF
:105A40004A790B7912021A438B79C8791B041343E4
:105A500000061843FAF79EFF2B89626C9B1A1B18ED
:105A6000BB4213D96023E35ABB4200D12CE1638BC4
:105A70009A0700D524E1802293436383002009B074
:105A8000F0BCBB46B246A946A046F0BDA123002209
:105A9000E254236F002B00D126E11A001B68002B73
:105AA000FBD19246A54B0693A54B07934346B846B8
:105AB000059309E0002E00D0DBE02800FCF7B0FFE2
:105AC000E56E002D00D195E1E9684A790B79120263
:105AD0001A438B79C8791B04134300061843FAF75D
