:020000041000EA
:1000000000B5324B212058609868022188439860DF
:10001000D860186158612E4B002199600221596106
:100020000121F02299502B49196001219960352056
:1000300000F044F80222904214D00621196600F024
:1000400034F8196E01211966002018661A6600F04E
:100050002CF8196E196E196E052000F02FF8012189
:100060000842F9D1002199601B49196000215960AB
:100070001A491B48016001219960EB211966A021F2
:10008000196600F012F800219960164914480160C1
:100090000121996001BC002800D000471248134993
:1000A000086003C880F30888084703B5996A0420EC
:1000B0000142FBD001200142F8D103BD02B5186610
:1000C0001866FFF7F2FF186E186E02BD00000240BE
:1000D000000000180000070000035F00212200005C
:1000E000F4000018222000A00001001008ED00E03C
:1000F00000000000000000000000000074B24E7A12
:1001000000200420F7010010C3010010C5010010F9
:10011000C1010010C1010010C1010010C101001097
:10012000C1010010C1010010C1010010C701001081
:10013000C1010010C1010010C9010010CB01001065
:10014000CD010010CD010010CD010010CD01001037
:10015000CD010010CD010010CD010010CD01001027
:10016000CD010010CD010010CD010010CD01001017
:10017000CD010010CD010010CD010010CD01001007
:10018000CD010010CD010010CD010010CD010010F7
:10019000CD010010CD010010CD010010CD010010E7
:1001A000CD010010CD010010CD010010CD010010D7
:1001B000CD010010CD010010CD010010CD010010C7
:1001C00000BE00BE00BE00BE00BE00BEEFF3058054
:1001D000103800BEF2EB8871201805104418051085
:1001E0003402001090A31AE700201F49086006C8D7
:1001F00081F3088810471D48006800282FD10DA4FE
:100200000ECC002902D000F012F8F9E71849194A7B
:10021000002000E001C19142FCD1174988471749ED
:1002200088471749884700BEFDE701C901C29A42C5
:10023000FBD3704744180510C0000020440B002079
:10024000C82205100000042000000420C822051068
:10025000001004200010042000000000704709482E
:1002600000F06CFF0047000008ED00E0000000D047
:10027000680B0020A4CF022065150110B506001000
:100280008D1601105756000006005250ABB3605354
:100290005817051006005250861C030268170510F7
:1002A000060052505422A29D7417051005005250AA
:1002B000DE65F468C8220510F8B5C046064807494F
:1002C000091A8B10C90FC91810B5491003D0044B77
:1002D000002B00D0984710BD440B0020440B002099
:1002E00000000000054B10B5002B03D00449054861
:1002F00000E000BFFFF7E2FF10BDC04600000000B5
:1003000088BA002050800110002370B582B001939C
:1003100017F070F802221D4B04241A601C4B1D4E6E
:100320001A688023DB015340E022D20113401A4AAD
:100330001A4D1360FA20800016F0AAFB8021134B9F
:10034000134A1C60490013680B42FCD0506880B20D
:1003500013F04CF9124913F042F9124913F025F940
:10036000114913F028F9011C104813F01EF901A9D6
:10037000019000230422306814F048FD0023042279
:10038000286801A914F042FDD4E7C04600E004400B
:1003900000C004406CCE002000D0044070CE00208D
:1003A0003333533A6ABC343F2D93E13A0000D841CD
:1003B000F0B51F4B57464E464546DE469A461D4B06
:1003C000002498461C4BE0B599461C4F1C4E83B048
:1003D000534618680123042269465B4214F0EEFD7F
:1003E0003D68201CAB009B46F15813F0DEF85B46DD
:1003F000011C0098F05013F0DBF80A21041C681C63
:1004000012F020FD434618683960092801DC0130EC
:10041000186013F0F1F8011C201C13F0CCF84B46C7
:1004200001900422186801A9002314F0EFFCCFE723
:100430006CCE0020DC11002078BA0020C8200020FB
:10044000901B0020F0B50024104F114D114E83B0C9
:10045000012304225B426946386814F0AFFD00991D
:10046000201C13F0A5F8041C28680130286013F044
:10047000C3F8011C201C13F09EF8002301900422F5
:10048000306801A914F0C2FCE2E7C04670CE00203B
:10049000D811002030CE0020294BF0B557464E46EB
:1004A000DE4645469B46274BE0B59846264B274FF0
:1004B0009946274B274E9A46274C83B001230422A6
:1004C00069465B42386814F079FD012304225B42DF
:1004D00001A9306814F072FD042380211F4A2360B3
:1004E000490013680B42FCD05568584613F00AFACD
:1004F000A8B213F07BF81A4913F071F8194913F0F8
:1005000054F8194913F057F8011C184813F04DF826
:1005100013F094F802000B00404613F0E5FA00983F
:1005200013F08CF802000B00484613F0DDFA019836
:1005300013F084F802000B00504613F0D5FABDE723
:10054000508001106C8001109080011078BA00205A
:10055000BC80011030CE002000E0044000C0044008
:100560003333533A6ABC343F2D93E13A0000D8410B
:1005700010B50CF02BF8002817D10BF0C3FF0D4875
:1005800013F0C0F90C490D480D4B0E4A0BF0C8FF93
:10059000002806D10C4813F0B5F9642016F078FA5B
:1005A000FBE70A4813F0AEF9F7E7094813F0AAF998
:1005B00010BDC04600810110188101102481011076
:1005C00030750000040040003C81011028810110BA
:1005D000E880011070B580240125072688B06400EA
:1005E00003AB22000193254900230095244815F010
:1005F00055FF04AB220001932249002300962248B4
:1006000015F04CFF05AB2200019320490023009612
:100610001F4815F043FF06AB01930523220000930A
:100620001C4900231C4815F039FF07AB2200019339
:100630001A49002300951A4815F030FF01220021C5
:100640003C2014F0C1FB174B0122186000213C2014
:1006500014F0BAFB144B0122186000213C2014F066
:10066000B3FB124B0122002118603C2014F0ACFBBC
:100670000F4B186016F06EF808B070BD488101107D
:100680000903001060810110B10300107081011096
:100690004504001084810110990400109481011018
:1006A000710500106CCE002070CE002078BA0020BA
:1006B00030CE002010B513F023FA0449044813F09B
:1006C00013FAFFF787FF002010BDC046A481011078
:1006D000B481011010B507F09FFF10BDF8B50123DC
:1006E0000B72040007F0CCFF0500431C0BD1104B2C
:1006F000186859680F4B22689860D960190020006B
:1007000052699047F8BD01F067FFFA2206000F001A
:10071000002328000021920012F02AFF8023801974
:1007200079411B069942E5D3012003494042E1E7A4
:1007300008820110D0040020FFFFFF7F70B5094D33
:1007400004002B78002B08D00123074920000B72EE
:100750002368DB699847012070BD02F0E9FA0123A4
:100760002B70F1E794CF0220E804002010B50400BC
:10077000036804499B6998472368200002491B6A63
:10078000984710BDD0040020E804002000207047E6
:100790007047C04610B501F01FFF002905D0FA22AE
:1007A0000023920012F0B4FB10BDFA21890012F070
:1007B00071FBF9E783680830002B04D107E01800CB
:1007C0001B68002B03D09942F9D1002003E00023DD
:1007D000016001200B6070478368002B08D09942AC
:1007E00002D107E0994206D018001B68002BF9D10E
:1007F0000020704708300B6803600120F9E7C0460D
:1008000043680430002B04D107E018001B68002B5C
:1008100003D09942F9D1002003E0002301600120B8
:100820000B6070474368002B08D0994202D107E063
:10083000994206D018001B68002BF9D100207047A0
:1008400004300B6803600120F9E7C046F0B5574655
:10085000DE464646C0B53E4B82B05C681B680093DE
:10086000019483688246002B2CD0082353449B4676
:1008700001F0B2FE53469B6804000D00002B21D00E
:1008800000225F461E0094469846B268F368200036
:100890002900801A9941002902DB14001D00BC4682
:1008A00037003668002EF0D162464346002A48D011
:1008B000116850460B6813604B68984753469B6815
:1008C000002BD5D153465C68002C29D00025564614
:1008D000237A002B31D021006368257230009847BD
:1008E0002468002CF4D1B168B246002918D0009CCD
:1008F000019D0E0003E004000D00002E0ED0330019
:1009000022009868D9682B00121A8B413668002B98
:10091000F1DCF2D1002AEED1002EF0D10094019545
:10092000009B019C5246180021001361546102B0E3
:10093000E0BCBB46B246A846F0BD2468002CC7D137
:10094000D1E7190053465C68002CBFD1CFE7C04601
:1009500008820110F0B5C646804600B501F03CFEA5
:1009600043469B6806000F00002B03D10EE01B6876
:10097000002B0BD09C68DD6831003A00091BAA41AE
:10098000002AF4DB012080BCB846F0BD43465B681A
:10099000002B03D106E01B68002BF4D0187A002846
:1009A000F9D0F0E70020EEE7024B18688007C00F8F
:1009B0007047C04600C0064070B50F4C0F4D104A3E
:1009C00024184D41A900A00F0843A90F69400D4B01
:1009D000604012F0CDFD4A01C30E1343CA0E5840C9
:1009E0005140094B094A12F0C3FD4A00C30F13439B
:1009F000CA0F5840514070BD157C4A7FB979379E67
:100A0000B9E5E41C6D4758BFBB49D094EB113113D5
:100A1000F0B504684568060023002A00C6468068D1
:100A2000F16803430A4300B5134304D101F0D4FD38
:100A300003000B43FAD02A06230A6040270613431B
:100A40002A0A3A43070CBC4669404B409846634625
:100A50000F041F43424003045A4043467B40326028
:100A60007360C20E4B011343C90E40010843B360CB
:100A7000A10FAB000B43A20012196B41F060D9012A
:100A8000500E0843D201590E11430C0005004B0FC4
:100A9000C1001943E0000019694180BCB846F0BDAF
:100AA000F0B5DE4657464E464546E0B5BC4991B0E6
:100AB00008910978002900D1E5E00CAB9846B94BC4
:100AC000B94C0293B94BBA4E059310220599404692
:100AD00012F04AFEB74B06931B78DBB2079301F086
:100AE0007BFDFFF769FF0C9B4340089343465B681F
:100AF0004B400993B04B9B69DB0433D5AF4BDA6BAA
:100B0000E0231340402B2DD0EFF305839A46AC4BE6
:100B10002768994600239B463300564665689A46E7
:100B200038002900002E1AD001F094FDEFF3108256
:100B300072B64B461B68002BFBD0BFF35F8F236858
:100B4000BB4212D0BFF35F8F4B465946196082F308
:100B500010882768656838002900002EE4D101F06C
:100B6000D5FBE3E710F0B4FDCEE76368AB42E9D113
:100B7000914B1500DF6901F02FFD0A220023801838
:100B800059410B0080215646020009068B4202D3D0
:100B900001228C4B524201200CC4326873689218B7
:100BA0005B41384010430024009201933060736031
:100BB000BFF35F8F824A146085F310880199FFF7B5
:100BC000FBFE43469B68424658404346DB689060C4
:100BD0004B40D3607C4A029B94461B787B4ADB00E7
:100BE0006344986890424CD00021FFF7E5FE089BD3
:100BF00043400C93099B4B40190043465960EFF367
:100C0000108572B66E4A1368002BFCD0BFF35F8F5D
:100C1000069B079A1B78934214D005980C9A036898
:100C200041685A4043465B680C9242464B405360D1
:100C300092688368C1685A404346DB684B4041462E
:100C40008A60CB604046FFF7E3FE102206000C00EE
:100C50000598414612F088FD069A13780133DBB2FD
:100C60001370BFF35F8F0022554B1A6085F3108815
:100C70003000210011B0F0BCBB46B246A946A046E8
:100C8000F0BD9C60B0E7524D524CAC4620686168A4
:100C9000514DA246A84600920193850D8F0286020F
:100CA0002F4334003D0024184D41A30E9946AB015B
:100CB00001934B46019A1A43A30100930192009CB1
:100CC000019D241A8D412000644608CC290002931E
:100CD0000023A4460393029C039D00196941C44567
:100CE000DBD1544620606160FFF766FE0CAB98468E
:100CF0000C9B4340029343465B680AA84B40059314
:100D000000F02CF90A980B99FFF756FE43469B68B2
:100D1000434006934346DB684B400793264B9B6951
:100D2000DB0400D4F4E0254BDA6BE0231340402BC6
:100D300000D1EDE0EFF3058300249A46002340251F
:100D4000009301941E4B2E0099465546C346164CFF
:100D50000023B04627682E0065689A4638002900AF
:100D6000002E1AD001F076FCEFF3108272B64B46DB
:100D70001B68002BFBD0BFF35F8F2368BB422DD0D5
:100D8000BFF35F8F4B465146196082F31088276886
:100D9000656838002900002EE4D101F0B7FAE3E7D6
:100DA0009BCF02208FCF0220E00C0020580B0020A8
:100DB000480B002090CF0220000006400080004039
:100DC000300100D0FFFFFF7F00000340FFFFFF0066
:100DD000001C0420500B0020002004206368AB425C
:100DE000CED1350046469046009A019B100019006E
:100DF000801859414B4BDA69012313400343009398
:100E0000019101F0E9FB0A220023801859410B00EF
:100E10008021020009068B4202D30122424B52423A
:100E200022606360012E5ED10098019935003F4E2B
:100E3000474630607160D846BFF35F8F3C4B9946A0
:100E400000234A46136087F31088FFF7B5FD029B25
:100E500043400C93059B4B4019005B46596001F0E1
:100E6000BBFBFFF7A9FD069B434018005B4698605B
:100E7000079B4B4019005B46D960EFF3108772B6B1
:100E80004B461B68002BFBD0BFF35F8F089B1B7882
:100E9000002B31D1274BDA681F2A3CD05A691F2A10
:100EA0003AD0DA691F2A39D05B6A03251F2B33D069
:100EB00010F00EFCFF25FF231F4AED0013701F4B9F
:100EC00002929C46052365446B604046FFF7A0FDF7
:100ED0001B4B102218004146059312F045FC0123DC
:100EE000089A13700CE0BFF35F8F00234A4613602B
:100EF00088F31088013E2BE70F4B0293104B0593AC
:100F0000BFF35F8F00220A4B1A6087F31088DCE57D
:100F100010F0DEFB0EE70025EBB2CDE70225EBB2C9
:100F2000CAE7C04600000640FFFFFF7F480B0020D5
:100F3000300100D0000003408FCF022008000340A2
:100F4000580B002010B5FFF7ABFD10BD10B50248DF
:100F500000F00CF810BDC04620CD002010B50822CE
:100F6000014912F001FC10BD20CD002030B5002554
:100F700089B004000922002101A8009512F0EEFBBF
:100F80000922002105A8049512F0E8FB4B236A46CC
:100F90006846137004A90D2217F002F815210822E3
:100FA0002000694412F0E0FB09B030BDEFF310807F
:100FB00072B6034A1368002BFCD0BFF35F8F7047F3
:100FC0002C0100D0BFF35F8F0022024B1A6080F328
:100FD000108870472C0100D070B5EFF3108C72B6FA
:100FE0000D4D2B68002BFCD0BFF35F8F0724CB087F
:100FF000C618C05C01230C40A3401C0004400342FF
:1010000007D118433070BFF35F8F2C608CF31088CA
:1010100070BD100010F03EFB2C0100D0F8B5474623
:10102000CE46884680B5EFF3108C72B6214D2C6801
:10103000002CFCD0BFF35F8F9A422CD8D40807272E
:10104000055D061901241740BC402C421FD0072122
:101050000127894609E0D408055D06194C46390088
:101060001440A1400C00294211D001329342F2D227
:1010700001204042BFF35F8F00220E4B1A608CF3B9
:10108000108800280FDBC0BCB946B046F8BD254328
:1010900010003570EEE7BFF35F8F00232B608CF3F9
:1010A0001088012040424346002BECD0089810F0F5
:1010B000F1FAC0462C0100D030B5EFF3108C72B6B7
:1010C0000A4C2368002BFCD0BFF35F8F072301225B
:1010D0000B409A40CD08435D93434355BFF35F8F68
:1010E000002323608CF3108830BDC0462C0100D053
:1010F0000021044B044ABFF35F8F02C39342FAD12D
:101100007047C046000100D0800100D0044A10782A
:10111000431CDBB2172B00D9102313707047C04655
:10112000F804002010B5034B01001800024AFFF735
:1011300053FF10BDD4110020CC810110142310B531
:101140000100188804331B88984710BD162310B57A
:101150000100188802331B88984710BDF8B5474630
:10116000CE4680B50F1E19D01423994604330400CF
:101170000025012698464B461888434621681B885F
:10118000984701C4431E9841013540420640AF4292
:10119000F1D13000C0BCB946B046F8BD0126F8E731
:1011A00010B50C2082B001F0A7FDFFF7FDFB002871
:1011B00010D08B4B8B488B498B4A186059609860D4
:1011C000D960186159619861D961186259625A628F
:1011D00002B010BD854CA06701F096FD0122844B42
:1011E0001A60636C012BFCD10322824B1A607F4A88
:1011F000936B012BFCD1013301217F4A7F4800937F
:10120000043301F029FD05237D4A009301217D4827
:1012100001F022FD7C4B5A68FF2A02D8802252003E
:101220005A608022734B6E4C12011A6021690029AA
:1012300007D0606911F02EFE013043001B18033BFC
:10124000FDD2E022704B714819680A400260022208
:101250001968514001320A40042102609A68114223
:10126000FCD080216A4A09011160802252005A6034
:10127000684B2361684B5968FF2900D85A600322E4
:1012800001215B4B1A60644A93681942FCD0E02349
:101290001068034061480360126803234A4002213A
:1012A00013405D4A036093681942FCD080215C4B77
:1012B0000901196080215B4B4900516063615A4B01
:1012C0005A68FF2A00D859608022584B12011A60D0
:1012D000E169002907D0606911F0DCFD01304300AD
:1012E0001B18033BFDD2E0234F4A11680B405049C5
:1012F0000B6080214F4B090119608021394B490057
:101300005160E3614C4B5A68FF2A00D85960802233
:101310004A4B12011A60216A002907D0606911F056
:10132000B9FD013043001B18033BFDD2E023424AC4
:1013300011680B4042490B608021424B0901196042
:1013400080235B0053608022264BD20223623E4BF7
:101350005968914200D25A6080223C4B12011A60B7
:10136000616A002907D0606911F094FD01304300E3
:101370001B18033BFDD2E023334A11680B4034496C
:101380000B608021334B090119608023DB0253601D
:10139000154B6362304B5A68FF2A02D880225200F4
:1013A0005A6080222D4B12011A60A169002907D0D2
:1013B000606911F06FFD013043001B18033BFDD243
:1013C000E023254A11680B4025490B608021254BFD
:1013D0000901196080235B005360124BA361F7E69B
:1013E000680B0020006CDC021BB70000008000408E
:1013F0003CB0004030B00040002F685900800240EF
:10140000008C864700C00240308000403090004091
:1014100030A00040001BB7003C8000403C900040E2
:101420003CA00040405973075480004054B0004035
:101430005490004054A000406080004060B00040E4
:101440006090004060A000406C8000406CB00040A4
:101450006C9000406CA000404880004048B00040C4
:101460004890004048A00040014B8000C0587047A1
:10147000680B0020094A10B5944640248300634459
:101480001A68C00062408034144080225201134325
:101490001C60034B9C466044416010BD04C0014089
:1014A00000400140074B80009C4660440368C9002F
:1014B00092000A435A400C231A4080235B010343E5
:1014C0001A60704704C00140084B80009C4660448D
:1014D000002905D0802302229B0103431A60704734
:1014E000C02302229B0103431A60F8E704C00140B5
:1014F000D0231B061B6830B50500584243412F20FE
:101500005B4283430D48EC08844607202840800056
:10151000814020000A4D3C3063448000A4004151CA
:101520001B19002A04D0802292011343196030BD98
:10153000C022920113431960F9E7C04630410140CF
:1015400000400140D023F0B5C6461B0698461B68F4
:101550000C4F9B001600FA5804000D0000B5104215
:1015600009D1290014430D203200FC5000F086F808
:1015700080BCB846F0BD10F0ABF843461B689B003A
:10158000FA58EEE70CCD002010B504000D2000F055
:1015900065F9D0231B061B6802499B005A58A243D9
:1015A0005A5010BD0CCD00200123D02283401206DA
:1015B00093629361094A40219446830063441A6808
:1015C000C0004A408031114080225201134319600B
:1015D000034B9C46052360444360704704C00140B0
:1015E0000040014001238340002904D0034A1360D6
:1015F000034A13607047034A1360FBE780E200E090
:1016000000E100E080E100E001238340014A136033
:101610007047C04600E200E0024B10309B6880003B
:10162000C058704700ED00E070B50D00EFF3108674
:1016300072B60F4A1368002BFCD0BFF35F8F0D4BBF
:1016400010309B6884001B590B4A934203D09D4283
:1016500001D010F03DF8074B9B681D51BFF35F8F21
:10166000BFF35F8F0022024B1A6086F3108870BDB3
:10167000240100D000ED00E0CD010010F0B54E4691
:101680004546DE465746E0B583B0060000919046D9
:10169000EFF3108B72B6654A1368002BFCD0BFF3D2
:1016A0005F8F0025624B5D579A46002D00DA79E086
:1016B00052466B005F4C5F19BF000193E3199946D6
:1016C0009B79103613705C4BB6009B6899590B1BC5
:1016D0002F2B33D9594B994200D07CE0019B023724
:1016E0009C46574B6544AD006353564BE719043B8A
:1016F000DB1B554A1B055B0D651913436B80534B70
:101700000121AB80FF23AB714346EB71009BAB60C3
:101710004B460B431900484B9B689951BFF35F8FB1
:10172000BFF35F8F0022414B1A608BF3108803B028
:10173000F0BCBB46B246A946A046F0BD01200A0057
:101740008243D379434549D9BC464746884607E09A
:101750005800C01880002018C179B94228D9020069
:101760000623D356002BF3DA9A46131D9C464146B6
:10177000B846374F484663460438C01A0005324B16
:10178000400D1843019B908095715A195346920061
:10179000A418A37143462F4AE371009B2260A780DF
:1017A000A360B8E70FF094FF002553465D577FE72D
:1017B0009A464146131DB84667469C4690880437B2
:1017C00040050015E7196044C01BE0270005400DE7
:1017D0003F020743CEE70FF07BFF7FE713001E4970
:1017E0001B1B5B415943090D154BBD1CE353154BA6
:1017F0006519043B5B1B1B05134D5B0D2B43AC466E
:101800004D466B8065460437131FE719DB1B1B052C
:101810005B0D1D434B4699714146D97100999D80DE
:10182000996049460B4B0143136074E7240100D0D3
:1018300097CF0220FC04002000ED00E0CD01001055
:1018400000A1FFFF2C05002000E0FFFF01BDFFFF0E
:1018500001BD000001488047AAAA0000F0B5DE469D
:1018600057464E464546E0B50C0083B0EFF310886E
:1018700072B65D4A1368002BFCD0BFF35F8F5B4BE1
:101880005B499A68030010339F00D5598D4239D0C7
:10189000A5424AD0574EAA1B2F2A33D8012292467E
:1018A000824091464846544A12681040019048468A
:1018B000524A1060BFF35F8FEFF305829346002A10
:1018C00035D0934201D00FF003FF2A0053469A43CC
:1018D0009068844208D175E04B005B189B00F318B8
:1018E0009868A04234D01A00062151560029F3DA34
:1018F000844253D0019B002B26D04A46404B1A60AD
:101900003D4B1A60394B9B68DD51BFF35F8FBFF3CE
:101910005F8F0022344B1A6088F3108803B0F0BC4C
:10192000BB46B246A946A046F0BD0D00EAE72A0034
:1019300053469A4390688442D6D10620105613002D
:10194000002809DA0D0031E04A462C4B1A60D9E72D
:1019500006201856002822DB42001118890074184E
:101960008A46A1689960E179D97106216156997119
:10197000002925DBA488F11A6405241554440919AB
:10198000E0240905490D24022143998013181D4ABA
:101990009B001178F31899711070ABE7130059464A
:1019A000002914D1FF3191711749918015490A78A6
:1019B0009A71164A9B1B5B415A43120D0A7099E7B4
:1019C0001349E2E70620105613000028C4DA114A32
:1019D0001149D21A083A5002400D014399800F492B
:1019E00052080A43DA8085E7240100D000ED00E0C8
:1019F000CD010010FC04002000E100E080E100E0E7
:101A000080E200E097CF022001BDFFFFAAAA0000FC
:101A100001BD00003605002000F0FFFF00F8FFFFC9
:101A2000032310B50400074A18409446C0009C43A5
:101A3000FC3383406444226881409A4313000B4383
:101A4000236010BD00E400E070B5EFF305810124D0
:101A50000443EFF3108C72B6214A1368002BFCD0BC
:101A6000BFF35F8F1F4B05001F4AED1A6D416A439C
:101A7000120D1E4D8900AE6852B27658A6421CD097
:101A80000621595691421CD012215956914222D01A
:101A90001E215956914220D02A21595603249142A1
:101AA00010D0134B19781A708171BFF35F8F002229
:101AB0000B4B1A608CF3108870BDAB680D4C5C50FA
:101AC000EFE700246100091989005B18FF21997173
:101AD00009499980E5E70124F4E70224F2E7C046CA
:101AE000240100D0FC040020AAAA000000ED00E0C0
:101AF00097CF0220CD01001001BDFFFF054B064A24
:101B00001360064A136053609360D360136153619E
:101B1000936170478080808000E400E004E400E08E
:101B20001F2110B5091A0248FFF7C6FA10BDC046BA
:101B3000A0CF022010B5084B084C82B001000093E2
:101B4000002205232000FFF769FA002801DB1F238C
:101B5000181A02B010BDC046EC810110A0CF0220BF
:101B600070B504000E001500FFF7D0FA0100200048
:101B700000F006F8A680E580BFF35F8F70BDC04619
:101B8000024B9C466144890001607047400000346C
:101B900010B50400FFF7BAFA01002000FFF7F0FFCC
:101BA00001235B426360BFF35F8F10BD10B504007B
:101BB000FFF7ACFA01002000FFF7E2FF01235B42D0
:101BC000636000232372BFF35F8F10BD83680B48EF
:101BD00010B58446614462441201090159189B18EA
:101BE0005C684A680120944201D802D00020C0B24B
:101BF00010BD1A680B689A42F9D8F7E7FFFFFF0F8C
:101C0000074810B50268EFF3108172B61368002B15
:101C1000FCD0BFF35F8F12F0FDFA0020002110BD51
:101C200034CE0020F8B5574645464E46DE46E0B570
:101C300098460CAB1C780DAB1B78070091469A4672
:101C40000568002C5AD1AC7B002C3BD0660029687B
:101C50003619033E89194B78AB73002B00D1EB7317
:101C600000238B704B700B702B4BE218BB6812017A
:101C70009B184A461A6042465A600A9A9A600B9A22
:101C8000DA6000238B704B700B706B7B9B46002BD4
:101C900027D022006B685946A86898475B465B00CE
:101CA0005B442A68033B002812D058469619B0704E
:101CB000D118D35C002B00D073705B460C706B7333
:101CC0005C450FD0F0BCBB46B246A946A046F8BD65
:101CD000D3189C709119925D002A00D05A705B460F
:101CE0000B706C734A464346387D00F009FD051EB3
:101CF0000AD10E9B002BE5D01D70E3E76600296832
:101D00003619033E8919AFE75346002BF1D1210064
:101D1000386800F065FFECE7FFFFFF0FF0B5DE4627
:101D200057464E4645460023E0B58BB00893684BB6
:101D30008200D45800239B46099000F04DFC02001D
:101D40000B006068EFF3108A72B6564601680029EE
:101D5000FCD0B246BFF35F8F21684F7B8C46002FCB
:101D60002ED0A5685B49A9467918090189444946DE
:101D70000868496805000E00AD1A9E41002E5FDD1F
:101D800002000B00099800F0BBFC002300229946DA
:101D9000002306920793002398466368BFF35F8F82
:101DA0005A461A608AF310884346002B12D1002845
:101DB000C3D10BB0F0BCBB46B246A946A046F0BDAD
:101DC0000023002299460023069207930023002057
:101DD0009846E2E7089B494618023843C0476268C4
:101DE00005000E00EFF3108A72B61368002BFCD0CA
:101DF000BFF35F8F002E41DB2B00334302D02369FA
:101E0000002B56D12368D97B002905D01A684800D9
:101E100041185218033A57709A7B002A00D19F73D9
:101E2000DF73E268013FD35D0133D3555B46236125
:101E30006368BFF35F8F5A461A608AF310887CE7A5
:101E4000002E02D1002D00D09AE70021604600F05C
:101E500045FE4B461A685B68069207934B469B68A3
:101E600098464B46DB689946E368DB19013B1B78D3
:101E700008931B020343236100208EE72369002B94
:101E8000C0D0069A079B8021521BB34109068B42A2
:101E900002D30122104B52420021049101310391DF
:101EA000494601914146200002970091FFF7BAFE92
:101EB000BCE700F091FB2A00330012184B4180214F
:101EC00009068B42E8D30122034B5242E4E7C046A5
:101ED000A0BA0020FFFFFF0FFFFFFF7F10B5144CDB
:101EE0006368002B04D00A211248FFF749FE10BD99
:101EF0002300114A1021206800F002FD032000F0A9
:101F000043FB032000F064FC03200C4900F0B2FB0B
:101F1000FFF7FCF80A4B9C4603232375D0231B06CE
:101F20001B6860446375074B80006060DC60DAE723
:101F30004405002034CE0020CD1B00101D1D0010D4
:101F400040000034A0BA002000487047440500203B
:101F500070B50500182011F0ABFB16490400020013
:101F6000280000F09DFC10212060280011F0BEFB2D
:101F70000121A060280011F0B9FBE060012000F011
:101F800019FB050000F024FC28000B4900F072FB4F
:101F9000FFF7BCF8094B25759C46D0231B061B6830
:101FA00060446375064BAD0080006060EC5020001B
:101FB00070BDC046CD1B00101D1D00104000003438
:101FC000A0BA00200E4B10B50400984217D0002193
:101FD000027D0C4B92000068D15000F0AFFC002154
:101FE000207D00F047FB207D00F0DAFAE06811F078
:101FF0009DFBA06811F09AFB200011F097FB10BD2B
:1020000044050020A0BA0020F0B557464E4645468C
:10201000DE46E0B585B0019310AB1B780600039354
:1020200000239A46984600927268EFF3108B72B6BE
:102030001368002BFCD0BFF35F8F3568AC7B002C9E
:1020400000D16EE067002B683F19033FDB195A7817
:10205000AA73002A00D1EA73484AA118B26809019C
:10206000521800980199106051600E9991600F9973
:10207000D16042469A705A701A706B7B9946002B59
:1020800000D16BE022006B684946A86898474B4630
:102090005B004B442A68033B002856D04846D719BA
:1020A000B870D118D35C002B00D07B704B460C70FD
:1020B0006B734C4553D0F3681B19013B1878736858
:1020C000BFF35F8F42461A608BF310885346002B94
:1020D00008D10002204305B0F0BCBB46B246A94679
:1020E000A046F0BD039B002B46D00E9B00200F990D
:1020F000984703000B433FD004000D1E1ADA009AE4
:10210000019B121BAB410092019380221206934265
:1021100004D301231A4C5B4200930194039B9A461B
:1021200082E77368BFF35F8F1C608BF31088012018
:102130004042D0E700F050FA8022001969411206AF
:10214000009001919142E9D3E3E7D3189C70D11933
:10215000D25D002A00D05A704B460B706C73307DF4
:10216000009A019B00F0CCFA82460028A3D02100FF
:10217000306800F035FD9EE70020ACE7FFFFFF0F61
:10218000FFFFFF7FF8B557464E46DE46454692466E
:10219000E0B5040099464268EFF3108772B6136801
:1021A000002BFCD0BFF35F8F2668B57B002D3DD0A0
:1021B0006B005B19033B9846316841444B78B3731D
:1021C000002B00D1F373334BEA18A36812019B185C
:1021D00052461A604A465A600A9A9A600B9ADA6026
:1021E00000238B704B700B70737B9B46002B36D09B
:1021F0002A0073685946B06898475B465B005B44A9
:102200003268033B00281FD0D11840468C465946FF
:1022100010188170D35C002B00D0437063461D7092
:102220005B46002073735D451FD119E06368BFF3FF
:102230005F8F1D6087F3108801204042F0BCBB46D1
:10224000B246A946A046F8BD41464046D3189D7007
:102250005118125C002A00D05A705B460B707573DF
:1022600052464B46207D00F04BFAE3685B19013B78
:102270001E786368BFF35F8F00221A6087F31088AF
:10228000002802D130022843D8E7207D00F0BEFAB2
:10229000F8E7C046FFFFFF0FF8B5040000292FD074
:1022A0004268EFF3108572B61368002BFCD0BFF3C1
:1022B0005F8FFF222068CFB2437B0A40BB4213D01E
:1022C00003685600B6189B19033B9B78002B0BD173
:1022D0002269914216D000206368BFF35F8F00220D
:1022E0001A6085F310880CE0E6680B0AB218013A10
:1022F0001278DBB29A42EED1390000F071FCEBE7C4
:102300000020F8BD2361E6E7407D7047F0B5474601
:10231000CE46040080B50D0096267642F717361992
:102320006F4185B08F4215D812D000F055F93200B8
:102330003B00121A8B41002B16DC002B39D02000F9
:10234000290000F087F905B0C0BCB946B046F0BD21
:102350008642EAD90026002700F03EF932003B0011
:10236000121A8B41002BE8DD002302930193124BDC
:102370003200009311483B00FFF746FE0028DEDBE9
:10238000B846B1460E4F0F4E7B6A984504D8BA6ADC
:102390004A45D4D29845D2D13268EFF3108172B653
:1023A0001368002BFCD0BFF35F8F300011F0FEFEEE
:1023B000EAE7002AC3D0D7E7011C0010440500203B
:1023C0000040054034CE002070B5060000F004F94E
:1023D000FA2204000D00002330000021920011F0C9
:1023E000C7F88023001969411B06994202D30120D6
:1023F00002494042FFF78AFF70BDC046FFFFFF7FE2
:10240000F0B5EFF30583CE46474680B505000C00D6
:1024100085B0002B12D02A4A0020536AA34203D36E
:10242000926A0130AA4204D305B0C0BCB946B04696
:10243000F0BD1B1B5A1E9341D8B2F5E7214E029303
:102440000193214B0200009330000B00FFF7DCFDED
:10245000031EE0DD20BF7168EFF3108772B60A68D3
:10246000002AFCD0BFF35F8FDAB29446FF223068B7
:102470001A40417B61450FD001688946510088466A
:1024800049469044414403398978002904D132698E
:10249000934209D1316107E0F1681B0A8A18013AB9
:1024A0001278DBB29A4207D07368BFF35F8F0022C5
:1024B0001A6087F31088AEE7614600F091FBF3E7FE
:1024C0000040054044050020011C0010F0B5EFF36A
:1024D0000582D6464F4646461000C0B51038EFF389
:1024E000108872B6214C2368002BFCD0BFF35F8F9D
:1024F0000123190081401E4D1F006963AA461D4D2E
:1025000029601D4D2E78AC463500C5402F402B422A
:1025100015D053465F6A194B8500EB589F4218D37C
:102520006246174B8E43EB581670BFF35F8F002245
:10253000226088F31088002B06D0984704E0BFF390
:102540005F8F276088F31088E0BCBA46B146A84682
:10255000F0BD0C4B92009C46624413681360BFF3BD
:102560005F8F0023236088F31088EDE7280100D0F7
:10257000004005403C7005409FCF022038CE00202F
:10258000A40F0020D03F054010B5034B01001800F8
:10259000024AFEF721FD10BD91CF022010820110EA
:1025A00010B5034B01001800FEF786FD10BDC046B4
:1025B00091CF022010B5064B064C82B0010000936B
:1025C000002203232000FEF729FD02B010BDC04603
:1025D0003482011091CF0220034B596A0A00986A95
:1025E000596A8A42FAD170470040054070B504002C
:1025F0000D00174A536A1900966A536A8B42FAD142
:102600003000190024184D41AB4216D813D0104B9E
:102610002A005B6A9D4203D90D494B6A9342FCD361
:10262000934207D10A4A02E0516A994202D1916A63
:10263000A142F9D370BDA642E9D9054B5B6A1C00E3
:102640005A1CEFD0012201246442E5175242E3E70D
:1026500000400540064A536A9942FCD807D1044B12
:1026600002E05A6A914202D19A6A8242F9D37047D3
:102670000040054070B504000D00EFF3108672B6FF
:102680001A4A1368002BFCD0BFF35F8F002D1BD0BC
:102690002000FEF7C1FF164981420AD02000FEF754
:1026A000C3FF01212000FEF79DFF0123A340114A33
:1026B0001360114BA400E550BFF35F8F00220B4B5A
:1026C0001A6086F3108870BD0121A1400A4BA20058
:1026D000D5500A4B20001A788A4305491A70FFF733
:1026E000BDF800212000FEF77DFFE5E7280100D0BE
:1026F000CD24001038600540A40F00209FCF022099
:10270000F0B54F46D6464646C0B507002B4C616A29
:102710000D00A66A616AA942FAD18B4208D805D099
:102720000120E0BCBA46B146A846F0BDB242F7D996
:10273000EFF3108A72B6224801680029FCD0BFF37B
:102740005F8F0125BD401F491C4C8846097889468A
:102750002943C9B28C46414660460870391D89003C
:1027600065630A511849B8004350216A0020294284
:1027700019D0616A0800A66A616A8142FAD18B4267
:1027800019D801D1B24216D8CC450BD00B4B1F2221
:102790001D625D6301233A4093400C4A1360434637
:1027A0004A461A700120BFF35F8F0022044B1A6063
:1027B0008AF31088B5E70020F5E7C04600400540E1
:1027C000280100D09FCF022038CE002080E200E018
:1027D000EFF3108C72B60A490B68002BFCD0BFF3E4
:1027E0005F8F01238340074A0748136202789A43A8
:1027F0000270BFF35F8F00230B608CF3108870476B
:10280000280100D0004005409FCF0220EFF3108C3C
:1028100072B60A490B68002BFCD0BFF35F8F01230F
:102820008340074802781A430270BFF35F8F00228B
:102830000A608CF31088034A13607047280100D0A7
:102840009FCF02203C60054070B506000D001400CB
:1028500000291DD0002A12D0736880689847620052
:102860006B0012195B193168033A033B002808D04A
:102870008A189570C818CB5C002B0BD10470280007
:1028800070BDCB189C7088188A5C002A05D1057031
:102890002000F5E753700470F1E75A700570F7E710
:1028A000F0B5CE460700894600B51021012016007C
:1028B00010F01CFF03210500380010F017FF4B46F5
:1028C0006B600023FCB26B73013328602C73AE6025
:1028D000AB73EC73012C06D9421C0133DBB21370CD
:1028E00003329C42F9D1FF233B405A00D318C6184B
:1028F0000023033E2800737080BCB946F0BDC0467B
:1029000010B583600023CCB243730133426004737B
:102910008373C4730068421C012C05D90133DBB2F8
:10292000137003329C42F9D1FF230B405A00D31895
:10293000C01800230338437010BDC04610B5040012
:10294000006810F0F3FE200010F0F0FE10BDC0464D
:1029500070B505000C1E07D0630001681B19033B0E
:10296000CB185A78002A01D1200070BD5000801881
:102970000338091800204E7848702100587028004C
:10298000FFF762FF310004002800FFF7E1FF0600B7
:10299000002C20D00028E7D0320021006B68A86806
:1029A00098477200630092191B192968033A033B88
:1029B000002808D08A189470C818CB5C002B00D06F
:1029C00053700670D0E7CB189E7088188A5C002A76
:1029D00000D05A7004703400C6E7C046F0B55746C0
:1029E0004546DE464E46E0B50D006F0001687F1992
:1029F000033F0400C85D83B00192CA19002850D07B
:102A000043001B18033BCB185E78B446002E1AD146
:102A1000019E002E42D0E67B002E04D073009B194D
:102A2000CB18033B5D70A37B002B00D1A573E5732E
:102A300000282FD10023537003B0F0BCBB46B24630
:102A4000A946A046F0BD72006244033A8A18517844
:102A500088460021517089465970320001002000DB
:102A6000FFF7F2FE43468246002B07D05B00216849
:102A70004344033BCB185A78002A16D142465146AC
:102A80002000FFF7E1FE2168019BCA19002BC2D18B
:102A90000028CFD043001B18033BCB1800219970AE
:102AA000C8E7019B002BB6D1C4E75000801803385B
:102AB00009184878834648464870587041462000B7
:102AC000FFF7C2FE594680462000FFF741FF41460E
:102AD00002002000FFF7B8FE8046CFE7F0B557466A
:102AE0004546DE464E46E0B583B00191457B040085
:102AF0006F0000687F19033FC15DC219002952D0E1
:102B00004B005B18033BC3185E78B446002E1CD103
:102B1000019E002E44D0E67B002E04D073009B194A
:102B2000C318033B5D70A37B002B00D1A573E57335
:102B3000002931D1002328005370617303B0F0BC29
:102B4000BB46B246A946A046F0BD72006244033AB5
:102B500082185078804600205070814658703200AC
:102B60002000FFF771FE43468246002B07D05B0032
:102B700021684344033BCB185A78002A17D14246B8
:102B800051462000FFF760FE019B01002068C2193A
:102B9000002BC0D10029CDD04B005B18033BC318DC
:102BA00000209870C6E7019B002BB4D1C2E750000B
:102BB000801803380918487883464846487058708A
:102BC00041462000FFF740FE594680462000FFF7AF
:102BD000BFFE414602002000FFF736FE8046CEE7EA
:102BE00070B5050000292CD0437B8B422ED04C00C1
:102BF00000686418033C0419A278002A21D053000D
:102C00009B18033BC25CC6188A4202D11BE0002A13
:102C100008D053009B18033BC3185A788A42F6D158
:102C200062785A70002301222800A3706370FFF7B6
:102C3000D5FE697B02002800FFF706FE68730120BD
:102C400000E0002070BD63783370EBE701221900CB
:102C5000FFF7C4FEF2E7C046F8B5040021481D00A6
:102C600017000E0010F016F90100380010F012F9EC
:102C7000069B29041B0319432368002B20DB1A4BF6
:102C80001A4DE21853425A4180235B019C461203BD
:102C9000174B62441A60174B1A601700AB689F43CA
:102CA000FBD1C022231D92011A4321232660A0607C
:102CB00013602368002BFCDA0823E1601360F8BD81
:102CC0003F2322681340B342D9D1A3681B051B0DD3
:102CD0008342D4D1EE22E368D20213408B42CED19C
:102CE000EDE7C046001BB7000040FDBF00C000403C
:102CF00000E0004000F000408023024A9B000343B4
:102D0000D362704700800540AA23064A1B01136066
:102D10002F230549D360054B19605368002BFCDA5B
:102D20007047C0460040024000B0FA000060024018
:102D300010B501F037FC00F059FB00F021FD00F068
:102D4000C5FD05F0B1FC01F0BDFC00F085F905F012
:102D50001DFC10BD40BA80B27047C04600BA704733
:102D6000F0B5C646584D04002B68884600B5002BC8
:102D700003D02A7A824200D17CE0544E2701EB68CE
:102D8000002B02D02A7DA2426AD0AB69002B03D06F
:102D90002022AA5CA24259D06B6A002B03D02C22BD
:102DA000AA5CA2422CD03B191B01F318DB7B002C40
:102DB00035D0B27A022A68D0012C35D08D2252004B
:102DC000B25C022A00D172E0022C31D0404AB25CDF
:102DD000022A00D172E0032C2AD1032B0DD83D4DDD
:102DE0009B00585905F05AFF00223F193F01F7197F
:102DF000FB7B9B005A510423FB7380BCB846F0BD9B
:102E00003819000110304146AA6A3018984700234B
:102E10006B623B191B01F318DB7B002CC9D18D229F
:102E20005200B25C022A3BD0294AB25C022A32D05C
:102E3000294AB25C022AD0D1284AB25C9A42CCD14B
:102E400004223B191B01F318DA73D6E73819000185
:102E500010304146EA69301898470023AB619BE780
:102E600038190001103041462A693018984700236C
:102E7000EB608AE707013818144E000110306A68C9
:102E80003018984700232B6079E7F27B9A42D7D01D
:102E9000012C93D1C8E7124AB25C9A42C8D1CFE75D
:102EA0002022FF32B25C9A4200D08FE7C8E720228E
:102EB000FF32B25C9A4200D086E7C1E7084AB25CB2
:102EC0009A4200D087E7BBE7401C0020781C002016
:102ED0002A020000301C00203A0300003F030000DB
:102EE0002F020000564BF0B54546DE4657464E468B
:102EF00098460301E0B59B461D1843462D015E1917
:102F0000F37A070089B0012B00D996E04D4A9B0067
:102F1000D4580192002C00D185E01035454428009A
:102F200014F0C2FEA022123081B29200362000F0CE
:102F3000EFFE8146002869D005AC0C22002120005C
:102F400010F00CFC3089FFF705FF01232080A370EF
:102F50000C22FF3321004846A38001F089F93A4B47
:102F60000C269A464346013D029703936A786F1CEC
:102F70003B0000242E2A07D15AE05A780134E4B2EB
:102F8000591C2E2A49D00B00002AF6D1DA1B92B226
:102F900090461D002200B218524534DC2200310058
:102FA000484601F01FFA731C9BB2A419424639002F
:102FB000484601F099F9A4B22B78661CB6B2002BF2
:102FC000D4D1039B0022310048469846029F01F06D
:102FD00009FA1E4B02340422049304A9A3B2484602
:102FE00001F082F93B0001995B448C461B0143448C
:102FF000DA7ADB7B16499B009200585862443523ED
:10300000494605F0D9FD484600F0DCFF09B0F0BCA8
:10301000BB46B246A946A046F0BD5B1B9BB2984694
:1030200022000D00B7E70021FFF79AFEB472EDE72A
:1030300000233D0000229846ADE706480EF02AFB2B
:10304000781C0020701C0020FEFF00000001000121
:10305000301C0020488201107047C046012800D96A
:103060007047054B8000002902D00A68C250F7E77C
:10307000024A1268C250F3E7701C0020709A0110D7
:10308000F8B5DE4657464E4645460223E0B5474E64
:10309000002534009B460027A37A022B39D030D874
:1030A000002B22D08D235B009846414B9946414B23
:1030B0009A46FDF747FFB37A80B2022B41D04346D0
:1030C000F35C022B44D04B46F35C022B49D05346B1
:1030D000F35C022B4ED05B46A37201232081E77282
:1030E000280023736773FFF7FDFE01351134EDB23D
:1030F000FF34042DD0D1F0BCBB46B246A946A04651
:10310000F8BD032B4FD12368002B13D10023A372EA
:10311000EBE7237B013BDBB22373002BE5D1637B21
:103120000133DBB26373042B2AD023732800FFF72B
:10313000D9FEDAE7013B2360002BD6D10023A3722E
:10314000D3E733898342B4D04346F35C022BBAD130
:103150001733FF33F35A8342ABD04B46F35C022B59
:10316000B5D18A239B00F35A8342A2D05346F35C25
:10317000022BB0D1CE239B00F35A8342ABD198E708
:10318000E37A002B08D10C4A5268002A04D00122AD
:103190006373E2722273C9E700212800FFF7E0FDA4
:1031A0000023A372A1E705480EF074FA781C0020F2
:1031B0002A0200003A030000701C00207C820110EB
:1031C0000123F0B51E0000250640184205D0002955
:1031D00053DD057801392D0201300322130003402D
:1031E000104251D1072957DD072208390F009143BA
:1031F0000A00010004000831891822689A189A42CE
:103200009B415B42D21863680834D31893429241C1
:1032100052429B18A142F0D1F9084A1CD2008018F2
:10322000C9001A04791A120C1B0C9B18012910DD15
:1032300002889B188A1E012A05DD44881B1905296E
:1032400001DD81885B1851084C1C6400490000199D
:10325000511A012904D10278FE318D431543ADB2D4
:10326000ED182B0C2D042D0C5B19180C1B041B0CDA
:10327000C018002E02D180B2F0BD00200306000469
:103280001B0C000E1843F6E7012903DD0388023901
:103290000230A7E70023DCE71A00C5E7F8B5574678
:1032A0004E46DE464546E0B591460A9A8A46116882
:1032B0001B680A04120C090C52181904090C521844
:1032C0001B0C9B181A0C1B041B0CD3181F0C1B0483
:1032D0001B0C0400FF18002825D000239B46FF3359
:1032E00001269846658960682900FFF769FFC019C3
:1032F000070C0004000C3F182E4209D05B464146E3
:1033000073403A069B463B0A120C0B401A431700C7
:103310002468002CE6D15B46002B04D03A063F041B
:10332000120C3F0E17435046FFF714FD04004846A9
:10333000FFF710FD2318DB191A0C1B041B0CD31804
:10334000180C1B041B0CC018C04380B2F0BCBB4659
:10335000B246A946A046F8BD10B582B0049C0094C0
:10336000FFF79CFF02B010BD10B5FFF729FFC04367
:1033700080B210BDF8B5CE464746040080B500289F
:103380002FD000239946FF330027012698466589F0
:1033900060682900FFF714FFC019070C0004000C37
:1033A0003F182E4209D04B46414673403A06994693
:1033B0003B0A120C0B401A4317002468002CE6D17C
:1033C0004B46002B0AD038063B04000C1B0E18435A
:1033D000C04380B2C0BCB946B046F8BDF84380B225
:1033E000F8E70148F6E7C046FFFF00000322094B5B
:1033F000FA219343084A0901136000221A71074A0F
:1034000058181060012219600271054A5A50054A85
:10341000136070475BBD002050BD002054BD0020EC
:10342000A00FA00FF8200020F0B5D6464F46464624
:10343000C0B500285DD0830700D079E003003E4A84
:10344000083B12689A4200D96CE03C490C300C6889
:10345000844267D31979002967D0FA2019885E88D9
:10346000000181420BD8864209D8981A80B2804662
:1034700090198246B04505D00088404502D03048BA
:103480000EF008F95018844238D045884545F6D1E9
:1034900000251D712B4DAC462D689D4202D9654615
:1034A0002B601D009C4232D9834212D00779002F35
:1034B0000FD184420DD0A84230D00188FA20198063
:1034C0000001814205D04446501844805E8890191E
:1034D000824653450DD050460079002809D1AB42B1
:1034E00018D053461980FA231B01994201D0521873
:1034F0005680E0BCBA46B146A846F0BD00251D7115
:10350000104DAC462D68AB42C9D39C42CED80E4874
:103510000EF0C0F8634650461860E2E761461D00B1
:103520000B60CAE709480EF0B5F809480EF0B2F88A
:1035300008480EF0AFF8C04650BD002054BD002032
:1035400004830110F820002038830110C08201108C
:10355000DC8201109C820110F8B5CE464746384AFD
:10356000CB1C80B513400B2B3FD9FA22120193429A
:103570003ED899423CD8334A1668864256D8324AD9
:103580001268824252D90400083C2588A11B2A00F7
:1035900089B2083A521A92B29A424AD321D0771984
:1035A000BC463F79002F25D1FA221201954243D023
:1035B00062461288254D91460A0008329B182F68F2
:1035C0009BB2F21867452FD0002515714D465180EA
:1035D0001580FA212380128809018A4201D0B2188D
:1035E0005380C0BCB946B046F8BD0C239942C2D93D
:1035F0000020F6E71F001437BFB2BA42F1D30A0029
:1036000008329B18FA229BB298461201954213D0B9
:103610000E4FF2183B68934200D93A6000274346A8
:10362000177115805180D4E72A60CDE708480EF065
:1036300031F808480EF02EF807480EF02BF8C04677
:10364000FCFF000050BD002054BD0020F8200020E9
:10365000548301106C8301108C830110F8B5DE4691
:1036600057464E464546E0B500282ED03D4BC61C79
:103670001E40B3460B2E2FD9FA231B019E4224D89D
:10368000584522D8384BFA279A461B68594699461E
:10369000364B3F0118684B461B1A9AB21B041B0C91
:1036A0007F1ABB4211D2082149428846C418944669
:1036B0002579C25A19001300002D04D14646711A0B
:1036C000891859450BD29742F0D80020F0BCBB4670
:1036D000B246A946A046F8BD0C239B46D0E75B4600
:1036E0001433994211D201235E4623710836204BD0
:1036F0001968A14520D0A619B1422CD3200008306A
:10370000A407E3D01B480DF0C5FF5E466346FA27C9
:1037100008369B199BB23F01BB421FD0C1180A80DB
:1037200062464A8001220D71238022710A88BA42C2
:10373000DDD082185380DAE7230004E01B88C31829
:103740001A79002A04D08B42F8D153461960D2E787
:1037500052461360CFE708480DF09CFF07480DF074
:1037600099FFC046FCFF0000F820002050BD00205B
:1037700054BD0020D0830110A08301108C83011060
:1037800024230022F0B54746CE46904699460332A0
:1037900004249446124E80B5124B134FB144414657
:1037A00032683960614603338B43002C0BD0158897
:1037B0000021002200E003000132196058191900AD
:1037C000A242F8DB3B600436B14504D0326897680A
:1037D00053685488E3E7C0BCB946B046F0BDC04664
:1037E0005884011034B200205CBA002010B50828BB
:1037F00012D80C4B8000C458FCF7C8FFA3681C68A3
:10380000002C07D022681A60A30707D1FCF7C0FF7D
:10381000200010BDFCF7BCFF0024F9E702480DF0C2
:1038200039FFC046588401101484011070B50C0093
:1038300008280ED800290CD0084B8000C5588B07EB
:1038400008D1FCF7A3FFAB681A6822601C60FCF784
:103850009FFF70BD02480DF01DFFC0465884011047
:10386000388401100C2040427047C04670B5436850
:1038700016000A6804000D0082B09A4201D102B01D
:1038800070BD3360300001A9019201F09FFE30004D
:1038900001A905F02FFA01A9300000F063FE3923D9
:1038A00029686160E25C343B1340052B05D0E36975
:1038B000002BE4D020009847E1E70029F7D0120759
:1038C000F5D52000211D07F057FBF0E77047C046F3
:1038D000F0B54746CE4680B504000F0091469846A5
:1038E00083B0002800D180E00B9B002B7DD0002905
:1038F00000D18FE04B46002B00D188E04346002BDF
:1039000000D181E0474B002563610022392320006C
:103910006560A560E56025860021E2542830042218
:103920000FF01CFF0A9B404E63623C233278E56136
:103930002562E2540C9B23613B68002B5BD0002185
:10394000002000224B461B68984200D0A3604346EB
:103950001B6899423CD1002A3DD020000B9B984720
:10396000002842D1314B9C461F683C23E55CFF2D6B
:1039700018D03C20002F1AD0BC424FD03B00FF2271
:1039800007E01B68002B12D09C4247D0013A002A66
:1039900017D0195CA942F4D10135EDB2FF2D13D037
:1039A0002554E9E7E05400253C20002FE4D1FE2D0A
:1039B00032D00135EDB263462760200035701C60BF
:1039C00014E01B480DF066FE002300252354D3E7C6
:1039D000E360002AC1D12000390001AAFFF746FFA9
:1039E00020000B9B98470028BCD0002003B0C0BC2F
:1039F000B946B046F0BD3900200001AAFFF736FFF6
:103A00000122A068E1689DE70A4B98467AE7094BD6
:103A1000994673E7074F6DE70025CCE706480DF0A0
:103A200039FEC0466538001098CF022080BA0020C9
:103A3000FC840110709A0110E8840110F0B50400B4
:103A40000D0017001E0083B0002922D0002F23D0C4
:103A5000002E24D02B680022002B15D03B68A168D3
:103A60008B4200D0A3603368E1688B4203D1002A07
:103A700004D003B0F0BDE360002AFAD16A46290001
:103A80002000FFF7F3FEF4E76268002A09D1012263
:103A9000E4E7164D002FDBD1144F002EDAD1134E80
:103AA000D8E7684601A90193009201F08FFD6846AE
:103AB00001A905F01FF901A9684600F053FD39235B
:103AC0002A686260E15C343B0B40052B07D1002A79
:103AD00005D0090703D52000211D07F04DFAE36941
:103AE000002BD4D0200098470122B7E7709A01102C
:103AF00070B5041E16D04368002B17D1392201215E
:103B0000A35C194224D11D4B1A68A2422ED01C4A34
:103B10001368A34204D126E01A68A24203D013001E
:103B2000002BF9D170BD22681A60FBE7051D00214A
:103B3000280001F04BFD0021280005F0DBF80021F2
:103B4000280000F00FFD39220121A35C1942DAD0D0
:103B500018008843A0541B070BD4E369002BD2D074
:103B600020009847CFE723681360DBE700221A6044
:103B7000CDE7200006F064FEEFE7C0467CBA0020E7
:103B800080BA0020014B18607047C0467CBA002004
:103B900070B5041E15D03925435DDA0711D4012212
:103BA0001343DBB24355C269002A01D09047635DDD
:103BB00005221A40052A04D16268002A01D01B0799
:103BC00000D470BD2000211D07F0D6F9F9E7C046EA
:103BD00070B5041E03D03925435D5A0700D570BD6A
:103BE00004221343435505F08FFF0523625D134004
:103BF000052B05D0236A002BF1D020009847EEE773
:103C00006368002BF6D01207F4D52000211D07F0C1
:103C1000B3F9EFE710B500280AD039220421835CFC
:103C2000194205D08B438354036A002B00D0984778
:103C300010BDC046021E0ED0084B1868002809D0DF
:103C40003C2102E00068002804D0435C0133DBB271
:103C50009342F7D170470020FCE7C04680BA0020AD
:103C6000F8B505000026002826D00F270BE0012B11
:103C700024D0002B2AD12800FFF7D6FB0136F6B25C
:103C8000002C19D02500FCF781FDAC7B002C1AD04C
:103C9000013CE4B2AC73FCF77BFD002C0CD12B7B18
:103CA0002C683B40022BE2D1290008200136FFF7A7
:103CB000BDFDF6B2002CE5D13000F8BD290007208B
:103CC000FFF7B4FDDAE703480DF0E4FC02480DF01D
:103CD000E1FCC0462C8501104485011010B5FCF7AD
:103CE00055FD0022084B1A70FCF752FD074B18686F
:103CF000002803D107E0C068002804D0436F002BE0
:103D0000F9D001F0ADFC10BD99CF022048CE0020C3
:103D10000023F0B54F4699460B040B43D646464662
:103D20009846C123C0B582460D00170004005B0011
:103D30009A423FD008D81400433BFF3B9C43012CE0
:103D40006AD03D480DF0A6FCA0239B009A42F8D112
:103D50000300032403330335A343A5435B199BB23C
:103D60001800103080B2AB421DD385421BD8FFF73C
:103D700075FC061E18D04B4603605346C7184346D1
:103D8000133783602D4BA7434760C3600CE0FCF7FB
:103D9000FDFC01222A4B1A70FCF7FAFC002E02D01F
:103DA0003000FFF75DFF00263000E0BCBA46B146A8
:103DB000A846F0BD00239846224B00269A460023D1
:103DC0000327994607E04246ED1AADB21060002D78
:103DD000EAD0804600240820FFF708FD0028D6D04E
:103DE0005246E31CBB43D31A1A1C9BB2AB4200D908
:103DF0002A1C4946041993B213344281124ABC4327
:103E0000016044600581C260002EDCD1ED1AADB2C4
:103E10000600002DDDD1C7E70720FFF7E7FC061EEF
:103E2000C2D04B4603604360434683604B460773F2
:103E30004373C481B8E7C046588501108000010073
:103E400099CF0220EC0500008200010070B5041E2D
:103E500033D002898A421BD98A1A07E0C91A2389FA
:103E600089B29B1823812468002C20D063898B425F
:103E7000F4D3227B0D040D43120701D18B4208D1EC
:103E80002068A560002801D0FFF7EAFE0023236028
:103E900070BD636820001B1BC91889B2FFF75CFB6B
:103EA000002807D08442EBD005480DF0F3FB05480D
:103EB0000DF0F0FB04480DF0EDFB04480DF0EAFBBB
:103EC000C08501108C850110A48501107485011036
:103ED000030070B500281ED080225202914218D2F1
:103EE000002914D002898CB2A21892B2944210D840
:103EF000057B01207F2D0BD95D68691A1D001035E7
:103F0000A94205D3596059891A8164185C8100203F
:103F100070BD0120FCE701480DF0BCFBDC85011001
:103F200010B5002815D080235B0299420FD20029DA
:103F30000BD043898AB29A4209D89B1A44684381BC
:103F4000038961189B1A41600381002010BD012084
:103F5000FCE701480DF09EFBDC85011010B500293F
:103F600015DB002829D000290FD003898AB2D31885
:103F70009BB29A421FD84468611A047B7F2C16D8E2
:103F800041604189038152184281002010BD002800
:103F900013D0494243898CB29C420CD81B1B426807
:103FA0004381038952181B1B42600381EDE7040023
:103FB0001034A142E4D20120E8E701480DF06AFB89
:103FC000DC85011010B5002802D0FFF749FE10BDB6
:103FD00001480DF05FFBC046DC85011003000020A6
:103FE000002B04D01B68013080B2002BFAD170473F
:103FF00010B5041E09D0FCF7C9FBA37B0133A373E2
:10400000FCF7C6FBA37B002B00D010BD01480DF0D0
:1040100041FBC046E885011010B5002816D00029E4
:1040200014D00268002A01D111E01A0003890C891A
:104030001B19038113681000002BF6D110895389D6
:10404000834206D1088911601B18138110BD02003C
:10405000F4E701480DF01EFBFC85011010B50C00C3
:1040600000281FD000291CD00368002B07D002892C
:1040700021895218028118001B68002BF7D1028990
:104080004389934211D1228904609B180381FCF774
:104090007DFBA37B0133A373FCF77AFBA37B002B8F
:1040A00006D010BD0029FCD0F1E703480DF0F2FA6C
:1040B00002480DF0EFFAC046FC850110E8850110BA
:1040C000F8B54746CE46804680B50D0091461F00A4
:1040D000002900D17EE00B89934200D27AE00028CB
:1040E00000D177E04B460289FB189A4200DA71E072
:1040F000002644896B89E41B9B1B9C4200D91C0051
:104100004C4500D94C464346696858682200C0199E
:1041100089190FF029FB4B463F1936191C1BA3B216
:10412000994643465C89BC4257D36B89B34257D307
:1041300003D12D680026002D2FD0BC420FD06A89F4
:104140002B899A4223D043461B89A34217D04B4662
:10415000002BCFD10020C0BCB946B046F8BD4346C5
:104160001B689846002B25D06A892B899A420DD06E
:1041700043465C8943461B890027A342E7D1434657
:104180001B68002BE3D006204042E4E700272B68A1
:10419000002BF8D143465C89D5E74B46002B19D15B
:1041A000BC42D0D143461B689846002BD2D0370082
:1041B0005C89C8E74B46002B0CD16A892B8900200B
:1041C0009A42C8D12B6806305A4253415B4218408C
:1041D0000638C0E710204042BDE703480DF05AFA08
:1041E00002480DF057FAC0462C8601104486011093
:1041F00010B5002904D000230A89FFF761FF10BD24
:1042000010204042FBE7C046F0B5C6460500884690
:104210001700002600B5002826D0002924D0002F42
:1042200005D121E02D681B1B9BB2002D1CD06C8991
:10423000002B01D0A342F5D2E41A221CA4B2BC4246
:1042400000D93A1C94B2424669683F1B9019C918BC
:104250002200A619BFB20FF087FAB6B22D68002F60
:1042600002D00023002DE2D1300080BCB846F0BD62
:10427000F8B5CE46474605008846914680B50028E9
:1042800024D0002922D0038993421CD31600002792
:10429000002A02D112E0002D1BD06C89B44200D953
:1042A000340043466868D91922000FF05DFA361BC6
:1042B0002D683F19002EEED1B9450DD10020C0BCAC
:1042C000B946B046F8BD01204042F8E71020404210
:1042D000F5E703480DF0DEF902480DF0DBF9C046C2
:1042E0006086011078860110F0B5D6464F464646E6
:1042F00005008A46C0B5002805D146E02D68DB1BC5
:104300009BB2002D41D06F89BB42F7D22989981802
:104310008146814239DB9F4240D96868C018FB1A48
:104320009A422EDD9BB21A00514698460FF01CFAB5
:104330004B46DF1BBBB29946002B1CD02F68002FC9
:1043400029D03B894B4520D34E46002401E0002F65
:104350001ED07D89B54200D93500434619197868C9
:104360002A0051440FF000FA761B3F686419002EB2
:10437000EDD1A14515D10020E0BCBA46B146A84612
:10438000F0BD51460FF0F0F9F5E701204042F3E7A8
:1043900005480DF07FF910204042EDE703480DF08D
:1043A00079F903480DF076F96086011090860110C6
:1043B000788601100B0070B5150011891A00FFF7FF
:1043C000A7FC041E06D0002329002A89FFF778FEE7
:1043D000002801D1200070BD01480DF05BF9C046F6
:1043E000A886011005E043898B4205D8C91A0068E8
:1043F00089B20028F7D1704743685A54FBE7C0469A
:10440000F0B5DE46454657464E468046E0B5514F2C
:1044100083B03968786907F04BFF43465A684E4BC2
:10442000557A1C689B46002C00D18EE0002843D1B1
:104430003C2300269946844604E0E3682600002BCE
:1044400032D01C00237CAB42F7D1217A002906D060
:1044500048467B681B5C0133DBB29942EDD123688F
:10446000002B02D079698B42E7D10121637C19428C
:1044700003D061683B699942DFD163699A46002B9A
:10448000DBD0019221004246A069344BD04700287E
:1044900050D143465A68019B934258D102239C460F
:1044A000E3682600002BCCD1604603B0F0BCBB46CD
:1044B000B246A946A046F0BD0020012300269A4638
:1044C000019004E0E3682600002B31D01C00237C1F
:1044D000AB42F7D1217A002908D07B689C463C2367
:1044E0006046C35C0133DBB29942EBD12368002BF9
:1044F000E8D15146637C194203D061683B69994217
:10450000E0D163699946002BDCD00192210042463C
:10451000A069124BC84700280CD143465A68019B3A
:104520009A4214D102230193E3682600002BCDD1D7
:104530000198BAE7002E06D0E368F3605B461B687B
:10454000E3605B461C600120AFE70020ADE7044854
:104550000DF0A0F8DC20002014CD0020EC2000207D
:10456000BC86011010B5002811D00268002A0ED0B8
:1045700000290CD00B68002B09D0094B1B68002BBD
:1045800005D01C68944203D0DB68002BF9D110BD24
:104590000A681A60DB68002BF9D00268F1E7C046B0
:1045A00014CD00207047C04610B5041E22D0037DF4
:1045B000042B05D0072B0CD0032B01D0002007E0E3
:1045C000200003F089F80523002807D0431C0BD0F6
:1045D00010BD03F081F80028F8D1092320002375CD
:1045E00003F08AFB0020F3E70822638B00201343CB
:1045F0006383EDE701480DF04DF8C04608870110D0
:1046000070B50600806F002803D0FFF7DBFC0023A5
:10461000B367746F002C18D06068256800280CD030
:10462000FFF7D0FC21000420FFF700F9002D0AD08D
:104630002C00606825680028F2D121000420FFF7D3
:10464000F5F8002DF4D1002373670123F46E5B426B
:104650003386002C16D06068256800280CD0FFF740
:10466000B1FC21000420FFF7E1F8002D0AD02C0056
:10467000606825680028F2D121000420FFF7D6F8F1
:10468000002DF4D1346F002C16D060682568002806
:104690000CD0FFF797FC21000420FFF7C7F8002D8E
:1046A0000AD02C00606825680028F2D1210004207F
:1046B000FFF7BCF8002DF4D100236822F3663367BE
:1046C000B35270BD10B5FCF73DFC044A800494461B
:1046D000034B800C6044188010BDC04600C0FFFF33
:1046E0007005002010B5037D0100012B03D00220CE
:1046F000FFF79CF810BD01480CF0CCFF14870110A7
:10470000F8B5031E1BD0048DC16A466A5D8E0F4F3B
:10471000601A80192A1CBD420CD892B2821A07D5A1
:10472000891B09D48022520291420BD200208CB204
:104730005C85F8BD3A1CF0E700240020F8E7044847
:104740000CF0A8FF03480CF0A5FFC046D0160000EF
:10475000288701104C870110F8B500281DD0037D73
:10476000012B34D0048D1D4A61188BB293421BD9A2
:104770001300466A458E1A4FC46A0385B218291C75
:10478000BD420BD889B20919511A11D5A41B1BD4EB
:1047900080235B029C421DD24485F8BD391C89B23E
:1047A0000919511AF2D403E09C42E1D81A00E0E75B
:1047B00043850C4B121B9A42EFD90222438B1343C1
:1047C000438303F099FAE8E700234385E5E70648C9
:1047D0000CF060FF05480CF05DFFC046A02D000006
:1047E000D0160000670B0000688701104C8701108D
:1047F000F0B5DE46454657464E46E0B5AF4DB04AA9
:104800002B6889B001332B60137807920133137042
:10481000AC4B9B46AC4B04935B461C68002C00D110
:10482000BFE000239A46079B2F009846237D002B6C
:1048300000D12BE2012B00D12EE20A2B00D128E27D
:104840004246A17F1278914200D134E1A277422200
:10485000A25C022B00D126E10B2A6CD8A122A25C1B
:104860009146002A00D135E1226F002A00D022E2D1
:10487000E26E002A00D127E2A222A25C0B2A5AD8BB
:104880004946A020914A895C225C8A4200D2C1E15B
:104890006023E15A00293ED1200003F029FD0028C1
:1048A0003FD0237D002201259146062B48D0627A15
:1048B000120724D5042B00D08FE13A68236AFA212D
:1048C000D31A05939423E25804339446E6580433EC
:1048D000E05849007043604406920EF0DBFA059BF5
:1048E000834200D975E1A325FA21635D069A5E43F0
:1048F0004900B0180EF0CEFA059B834201D84D4610
:10490000D5E0200003F086FC0028F8D1635D013378
:1049100063554D46CBE0200002F004FE002800D194
:104920009FE1A0230022E254A132A35C062BB8D859
:104930000133A354B5E7012202259146062BB6D1D7
:10494000636F628B1E00D20600D52EE1627A1207D9
:1049500000D435E100224D4691461E1E0AD03A6829
:10496000236AD21A4023E15E4B005B185B0093423E
:1049700000D8FEE0237D032B3BD0092B6CD0002D0B
:1049800000D077E1237F627F0133DBB2E5682377D4
:104990009A4200D870E0A2462C00002C00D045E7D7
:1049A0003D004B4F00243968002904D11AE00C0067
:1049B000C968002916D00B7D0A2B00D06FE12B6847
:1049C0000A6A9B1AF02BF2D93B68002C00D11CE13B
:1049D000994200D16CE1CE68E6600220FEF726FF26
:1049E000311EE8D109B0F0BCBB46B246A946A0468C
:1049F000F0BD3B68226A9B1A282B32D99023E558D8
:104A00002000FFF7FDFD5B4652461B68002A00D1DF
:104A1000F5E09C4200D145E1E368D3604B46002BB2
:104A200000D0DFE0E36826699946237D012B00D1A1
:104A30003BE121000220FEF7F9FE0023049C2370D5
:104A4000002D07D00D2130004942A8472378002BC4
:104A500000D00DE14C46A0E73B68226A9B1AF02B80
:104A6000CCD8002DCAD1237F627F0133DBB2E56849
:104A700023779A4200D98EE70023049A2377137094
:104A80008C33E358002B0AD0210020699847049BFF
:104A90001B78002B00D0EBE0002800D07BE7200043
:104AA00003F02AF977E7052A00D8D7E60125002385
:104AB0009946636F51E7A246E4686EE758CE00203E
:104AC0009ECF022048CE00209CCF0220DB8A01101E
:104AD0005CCE00203022A15E7D48228E824202D828
:104AE000013211B221864022A25E01258A4200DDF8
:104AF000DBE6200002F000FF002800D09AE0227DD3
:104B0000022A16D03C22A35E3E21625EDB109B1877
:104B10004222A15C6F480A1C0C2900D997E0D2B24E
:104B2000825C934080221202934200DB8DE040229F
:104B3000A3520023482023866033E15A255A628E0F
:104B40000B1CA94200D92B1C9BB250005B0885B2FC
:104B5000191CAB4200D2011C4A23E152023BE25233
:104B600000222233E252200003F0F0FA0125237DD7
:104B70009BE670680595356800280CD0FFF722FA8F
:104B800031000420FEF752FE002D0AD02E0070687E
:104B900035680028F2D131000420FEF747FE002DD1
:104BA000F4D10023059D6367E4E63A68216A521A4E
:104BB000282A05D900218946002B00D0D2E61DE71E
:104BC000002B2ED0236A3A684D46D21A002399460C
:104BD000C8E601239946636FBFE6072B00D16CE658
:104BE0004D4664E7238B626A216D0293E38A2000BD
:104BF0000193231D0093230002F04CFF12E79C4217
:104C00005FD15A46E368136008E7994256D1CE68EF
:104C10003E60E2E60132D2B222548A4200D241E63C
:104C200036E64B46002B00D1ACE69023E558002336
:104C30009946E5E6237D216F1A00002900D034E66D
:104C4000E16E002900D05BE72FE6234B6FE70C22D3
:104C5000D2B2825C934080221202934200DA66E76D
:104C6000F3E7200003F048F8002800D059E618E6E2
:104C70003D00D1E59022A558002B00D1C3E60A2BB8
:104C800000D1C0E6012B00D0BAE6BCE613480CF018
:104C900001FD13480CF0FEFC12480CF0FBFC12481E
:104CA0000CF0F8FC11480CF0F5FC11480CF0F2FC8B
:104CB00010480CF0EFFC10480CF0ECFC0F480CF026
:104CC000E9FC0F480CF0E6FC0E480CF0E3FCC04693
:104CD000FE7F0000E48A0110FF7F00009087011032
:104CE000E8870110BC870110D88801108088011066
:104CF00014870110088901101488011030890110EF
:104D0000AC8801104888011070B5041E16D0606888
:104D1000256800280CD0FFF755F921000420FEF784
:104D200085FD002D0AD02C00606825680028F2D18E
:104D300021000420FEF77AFD002DF4D170BDC0469D
:104D400010B5041E08D04068002801D0FFF73AF9DA
:104D500021000420FEF76AFD10BDC04670B5051E97
:104D60000DD00420FEF742FD041E06D010222900BB
:104D70000EF0FAFC6068FFF73BF9200070BD0148B7
:104D80000CF088FC5889011010B5002806D0037D6E
:104D9000012B03D90A2B01D0FFF732FC10BDC0460E
:104DA00010B50C1E47D0002848D003688B4204D1B0
:104DB0002FE0DA68A24224D01300002BF9D100239F
:104DC000E360237D002B0FD1638BDA0729D4E36ED8
:104DD000002B36D1236F002B36D1636F002B36D1D9
:104DE00000232375E38210BD0A2BF0D0012BF7D0EE
:104DF0002000FFF705FC237D0A2BE8D0012BEFD024
:104E0000E2E7E268DA600023E360237D002BEBD168
:104E1000DAE7CB6803600023E360237D002BE3D156
:104E2000D2E7022213436383200002F065FF237D53
:104E3000012BD5D0CBE707480CF02CFC06480CF032
:104E400029FC06480CF026FC05480CF023FC05481C
:104E50000CF020FC7489011090890110B0890110B8
:104E6000C8890110E4890110F0B54E464546DE467A
:104E70005746E0B505000E0087B0002876D0037DC8
:104E8000012B00D1B0E00A2B00D19BE0026D9246CD
:104E9000426A059290228258934602699146C28ADC
:104EA0009046002B69D1002A6FD100230026984636
:104EB0002C6F002C16D06068276800280CD0FFF7F4
:104EC00081F821000420FEF7B1FC002F0AD03C003D
:104ED000606827680028F2D121000420FEF7A6FCB4
:104EE000002FF4D1EC6E002C16D0606827680028E3
:104EF0000CD0FFF767F821000420FEF797FC002F85
:104F00000AD03C00606827680028F2D12100042004
:104F1000FEF78CFC002FF4D16C6F002C16D060686B
:104F2000276800280CD0FFF74DF821000420FEF779
:104F30007DFC002F0AD03C00606827680028F2D171
:104F400021000420FEF772FC002FF4D1002E2CD19A
:104F50002B7D012B45D029000220FEF767FC5B4624
:104F6000002B03D00D2148464942D84707B0F0BC7A
:104F7000BB46B246A946A046F0BD29001C48FFF733
:104F80000FFF01221B4B1A7092E71B4A13688342E2
:104F900008D1C36813600023EB6086E7DA68AA4291
:104FA0001CD01300002BF9D1F5E72B8B514602934F
:104FB000434601932B1D009328002B00059A02F015
:104FC00069FDC5E729000D48FFF7EAFE2B7D012B9F
:104FD00007D029000220FEF729FCC7E7EA68DA605B
:104FE000D9E707480CF056FB06480CF053FBC046C7
:104FF00048CE00209CCF02204CCE00205CCE00206A
:1050000014870110FC89011010B50121FFF72CFF56
:1050100010BDC046F0B5C646060000B50220FEF73A
:10502000E5FB041E2AD0A422002120000EF096FBEE
:105030006423624A6675E252614B4022A362FF23F9
:10504000E372F93BA352E3875E4B443223635E4B2A
:105050001B6823625D4B1B78A3775D4BA3645D4B9C
:10506000A35094235C4AE2505C4A0433E250092284
:105070000433E250200080BCB846F0BD584B0827EE
:1050800098461D68002D0AD02800438BED681F420A
:10509000F8D0BB434383FFF787FA002DF4D1514B7F
:1050A0001B68002B11D00021474A10681A6A821A27
:1050B000914201D811001C00DB68002BF6D1002CB6
:1050C00003D001212000FFF7CFFE0220FEF78EFB68
:1050D000041EA8D143461B68002B16D03A4A002173
:1050E000106802E0DB68002B09D01A7D092AF9D18B
:1050F0001A6A821A9142F5D811001C00F2E7002CBE
:1051000003D000212000FFF7AFFE0220FEF76EFB68
:10511000041E00D087E743461B68002B16D02A4A9E
:105120000021106802E0DB68002B09D01A7D082AF4
:10513000F9D11A6A821A8A42F5D311001C00F2E7EB
:10514000002C03D000212000FFF78EFE0220FEF786
:105150004DFB041E00D066E773B2002B2BDB002E44
:1051600022D0320043461B68013AD2B2002B1BD03A
:1051700015490F680021884607E0186A3A1A9046D8
:105180001C000A00DB68002B08D0597D8A42F4D845
:10519000F8D1186A3D1AA845F4D8EFE7002C03D0DF
:1051A00001212000FFF760FE0220FEF71FFB041E16
:1051B00000D038E75EE77F22D4E7C046A02D00008C
:1051C000A02DA02DFFFF180258CE00209ECF022058
:1051D0000100A02D7553001000DD6D00F8240100C2
:1051E00048CE00205CCE002030B5040085B00028F9
:1051F00000D19FE0037D002903D0042B0DD0072BA5
:105200000BD0012B00D169E0022B4ED0002B3BD0FC
:105210002000FFF7C9F905B030BDA36F002B54D0B3
:10522000638BDB0600D488E0238B626A216D0293D6
:10523000E38A20000193231D0093230002F02AFC3F
:10524000237D012B04D90A2B02D02000FFF7D8F9C7
:105250003D4A1368A34214D1E3681360002301227E
:10526000E3603A4B1A703A4B1B68A34232D0237D5D
:10527000012B24D137480CF00DFADA68A24250D045
:105280001300002BF9D1E9E7E38A002B17D0324A4B
:105290001368A34204D14AE0DA68A24244D0130062
:1052A000002BF9D10023E36009E021002648FFF735
:1052B00077FD0122254B1A70237D012BDAD00220C5
:1052C0002100FEF7B3FA0020A5E7244B228D9A4275
:1052D000A6D19DE701F0DEFF00209CE720490020D9
:1052E0000D000C354B681B68002B05D0DA6F94421B
:1052F00012D0DB68002BF9D104318D42F2D12100AC
:105300001848FFF74DFD237D012B19D00320210004
:10531000FEF78CFA00207EE7D867DB68002BE5D12A
:10532000EAE7E268DA6099E7E268DA60BAE7E36838
:105330001360B7E70C480CF0ADF90C480CF0AAF973
:105340000B480CF0A7F9C04648CE00209CCF0220A5
:1053500050CE0020148701104CCE0020A02D00005C
:10536000CC8A011054CE0020308A0110508A0110DE
:105370006C8A0110F0B5C6460800140000B500297B
:105380004AD0002A2CD013890A7D012A47D0098DE2
:10539000264A5B189BB293421ED913009046476A77
:1053A000468E234AC56A0385B844311C964200D90B
:1053B000111C424689B24919511A21D5ED1B1CD442
:1053C00080235B029D422DD245852000FEF7FAFD29
:1053D000002080BCB846F0BD9942DED81A00DDE757
:1053E000002BF5D10B7D012B03D010224B8B1343E7
:1053F0004B830121FFF7F8FEEBE700234385E4E749
:1054000043850C4B521B9A42DFD90222438B134334
:10541000438302F071FCD8E710204042D9E70648E8
:105420000CF038F905480CF035F9C046A02D000005
:10543000D0160000670B0000688701104C87011030
:10544000F8B5041E32D00023866F777B83678433E0
:10545000C558002D0CD00023320021000069A84758
:1054600000280BD00D301ED00520A6674042F8BDA5
:105470003189FFF771F93000FEF7A4FDBF0610D5A2
:10548000238D0C4A934201D0013323858423E558B0
:10549000002D06D00023002221002069A8470D30EE
:1054A00001D00020E3E70D204042E0E71020404219
:1054B000DDE7C046A02D0000F0B54F464646D64673
:1054C000C0B5204D204F2B7801332B701F4B9946D0
:1054D000012398464B461C68002C1BD008262B78CD
:1054E000A27F9A421BD04246A377638B1A421ED1F9
:1054F0001E4216D1E3689A46A36F002B07D0002303
:1055000020003B70FFF79CFF3B78002BE2D1544614
:10551000002CE4D1E0BCBA46B146A846F0BDE46830
:10552000F6E7B34320006383FFF73EF8E2E7022289
:1055300013436383200002F0DFFB0322638B93435A
:105540006383D5E79ECF02209CCF022048CE002067
:1055500010B5FFF7B1FF054A13780133DBB21370C2
:10556000DB0700D410BDFFF743F9FBE79DCF022016
:1055700010B5002806D0054B054A18681268801837
:10558000186010BD03480CF085F8C0466C0500207B
:1055900058CE0020888A011010B5002A10D00029AA
:1055A0000DD00A8E002A0AD0131C282A00D22823E4
:1055B000283B1A1C9BB2834200D9021C90B210BD3A
:1055C00001480CF067F8C046A48A011070B50500C8
:1055D0000E00002802D00368002B00D170BD1D4AC8
:1055E0001068002804D10CE0002C0AD020002B68A1
:1055F0000268C4689342F7D10121FFF735FC002C03
:10560000F4D1154B1C68002C0AD022682B682000AE
:10561000E4689A42F7D10121FFF726FC002CF4D16F
:10562000002EDBD03368002BD8D00C4B1A68002A30
:10563000D4D02B681168994205D0D268002ACDD009
:1056400011689942F9D133681360D268002AF0D109
:10565000C4E7C04648CE00204CCE002054CE0020E7
:1056600070B5446F0600002C18D0606825680028CB
:105670000CD0FEF7A7FC21000420FEF7D7F8002D80
:105680000AD02C00606825680028F2D1210004208F
:10569000FEF7CCF8002DF4D10023736770BDC0462F
:1056A000F0B5DE4657464E464546E0B583B0002885
:1056B00000D1C1E0624B1D88002D30D0614B6249A2
:1056C0009C46002362461380604B00221F68604B9B
:1056D00088461C880023002F28D01600954200D849
:1056E0009DE0531CB1B29BB28C423DD8191B0139CD
:1056F000C9B2795C01293DD002293FD000290CD0E4
:105700009C4200D975E01B1BDBB2FB5C012B00D86F
:105710008EE09A1892B20123DFE76246138003B04D
:10572000F0BCBB46B246A946A046F0BD4649019131
:1057300009688A4614218946914495426FD9514699
:105740004E46895D531C9BB2012962D002295DD06F
:105750000029E2D001990968CB181B7D012B67D97C
:105760009A1892B20123B6E7414609688919097D62
:105770000129C1D11A0001360123AFE7911C89B27A
:105780009C4221D81B1BDBB2FB5C042B4DD14B1C74
:105790009D424ADDD31C9BB2043292B28C422FD878
:1057A000091BC9B2795C09029C4225D9264E36688C
:1057B000F618337D0B43591E264E89B2B14200D9EB
:1057C000254B4386012386E71F4E0196019E3668CE
:1057D000F3181B7D042B28D14B1CAB4225DAD31CBC
:1057E0009BB2002FD8D17118097D043292B2090200
:1057F000DEE715490191ADE71B1BDBB2FB5CD9E786
:10580000114E36687118097D0902CDE7911C89B2E5
:10581000DCE7012293461A00D94401238DE7002BCF
:1058200000D17CE763461A8079E76346198076E702
:10583000634602321A8072E708480BF02BFFC0461D
:105840008ACF022086CF022060CE002064CE0020C6
:1058500088CF0220B3050000B4050000F48A0110CF
:10586000F0B5D6464F46464605000C00C0B50028A8
:105870005CD0C368587B1A7B00021043FDF76AFABC
:10588000C0074FD401239A46FE339846294E32680A
:10589000E36894465A79197912020A43997928895A
:1058A00009041143DA792789120660440A43811AF0
:1058B000C91B2DD4587B1A7B00021043FDF74AFA0E
:1058C0005346034207D127682000FFF739FA002F1B
:1058D00017D03C00DBE7EB68587B1F7B00020743D7
:1058E0000120FDF737FA41463843EA6883B227685A
:1058F00008401B0A107353732000FFF721FA002F92
:10590000E7D100242C60E0BCBA46B146A846F0BD01
:10591000101AF7D56346D21A91B268682981FEF74A
:1059200095FAEFE72000FFF7EFF9EAE702480BF0FE
:10593000B1FEC04628CD0020108B0110F0B55746AF
:10594000DE464E464546E0B583B007000C1E019288
:1059500046D02D4B9B46662398462C4B9A465B4679
:10596000E1681D684A790B7912021A438B79C8796C
:105970001B04134300061843FDF7F0F923890600C2
:105980009946E368AD1B587B1A7B00021043FDF774
:10599000E1F94B46ED1A03231840431E98412D1A96
:1059A0002AD460682568FEF719FB4346FB5A9842E3
:1059B00027D842461B1ABB52524623891288200020
:1059C0009B1852461380FFF7BBF94346FB5A002B46
:1059D0000ED0002D01D02C00C1E7019B002B0DD073
:1059E000002003B0F0BCBB46B246A946A046F0BDBD
:1059F000002DF5D02C00B2E72000F2E704480BF0B0
:105A000049FE04480BF046FEA00F002084CF022080
:105A1000608B0110388B0110F0B5DE4657464E46BC
:105A20004546E0B5017D040083B0032901D800F0AC
:105A3000BBFCAA4BAA4E1B783268DB0651D4A94B9B
:105A40000093009B32681B889C46002B00D195E098
:105A5000217D636A062900D991E0991A481E00D574
:105A600050E165468146D01A471EEF4200D54BE112
:105A70009D4D6868002801D100F0C1FC9B4B994204
:105A800001D900F0B9FC028989B28A4201D200F042
:105A9000B0FC2B89521A5B1A2B81438992B299422E
:105AA0000AD90027BC46C91A6346028143810068AF
:105AB00089B243898B42F6D3FEF732FA636AEA6809
:105AC000190A5171190233601371090E1B0E91717D
:105AD000D371238D002B00D065E2200002F0E6F8A0
